:100000000C9454050C947C050C947C050C947C0594
:100010000C947C050C947C050C947C050C947C055C
:100020000C947C050C947C050C947C050C947C054C
:100030000C947C050C947C050C947C050C947C053C
:100040000C94D81A0C947C050C94481B0C94221B1D
:100050000C947C050C947C050C947C050C947C051C
:100060000C947A1B0C947C0500000000003E5B4F52
:100070005B3E3E6B4F6B3E1C3E7C3E1C183C7E3C08
:10008000181C577D571C1C5E7F5E1C00183C180016
:10009000FFE7C3E7FF0018241800FFE7DBE7FF30A6
:1000A000483A060E2629792926407F050507407F14
:1000B00005253F5A3CE73C5A7F3E1C1C08081C1C87
:1000C0003E7F14227F22145F5F005F5F06097F017D
:1000D0007F006689956A606060606094A2FFA29468
:1000E00008047E040810207E201008082A1C080836
:1000F0001C2A08081E101010100C1E0C1E0C303884
:100100003E3830060E3E0E06000000000000005F84
:1001100000000007000700147F147F14242A7F2AA0
:100120001223130864623649562050000807030062
:10013000001C2241000041221C002A1C7F1C2A08AE
:10014000083E080800807030000808080808000011
:1001500060600020100804023E5149453E00427F85
:10016000400072494949462141494D331814127FD4
:100170001027454545393C4A494931412111090774
:100180003649494936464949291E000014000000F5
:1001900040340000000814224114141414140041C7
:1001A00022140802015909063E415D594E7C121184
:1001B000127C7F494949363E414141227F414141BC
:1001C0003E7F494949417F090909013E4141517337
:1001D0007F0808087F00417F41002040413F017FA8
:1001E000081422417F404040407F021C027F7F0470
:1001F00008107F3E4141413E7F090909063E4151B9
:10020000215E7F09192946264949493203017F01A8
:10021000033F4040403F1F2040201F3F4038403FA9
:10022000631408146303047804036159494D4300BF
:100230007F4141410204081020004141417F0402F6
:10024000010204404040404000030708002054548D
:1002500078407F284444383844444428384444286B
:100260007F385454541800087E090218A4A49C78BE
:100270007F0804047800447D40002040403D007F1A
:100280001028440000417F40007C047804787C08FA
:100290000404783844444438FC18242418182424CE
:1002A00018FC7C08040408485454542404043F44B3
:1002B000243C4040207C1C2040201C3C4030403CE2
:1002C00044281028444C9090907C4464544C440042
:1002D00008364100000077000000413608000201A6
:1002E0000204023C2623263C1EA1A161123A404092
:1002F000207A38545455592155557941225454780F
:1003000042215554784020545579400C1E527212A7
:100310003955555559395454545939555454580030
:1003200000457C410002457D420001457C407D1234
:1003300011127DF0282528F07C5455450020545496
:100340007C547C0A097F4932494949323A44444441
:100350003A324A4848303A4141217A3A424020787C
:10036000009DA0A07D3D4242423D3D4040403D3C7D
:1003700024FF2424487E4943662B2FFC2F2BFF09A2
:1003800029F620C0887E0903205454794100004496
:100390007D413048484A32384040227A007A0A0A81
:1003A000727D0D19317D2629292F282629292926F4
:1003B00030484D4020380808080808080808382F39
:1003C00010C8ACBA2F102834FA00007B00000814C3
:1003D0002A142222142A14085500550055AA55AA99
:1003E00055AAFF55FF55FF000000FF00101010FF39
:1003F00000141414FF001010FF00FF1010F010F094
:10040000141414FC001414F700FF0000FF00FF1484
:1004100014F404FC141417101F10101F101F1414D0
:10042000141F00101010F0000000001F101010101A
:100430001F10101010F010000000FF10101010100E
:1004400010101010FF10000000FF140000FF00FF4C
:1004500000001F10170000FC04F4141417101714E8
:1004600014F404F40000FF00F7141414141414140A
:10047000F700F7141414171410101F101F1414147D
:10048000F4141010F010F000001F101F0000001FE7
:1004900014000000FC140000F010F01010FF10FF1A
:1004A000141414FF141010101F00000000F010FFAF
:1004B000FFFFFFFFF0F0F0F0F0FFFFFF0000000093
:1004C00000FFFF0F0F0F0F0F3844443844FC4A4A17
:1004D0004A347E02020606027E027E0263554941CC
:1004E000633844443C04407E201E2006027E020203
:1004F00099A5E7A5991C2A492A1C4C7201724C3017
:100500004A4D4D303048784830BC625A463D3E49ED
:100510004949007E0101017E2A2A2A2A2A44445F91
:10052000444440514A444040444A51400000FF0185
:1005300003E080FF000008086B6B08361236243693
:10054000060F090F060000181800000010100030F8
:1005500040FF0101001F01011E00191D1712003C80
:100560003C3C3C0000000000000103070F1F3F7FE0
:100570000080C0E0F0F8FCFEDB40A4A62EAF200017
:10058000A1C8D300408DAED580A800006000000057
:100590000000000000000000000000E0000000007B
:1005A00000000000000000000001E000000000006A
:1005B000000000000000000001F00000000000004A
:1005C0000000000000000003F00000000000000038
:1005D00000000000000007F0000000000000000024
:1005E000000000000007F80000000000000000000C
:1005F000000000000FF800000003C0007E000001B2
:10060000E0007F0FF800000003C000FE000001E0E2
:1006100000FFEFF800000003C000FE000001E00052
:10062000FFFFF800000003C000F00000000F007F93
:10063000FE7FC0000003C000F00000000F003FFE7E
:100640007FF83FF1FBCFFCFEF3BC3DEFE01FFE7FE8
:10065000FF7FFBFFDFFEFEFFBC3DEFE01FC6FFFF9D
:100660007FFBFFDFFEFEFFBC3DEFE00FE3C7FE7840
:100670007BC3DE1EF0FFBC3DEF0007FF87FC787BED
:10068000C3DE1EF0F83C3DEF0001FFFFF0007BC32E
:10069000C01EF0F03C3DEF0001F37FE03FFBC3CF15
:1006A000FEF0F03C3DEF0003E33F807FFBC3DFFE45
:1006B000F0F03C3DEF0007E73C00787BC3DE1EF026
:1006C000F03C3DEF0007FFBE00787BC3DE1EF0F07C
:1006D0003C3DEF0007FFFE00787BC3DE1EF0F03CE0
:1006E0003DEF000FFFFE007FFBFFDFFEF0F03FFD60
:1006F000EFE00FFFFF007FFBFFDFFEF0F03FFDEFBD
:10070000E00FF9FF003E79F9CF9EF0F01F3DE7E0E2
:100710001FF1FF0000000000000000000000001FAB
:1007200080FF007FFFFFFFFFFFFFFFFFFFE01C00D8
:100730007F007FFFFFFFFEB46D888D18E000001F73
:10074000007FFFFFFFFE95AD7DB577E000000F0055
:100750007FFFFFFFFEA5AD9D8D19E0000006007F25
:10076000FFFFFFFEB5ADEDB57EE00000000000012B
:100770008000000000000000000003800000000076
:10078000000000000007C0000000000000000000A2
:1007900007C00000000000000000000FC0000000C3
:1007A0000000000000001FE000000000000000004A
:1007B000001FE00000000000000000003FE000001B
:1007C000000000000000003FF000000000000000FA
:1007D00000007FF0000000000000001FF87FF00024
:1007E0000000000000003FFE7FF00000000000005D
:1007F000003FFF7FF0000000000000001FFFFBE053
:10080000000000000000000FFFF9FFC00000000022
:1008100000000FFFF9FFF800000000000007FFF1E3
:10082000FFFF00000000000003FC73FFFF800000DA
:1008300000000001FE3FFFFF80000000000000FFFD
:100840001E0FFF000000000000007FFE1FFC0000E4
:1008500000000000003FFFFFF80000000000000063
:100860000FDFFFE0000000000000001F19FFC000C4
:100870000000000000003F3CFF00000000000000FE
:10088000007E7CF800000000000000007FFE7C007D
:1008900000000000000000FFFFFC0000000000005E
:1008A0000000FFFFFE0000000000000000FFFFFE50
:1008B0000000000000000001FFEFFE00000000004B
:1008C000000001FFCFFE0000000000000003FF0752
:1008D000FE0000000000000003FC07FE0000000016
:1008E00000000003F003FE00000000000000018093
:1008F00000FE000000000000000000007E0000007C
:10090000000000000000003E0000000000000000A9
:1009100000000C000000000000078000FC00000345
:10092000C0000000078001FC000003C000000007B9
:100930008001FC000003C0000000078001E000000F
:10094000001E000000078001E00000001E007FE3A1
:10095000F79FF9FDE7787BDFC0FFF7FFBFFDFDFFE5
:10096000787BDFC0FFF7FFBFFDFDFF787BDFC0F0C6
:10097000F787BC3DE1FF787BDE00F0F787BC3DE107
:10098000F0787BDE0000F787803DE1E0787BDE00D9
:100990007FF7879FFDE1E0787BDE00FFF787BFFDF3
:1009A000E1E0787BDE00F0F787BC3DE1E0787BDEBC
:1009B00000F0F787BC3DE1E0787BDE00F0F787BC14
:1009C0003DE1E0787BDE00FFF7FFBFFDE1E07FFB6C
:1009D000DFC0FFF7FFBFFDE1E07FFBDFC07CF3F38B
:1009E0009F3DE1E03E7BCFC0000000000000000022
:1009F000000000FFFFFFFFFFFFFFFFFFFFC0FFFF43
:100A0000FFFFFD68DB111A31C0FFFFFFFFFD2B5A0E
:100A1000FB6AEFC0FFFFFFFFFD4B5B3B1A33C0FFDC
:100A2000FFFFFFFD6B5BDB6AFDC053534431333086
:100A30003620616C6C6F636174696F6E20666169EA
:100A40006C65640000000000240027002A000000FC
:100A50000000250028002B000000000023002600D5
:100A60002900040404040404040402020202020231
:100A70000303030303030102040810204080010262
:100A800004081020010204081020000000080002E1
:100A90000100000304070000000000000000220025
:100AA000FF210000991C3E2411241FBECFEFD8E087
:100AB000DEBFCDBF11E0A0E0B1E0E6EDF0E502C0A1
:100AC00005900D92A83DB107D9F724E0A8EDB1E05B
:100AD00001C01D92A435B207E1F715E0C3E5D5E0EA
:100AE00004C02197FE010E948E24C235D107C9F7A8
:100AF0000E94A21E0C945E280C9400008F929F927C
:100B0000AF92BF92CF92DF92EF92FF920F931F931B
:100B1000CF93DF938B01D82FC92F8090DC03909067
:100B2000DD03A090DE03B090DF0375016401F7FAE6
:100B3000F094F7F8F0949B01482F592FC701B601A4
:100B40000E946026181674F098014D2F5C2FC50185
:100B5000B4010E9401257501640187FD03C068018D
:100B6000ED2EFC2E20E030E0A901C701B6010E9465
:100B7000012581111DC01092C3031092C40310926D
:100B8000C5031092C603C092D803D092D903E09255
:100B9000DA03F092DB03DF91CF911F910F91FF9069
:100BA000EF90DF90CF90BF90AF909F908F9008957F
:100BB000A701960160E074E284E799E40E940625AB
:100BC0009F770E947F256093C3037093C403809333
:100BD000C5039093C603C1E020E030E0A901C7013E
:100BE000B6010E94602618160CF0C0E0C093C20344
:100BF000CACF96E0899FD0011124A75CBC4F909684
:100C00007C936E935F9791E091969C939197E0917E
:100C1000A603F091A7039091A503992339F030978B
:100C200051F0811108C0809155030994309719F053
:100C30005C968C91FACF08950895833081F028F462
:100C4000813099F08230A9F008958730A9F088307A
:100C5000C9F08430B1F4809180008F7D03C0809111
:100C600080008F7780938000089584B58F7784BD4E
:100C7000089584B58F7DFBCF8091B0008F778093EE
:100C8000B00008958091B0008F7DF9CFCF93DF93AE
:100C9000282F30E0F901E657F54F8491F901EA5821
:100CA000F54FD491F901EE59F54FC491CC23A1F041
:100CB00081110E941D06EC2FF0E0EE0FFF1FE85A95
:100CC000F54FA591B491EC91ED2381E090E009F40A
:100CD00080E0DF91CF91089580E090E0FACF1F93FC
:100CE000CF93DF93282F30E0F901E657F54F849139
:100CF000F901EA58F54FD491F901EE59F54FC49135
:100D0000CC23A9F0162F81110E941D06EC2FF0E0D4
:100D1000EE0FFF1FE25BF54FA591B4918FB7F894EA
:100D2000EC91111108C0D095DE23DC938FBFDF91C9
:100D3000CF911F910895DE2BF8CFCF93DF9390E0F2
:100D4000FC01EA58F54F24918E59954FFC0184918E
:100D50008823C9F090E0880F991FFC01EC5BF54FE8
:100D6000A591B491FC01E25BF54FC591D49161115D
:100D70000DC09FB7F8948C91209582238C93888125
:100D8000282328839FBFDF91CF910895623051F4CB
:100D90009FB7F8943C91822F809583238C93E881B0
:100DA0002E2BEFCF8FB7F894EC912E2B2C938FBF77
:100DB000EACF3FB7F8948091940290919502A09168
:100DC0009602B091970226B5A89B05C02F3F19F057
:100DD0000196A11DB11D3FBFBA2FA92F982F8827BB
:100DE000BC01CD01620F711D811D911D42E0660F96
:100DF000771F881F991F4A95D1F708958F929F9268
:100E0000AF92BF92CF92DF92EF92FF924B015C01C3
:100E10000E94D9066B017C010E94D9066C197D09DC
:100E20008E099F09683E734081059105A8F321E072
:100E3000821A9108A108B10888EEC80E83E0D81E76
:100E4000E11CF11C81149104A104B10429F7FF9065
:100E5000EF90DF90CF90BF90AF909F908F900895CC
:100E60002FB7F89460919002709191028091920254
:100E7000909193022FBF08950F931F93CF93DF9309
:100E8000C82FD62F86E0C89FF0011124E75CFC4FE5
:100E900011A2878D90A181309105F1F058F0823038
:100EA0009105F1F1039709F440C0DF91CF911F91B3
:100EB0000F9108956623C9F361E070E08C2F0E94C2
:100EC000F9050E9430076093910370939203809319
:100ED000930390939403E9CF0E943007009191030C
:100EE000109192032091930330919403AB01BC01C4
:100EF000401B510B620B730B8091A3039091A403D1
:100F0000B0E0A0E084179507A607B70748F462E0B1
:100F100070E08C2FDF91CF911F910F910C94F90508
:100F200063E070E0D111C1CFF4CF70E060E0F1CFA9
:100F3000862F642F0C949D06862F642F0C946F06C9
:100F4000862F0C94460608950895AF92BF92CF92D3
:100F5000DF92EF92FF920F931F93CF93DF936C0179
:100F60007B018B01040F151FEB015E01AE18BF085A
:100F7000C017D10759F06991D601ED91FC9101900C
:100F8000F081E02DC6010995892B79F7C501DF9124
:100F9000CF911F910F91FF90EF90DF90CF90BF9076
:100FA000AF900895FC01538D448D252F30E0842FA0
:100FB00090E0821B930B541710F0CF960895019781
:100FC0000895FC01918D828D981761F0A28DAE0F6E
:100FD000BF2FB11D5D968C91928D9F5F9F73928FF5
:100FE00090E008958FEF9FEF0895FC01918D828D21
:100FF000981731F0828DE80FF11D858D90E00895EE
:101000008FEF9FEF0895FC01918D228D892F90E045
:10101000805C9F4F821B91098F73992708958CE9FB
:1010200092E00E94030821E0892B09F420E0822F3E
:10103000089580E090E0892B29F00E940F0881112B
:101040000C9400000895FC01A48DA80FB92FB11DC8
:10105000A35ABF4F2C91848D90E001968F739927EE
:10106000848FA689B7892C93A089B1898C918370CC
:1010700080648C93938D848D981306C00288F389C5
:10108000E02D80818F7D80830895EF92FF920F93F2
:101090001F93CF93DF93EC0181E0888F9B8D8C8D24
:1010A00098131AC0E889F989808185FF15C09FB718
:1010B000F894EE89FF896083E889F98980818370DB
:1010C000806480839FBF81E090E0DF91CF911F918A
:1010D0000F91FF90EF900895F62E0B8D10E00F5FAB
:1010E0001F4F0F731127E02E8C8D8E110CC00FB681
:1010F00007FCFACFE889F989808185FFF5CFCE0119
:101100000E942308F1CFEB8DEC0FFD2FF11DE35A68
:10111000FF4FF0829FB7F8940B8FEA89FB8980819B
:101120008062CFCFCF93DF93EC01888D8823B9F015
:10113000AA89BB89E889F9898C9185FD03C08081E2
:1011400086FD0DC00FB607FCF7CF8C9185FFF2CF5F
:10115000808185FFEDCFCE010E942308E9CFDF918A
:10116000CF910895EF92FF920F931F93CF93DF9348
:10117000EC01EC80FD806E157F050CF070C057FF10
:1011800004C0240F351F50E040E08E819F81FA019A
:10119000E20FF31F8E179F071CF49C01241B350BD5
:1011A000121613060CF05BC0922F842F869586953D
:1011B00086958E9DD0018F9DB00D11246A0F7B1FE7
:1011C000AF8DB8A1A60FB71F477049F188E0841B07
:1011D000482F682F70E0FB01E059FA4FE49128177F
:1011E00008F063C0621B71092FEF30E002C0359533
:1011F00027956A95E2F7E2230130110539F0B0F145
:101200000230110561F58C91E82702C08C91E82B22
:10121000EC93941720F12C813D81A20FB31FE92F8D
:10122000E41BE83078F00230110521F58E2F9C91F7
:1012300090959C932C813D81A20FB31F88508830DC
:10124000B0F7E770EE2359F0F0E0E859FA4FE49177
:1012500001301105F9F010F10230110519F1DF919B
:10126000CF911F910F91FF90EF900895E0958C9191
:10127000E823CECF81E00115110509F480E08195C6
:101280009E2F8C932C813D81A20FB31F98509830D4
:10129000C0F7D7CF8C91E82BEC93E1CFE0958C9100
:1012A000E823FACF8C91E827F7CF0130110509F434
:1012B000ADCFE0F20230110509F4A5CFAE0DBF1D90
:1012C000AECF0F931F93CF93DF9377FF04C0260F0A
:1012D000371F70E060E0DC011496CD91DC91FB01DA
:1012E000E20FF31FCE17DF071CF49E01261B370BFE
:1012F000121613064CF5FA0157FD3796A3E0F59543
:10130000E795AA95E1F7EC9FD001ED9FB00DFC9F0A
:10131000B00D11246A0F7B1FDC015F96ED91FC91EB
:10132000E60FF71F4770552781E090E001C0880F56
:101330004A95EAF7482F0130110559F0A8F02E0F11
:101340003F1F02301105E1F0DF91CF911F910F9106
:1013500008952E0F3F1FE217F307B1F38191DF01CC
:101360001197842B8C93F7CF80952E0F3F1FE21798
:10137000F30751F39191DF01119798239C93F7CFD5
:10138000E217F30709F38191DF01119784278C930A
:10139000F7CF0F931F93FA01DC0156964C915697A5
:1013A0004230E9F04330A1F1413061F514964D919E
:1013B0005C91DA01AE1BBF0BFD01E21BF30B77FD65
:1013C0000BC0DC0116964D915C916417750724F4EF
:1013D000AB01BF010E9461091F910F9108951496FE
:1013E0004D915C91DA01A61BB70BBD0161507109EB
:1013F000DC0116964D915C91DA01AE1BBF0BFD012D
:10140000E21BF30B77FDE8CFAF010E94B208E4CFF7
:1014100016964D915C91DA01A61BB70BBD01615088
:101420007109CDCF0F931F93FA01DC0156964C91B1
:1014300056974230A9F0433091F1413019F5149696
:101440004D915C91DA01AE1BBF0BFD013197F7FDA9
:1014500004C0AB01BF010E94B2081F910F91089513
:1014600014964D915C91DA01A61BB70BBD01DC010E
:1014700016964D915C91DA01AE1BBF0BFD013197C1
:10148000621B730BF7FDE9CFDC0116964D915C9161
:10149000E417F50714F7AF010E946109DECF169635
:1014A0004D915C91DA01A61BB70BBD01621B730B5A
:1014B000CECFFC0177FD64C08085918568177907E0
:1014C0000CF05EC057FD5CC08285938548175907B4
:1014D0000CF056C086898230B1F0833029F181301A
:1014E00041F484819581841B950BAB01BC01615053
:1014F00071092130310509F108F443C0223031056A
:1015000009F463C0089584819581DC01A61BB70BA3
:10151000BD016150710986819781DC01A41BB50B67
:10152000AD0141505109E5CF86819781861B970B0C
:10153000BA01AC0141505109DCCFCA0157FD0796F1
:10154000A3E095958795AA95E1F7A481B5818A9F37
:1015500090018B9F300D9A9F300D1124620F731FE5
:10156000078CF0A1E02DE60FF71F4770552721E00B
:1015700030E001C0220F4A95EAF78081822B8083F8
:101580000895CA0157FD079633E0959587953A95DA
:10159000E1F7A481B5818A9F90018B9F300D9A9FBE
:1015A000300D1124620F731F078CF0A1E02DE60FA0
:1015B000F71F4770552781E090E001C0880F4A95DA
:1015C000EAF7809590818923DACFCA0157FD079603
:1015D00023E0959587952A95E1F7A481B5818A9FA7
:1015E00090018B9F300D9A9F300D1124620F731F55
:1015F000078CF0A1E02DE60FF71F4770552721E07B
:1016000030E001C0220F4A95EAF780818227B7CFE8
:1016100008958EBD00000DB407FEFDCF8EB5089570
:101620008CBD9DBD08950895FC016370668B848117
:10163000958126813781613039F0633029F09187B7
:101640008087338722870895318720879387828711
:1016500008952F923F924F925F926F927F928F9256
:101660009F92AF92BF92CF92DF92EF92FF920F9331
:101670001F93CF93DF93CDB7DEB76A970FB6F89479
:10168000DEBF0FBECDBF9A8F898F7A8369834A01EF
:10169000D22E18870F833701BC2CDC0159962D916F
:1016A0003C915A972115310509F015C118968D9175
:1016B0009C911997681779070CF0D7C11A968D91EC
:1016C0009C91481759070CF0D0C14C2C512CB6E016
:1016D000CB9E600D711D11247C876B871616170633
:1016E0000CF0C3C1EA2DF0E0FA87E98793E0EE0F32
:1016F000FF1F9A95E1F7F88BEF87CF01840F951FB5
:10170000181619060CF0B1C1A98DBA8D58968C9196
:10171000811104C0BFEABD1508F4D394A98DBA8D18
:10172000ED91FC9111970284F385E02DCD0109958F
:10173000B5E0DB9EC0011124E981FA81FC83EB83D3
:10174000312C212C9C0128593F4F388F2F8B4A2D4B
:1017500050E05E8B4D8BEF89F88DE20DF31D4491C7
:101760009E828D82D12CC12C69817A81620D731D7C
:101770007A8B698B842F90E09C8B8B8BE98DFA8D13
:10178000A081B18140FF82C0F1E0BF126FC0AF12F3
:101790006DC01C96ED91FC912F813885A4014C0DF4
:1017A0005D1D69897A89898D9A8D0995EB89FC89F6
:1017B000F595E7954E2F5FEFC51AD50A6D817E81AD
:1017C0008D899E89680F791F7E836D8398E0C91685
:1017D000D10481F6AFEF2A1A3A0AEB81FC81E40DBD
:1017E000F51DFC83EB83F5E02F16310409F0B3CF30
:1017F0002F81388526153705B9F0A98DBA8DED9161
:10180000FC91B1E0BB1257C0AB1255C069817A811F
:101810006B5F7F4F0088F189E02D830128E030E085
:10182000A401898D9A8D0995A98DBA8DED91FC91B0
:1018300011970688F789E02DCD016A960FB6F894C6
:10184000DEBF0FBECDBFDF91CF911F910F91FF90F3
:10185000EF90DF90CF90BF90AF909F908F907F9050
:101860006F905F904F903F902F9009941E96ED914E
:10187000FC91EF80F88409851A8592014D815E8183
:101880006B817C81898D9A8D099590CF2F813885C8
:101890002615370509F48ACF31E0B31207C0A31229
:1018A00005C01C96ED91FC91930178CF1E96ED91A9
:1018B000FC917301E0CF6B857C8564197509068402
:1018C000F785E02D73010F8518899201A401898D98
:1018D0009A8D0995A9CFF901349694913297459143
:1018E0005491D91AB7E0DB9E400D511D1124F90126
:1018F000259134913C8B2B8BFA0125903490FA0181
:101900003296749031963491398B32966490319638
:10191000449041E04C1518F04A1508F07FC0662D40
:10192000062C000C770B7C836B83842D042C000C1D
:10193000990B9E838D83A98DBA8DED91FC911197A2
:101940000284F385E02DCD010995512CD12CC12CB9
:10195000EA2DF0E0FA87E9872B2D30E03C872B87D2
:10196000A401440D511D47FC5A95588F4F8B698136
:101970007A81660D711D67FC7A957E876D877989FE
:10198000C71608F051CF2C2D30E04D815E81420FFB
:10199000531FA985BA854A9FC0014B9F900D5A9F3E
:1019A000900D1124FC01E80DF91DF88BEF87852DB2
:1019B000612C4F89588D420F531F5E8B4D8B6714DE
:1019C00008F050C044244394480E877041F4C1018C
:1019D0000196EB89FC89E20DF31DD4901C01D7FE22
:1019E00019C0A98DBA8DED91FC91662D70E0B1E022
:1019F000BB1219C0AB1217C02D853E85620F731F35
:101A00000484F585E02D2F8138854D895E89898D87
:101A10009A8D0995DD0C6394842DD1CF1E821D8291
:101A20001C821B8288CF4B815C81640F751FAB8544
:101A3000BC856A9FC0016B9F900D7A9F900D112409
:101A400069817A81680F791F0684F785E02DEF8020
:101A5000F88409851A859D014F855889898D9A8D4D
:101A60000995D8CF570CC3948ACF6A960FB6F894CD
:101A7000DEBF0FBECDBFDF91CF911F910F91FF90C1
:101A8000EF90DF90CF90BF90AF909F908F907F901E
:101A90006F905F904F903F902F9008958F929F92FC
:101AA000AF92CF92EF92FF920F931F93CF93DF935A
:101AB000EC01262F898D9A8D009709F051C06A306C
:101AC000D1F41D861C868D8948E0849F90011124E5
:101AD0008E859F85820F931F9F878E8781E090E080
:101AE000DF91CF911F910F91FF90EF90CF90AF902A
:101AF0009F908F9008956D3089F3CC88AD888F8941
:101B00008823C1F08C859D8536E0C39E800D911D94
:101B10001124488559854817590764F44E855F8517
:101B20001D861C8638E0A39EC0011124840F951FDA
:101B30009F878E87EA88FB88088919894E855F858B
:101B40006C857D85CE010E94290B2C898C859D8515
:101B500046E0249F800D911D11249D878C87BECF68
:101B60006A3069F41D861C86FC013896E4912D8943
:101B70008E859F85E29F800D911D1124ADCF6D3024
:101B800009F4ACCFFC0134963491631708F4A6CF66
:101B90003296E491E61708F4A1CFFC0132968590C5
:101BA0009490462F431B342F47E0349F800C911CA8
:101BB0001124F401329634913196E4913323A9F142
:101BC000EE2399F1CC88F4013596E491AD884F89E4
:101BD000442301F10E2E000CFF0BE30FF11DCE9EEE
:101BE000A001CF9E500D11246C857D85460F571F97
:101BF00068857985641775076CF44E855F851D8649
:101C00001C86FC013896E491AE9E400D511D1124B6
:101C10005F874E87EA88FB88088919894E855F852A
:101C20006C857D85CE010E94290BF4013496E491E8
:101C30002C898C859D85E29F800D911D11248DCF6F
:101C40006F927F928F929F92AF92BF92CF92DF92CC
:101C5000EF92FF920F931F93CF93DF93EC016B01F1
:101C60005A0139014801E881F9810284F385E02DA8
:101C70000995E881F9810288F389E02D87019301B4
:101C8000A501B601CE010995A501480D591D415088
:101C90005109E881F9810288F389E02D9301B601A9
:101CA000CE010995E881F9810088F189E02D940140
:101CB000A501B601CE010995C60CD71CB60161502D
:101CC0007109E881F9810088F189E02D9401A5016D
:101CD000CE010995E881F9810688F789E02DCE01CA
:101CE000DF91CF911F910F91FF90EF90DF90CF90F8
:101CF000BF90AF909F908F907F906F9009946F925C
:101D00007F928F929F92AF92BF92CF92DF92EF928B
:101D1000FF920F931F93CF93DF935C01EB016A0156
:101D2000490138018701DC01ED91FC9162177307CD
:101D300019F5641675062CF0962D872D3A01C92EDB
:101D4000D82E9601261937092F5F3F4F048CF58D49
:101D5000E02DA301BE01C5010995DF91CF911F912F
:101D60000F91FF90EF90DF90CF90BF90AF909F903A
:101D70008F907F906F9008954615570591F4261720
:101D8000370724F0892D4B01C22FD82F9E01281927
:101D900039092F5F3F4F068CF78DE02DA601B40166
:101DA000DACF0284F385E02D0995D501ED91FC9100
:101DB0000488F589E02D83019401A601BE01C501C7
:101DC0000995D501ED91FC910688F789E02DC501B3
:101DD000DF91CF911F910F91FF90EF90DF90CF9007
:101DE000BF90AF909F908F907F906F900994EF92EB
:101DF000FF920F931F93DC011A960D911C911B9774
:101E000018962D913C911997ED91FC9100A0F1A1AC
:101E1000E02D7B0150E040E070E060E009951F910B
:101E20000F91FF90EF9008954F925F926F927F9283
:101E30008F929F92AF92BF92CF92DF92EF92FF92DA
:101E40000F931F93CF93DF936C012B015A0139013C
:101E50004801DC01ED91FC910284F385E02D0995A8
:101E6000E201640C751CD601ED91FC91C615D705F5
:101E70005CF40088F189E02D87019401A501BE0181
:101E8000C60109952196EFCF0688F789E02DC60196
:101E9000DF91CF911F910F91FF90EF90DF90CF9046
:101EA000BF90AF909F908F907F906F905F904F907A
:101EB00009948F929F92AF92BF92CF92DF92EF924E
:101EC000FF920F931F93CF93DF93EC015B014A01C5
:101ED0006901E881F9810284F385E02D0995950176
:101EE0002C0D3D1D21503109E881F9810488F589C7
:101EF000E02D78018401A401B501CE010995E881A6
:101F0000F9810688F789E02DCE01DF91CF911F91ED
:101F10000F91FF90EF90DF90CF90BF90AF909F9088
:101F20008F9009948F929F92AF92BF92CF92DF923F
:101F3000EF92FF920F931F93CF93DF93EC015B011E
:101F40004A0169017801E881F9810284F385E02D75
:101F50000995C80CD91C860101501109E881F98145
:101F60000488F589E02D9501A401B501CE010995FC
:101F7000E881F9810688F789E02DCE01DF91CF91C4
:101F80001F910F91FF90EF90DF90CF90BF90AF9097
:101F90009F908F900994EF92FF920F931F93DC0113
:101FA000ED91FC9100A0F1A1E02D09951F910F91F9
:101FB000FF90EF9008950F931F93DC01ED91FC913A
:101FC000068CF78DE02D09951F910F9108950F93C1
:101FD0001F93DC01ED91FC91048CF58DE02D0995AA
:101FE0001F910F910895DC01ED91FC910084F18522
:101FF000E02D09943F924F925F926F927F928F9261
:102000009F92AF92BF92CF92DF92EF92FF920F9387
:102010001F93CF93DF935C017B014A016901390172
:1020200087E0680E711C93E0759467949A95E1F7C8
:102030002B01400E511E10E000E0312CD0E0C0E03A
:10204000CE0187709927330C892B59F4FE0183E068
:10205000F595E7958A95E1F7E00FF11FE80DF91D79
:10206000349037FE0AC021E030E0A701B5016C0FC3
:102070007D1F80E194E00E94F30F2196CC16DD06CF
:10208000F9F68FEFE81AF80A060D171DE414F504A7
:10209000A9F6DF91CF911F910F91FF90EF90DF9004
:1020A000CF90BF90AF909F908F907F906F905F90F8
:1020B0004F903F9008952F923F924F925F926F9270
:1020C0007F928F929F92AF92BF92CF92DF92EF92C8
:1020D000FF920F931F93CF93DF9300D000D000D0D7
:1020E000CDB7DEB73C016A013E832D83FC82EB82D3
:1020F0005801A41AB50AB7FE03C0B194A194B1085F
:102100008D809E80861A970A97FE03C091948194D1
:1021100091088A149B045CF0902F812F0D811E8101
:102120009D838E839C2D8D2D6B01692F782F0C152F
:102130001D055CF09D818E817E836D83692F782FD4
:10214000902F812F8601C92ED82E1601201A310A10
:102150002B012D813E81421A530A57FE03C0519430
:1021600041945108710137FE03C03FEFE31AF30AAF
:10217000F594E7948D819E81861797075CF5A1E021
:10218000B0E0BA83A983C016D1064CF1D301ED911A
:10219000FC910484F585E02D2B813C81A8016D81A3
:1021A0007E818A149B041CF04D815E81B801C301BD
:1021B0000995E418F508F7FE0AC02D813E81898152
:1021C0009A81280F391F3E832D83E20CF31C0F5F89
:1021D0001F4FD9CF2FEF3FEF3A832983D4CF2696D5
:1021E0000FB6F894DEBF0FBECDBFDF91CF911F9128
:1021F0000F91FF90EF90DF90CF90BF90AF909F90A6
:102200008F907F906F905F904F903F902F900895A8
:10221000089520913E02260F3327331F21323105C6
:10222000ECF420916202FC0190E080E0243069F03F
:1022300082E00895A0913E022191AC01425E5D4F83
:10224000A40FB52FB11D2C930196861798F380919A
:102250003E02680F60933E0280E0089581E0089599
:102260001092620281E0809364021092630261E046
:1022700082E10E946F0661E083E10E946F06E9EB54
:10228000F0E080818E7F808380818D7F808388E4F1
:102290008093B80085E48093BC000895CF93DF93CA
:1022A00091E090931D028823B9F0C091B800D091BD
:1022B000BA008091BC008A7B8093BC0060E082E120
:1022C0000E946F0660E083E10E946F060E94301159
:1022D000D093BA00C093B800DF91CF910895E091F8
:1022E0008E0280918D02E81730F4F0E0E850FE4F46
:1022F000808190E008958FEF9FEF089590918E0276
:1023000080918D022FEF3FEF981748F4E92FF0E00E
:10231000E850FE4F208130E09F5F90938E02C9010C
:10232000089580918D0290918E02891B990B0895DA
:10233000CF92DF92EF92FF920F931F93CF93DF9391
:102340007C01CB018A0120919B02222389F0EB01C1
:102350006B01C40ED51ECC15DD0569F06991D7015E
:10236000ED91FC910190F081E02DC7010995F3CF2B
:10237000642F0E940911C801DF91CF911F910F9125
:10238000FF90EF90DF90CF900895CF93DF931F924F
:10239000CDB7DEB7698320919B022223F9F020910B
:1023A0009802203258F021E030E0FC013383228390
:1023B00090E080E00F90DF91CF9108958091990295
:1023C000E82FF0E0E852FE4F998190838F5F809371
:1023D00099028093980281E090E0ECCF61E0CE0119
:1023E00001960E940911F7CFCF92DF92EF92FF92F0
:1023F0000F931F93CF93DF93D091980281E0D13256
:1024000008F09CC0C0919A020E94D9066B017C0121
:102410008091620281116CC082E08093620281E04F
:10242000809364028FEF8093610210928602D093B2
:102430008502A8EDB1E0E5E6F2E080E0D8138DC0BA
:102440001092870280918702CC0FC82BC09387021D
:1024500080916302813009F084C0109263020E946F
:10246000D9066B017C01809187028093BB0080912B
:10247000190290911A02A0911B02B0911C02892BA3
:102480008A2B8B2BA1F00E94D90600911902109182
:102490001A0220911B0230911C026C197D098E09D1
:1024A0009F09061717072807390708F442C08091CB
:1024B000BC0083FDD8CF85EC8093BC000E94D90678
:1024C0006B017C0180916202823009F44CC08091E2
:1024D00061028F3F09F469C080916102803209F482
:1024E00066C080916102803309F463C084E026C035
:1024F0008091190290911A02A0911B02B0911C02C6
:10250000892B8A2B8B2B09F483CF0E94D90600914B
:10251000190210911A0220911B0230911C026C19B1
:102520007D098E099F09061717072807390708F044
:102530006FCF809118020E944E1185E0109299028F
:102540001092980210929B02DF91CF911F910F91F0
:10255000FF90EF90DF90CF9008959D9191938F5FC2
:102560006DCF85EEA9CF8091190290911A02A091AA
:102570001B02B0911C02892B8A2B8B2B09F4A2CF52
:102580000E94D9060091190210911A0220911B0293
:1025900030911C026C197D098E099F0906171707D7
:1025A0002807390708F08ECFC4CF80E0C7CF82E07C
:1025B000C5CF83E0C3CFEF92FF920F931F93CF93CA
:1025C000DF937C01C62F80912D0490912E040097FB
:1025D00009F459C02091310431E030939B022093DB
:1025E0009A021092990210929802DC01ED91FC91EE
:1025F0000190F081E02D60E009958701EE24E394DD
:10260000F12CD1E0C15080912D0490912E04CF3F48
:1026100091F1B0E2EB16F104D8F00E94F411809130
:102620002D0490912E0420913104D0939B0220938D
:102630009A021092990210929802DC01ED91FC919D
:102640000190F081E02D60E00995EE24E394F12CF7
:1026500080912D0490912E04F8016491DC01ED919C
:10266000FC910190F081E02D0995BFEFEB1AFB0A78
:102670000F5F1F4FC7CFDF91CF911F910F91FF9039
:10268000EF900C94F411E0913D04F0913E049081A0
:10269000809143048095892380838701C15008F489
:1026A00038C0F801849120912B0430912C04232B05
:1026B00029F00E94090B0F5F1F4FF0CF28E030E098
:1026C00040E8E0913904F0913A0490914104582F88
:1026D0005423D9F05081952B9083E0913B04F091E5
:1026E0003C04908150914204952B9083E0913B04EF
:1026F000F0913C04508190914204909595239083F1
:10270000469521503109E9F6D6CF50819095952311
:10271000E3CFDF91CF911F910F91FF90EF9008953C
:102720001F93CF93DF93EC018D8D9E8D009721F148
:10273000162F29A131E030939B0220939A02109228
:10274000990210929802DC01ED91FC910190F081C8
:10275000E02D60E009958D8D9E8DDC01ED91FC9161
:102760000190F081E02D612F09958D8D9E8DDF9177
:10277000CF911F910C94F411ADA5BEA59C918BA98E
:10278000809589238C938B8D9C8D892B31F0862F9E
:10279000DF91CF911F910C94090B28E030E080E885
:1027A000A9A5BAA599A9462F4823C1F04C91942B0D
:1027B0009C93ABA5BCA59C914AA9942B9C93ABA5DB
:1027C000BCA54C919AA9909594239C9386952150F1
:1027D000310931F7DF91CF911F9108954C91909578
:1027E0009423E6CFDF92EF92FF920F931F93CF9344
:1027F000DF9380912D0490912E04892B09F498C0C9
:10280000209145043091460440914704509148047A
:1028100060E074E284EF90E00E944D242051310981
:102820004109510956954795379527952093B8004A
:1028300065E08EE99AE00E94DB1260911404615019
:1028400080E194E00E9490132091160430911704C7
:10285000C901079697FD079633E0959587953A95B8
:10286000E1F72091140430911504829F8001839F29
:10287000100D929F100D1124C0912F04D09130049F
:1028800080912D0490912E040C0F1D1F009709F4C8
:102890008FC02091310431E030939B0220939A0243
:1028A0001092990210929802DC01ED91FC91019036
:1028B000F081E02D60E40995EE24E394F12CDD2411
:1028C000D39480912D0490912E040C171D0709F4C8
:1028D00046C0B0E2EB16F104D8F00E94F4118091EA
:1028E0002D0490912E0420913104D0929B022093CC
:1028F0009A021092990210929802DC01ED91FC91DB
:102900000190F081E02D60E40995EE24E394F12C30
:1029100080912D0490912E046991DC01ED91FC9140
:102920000190F081E02D0995BFEFEB1AFB0AC9CFAA
:1029300080912B0490912C04892B31F080914E04CE
:1029400090914F040E94100BE0913F04F0914004DD
:1029500090818091440480958923808369CF0E946F
:10296000F41180912D0490912E04892B09F461C0FB
:102970002091490430914A0440914B0450914C04F9
:1029800060E074E284EF90E00E944D242051310910
:102990004109510956954795379527952093B800D9
:1029A000DF91CF911F910F91FF90EF90DF900895ED
:1029B000E0913D04F0913E04808190914304892B85
:1029C00080830C171D0769F2899120912B043091A7
:1029D0002C04232B19F00E94090BF3CF28E030E0E0
:1029E00040E8E0913904F0913A0490914104582F65
:1029F0005423D9F05081952B9083E0913B04F091C2
:102A00003C04908150914204952B9083E0913B04CB
:102A1000F0913C04508190914204909595239083CD
:102A2000469521503109E9F6CCCF508190959523F8
:102A3000E3CFE0913F04F091400480819091440401
:102A4000892B8083ADCF1F93CF93DF93EC01162F9B
:102A50008D8D9E8D892BB1F12DA93EA94FA958AD21
:102A600060E074E284EF90E00E944D24205131092F
:102A70004109510956954795379527952093B800F8
:102A800066EA111167EACE010E9490138D8D9E8D2A
:102A9000892B41F129AD3AAD4BAD5CAD60E074E2FC
:102AA00084EF90E00E944D242051310941095109E1
:102AB00056954795379527952093B800DF91CF918C
:102AC0001F9108958B8D9C8D892B21F08EAD9FAD2C
:102AD0000E94100BEFA5F8A990818CA980958923FD
:102AE0008083CECFEFA5F8A980819CA9892B808314
:102AF000E5CF90E080E00895CF93DF93EC018885E7
:102B000081110EC0898591E098879A8562E09111C4
:102B100001C060E00E949D068FE090E00197F1F710
:102B200089850E9446063B8521E03817190609F47D
:102B300020E0822FDF91CF9108950F931F93CF93C1
:102B40008C010E947C15C82F0E943007F801228159
:102B5000213091F030F02230F1F0233011F1C0E05B
:102B600006C0C111FCCF7483638381E082838C2F04
:102B7000CF911F910F910895CC2311F01282EFCFC6
:102B800023813481621B730B6F30710580F382E007
:102B9000F8018283E4CFCC2351F37483638383E011
:102BA000F8CFCC23A1F323813481621B730B6F30E8
:102BB0007105A8F21282DBCFCF93DF93FC0127814E
:102BC000222359F1EC0161E080850E949D0661E0BD
:102BD00089850E949D068F81843011F08830B1F480
:102BE00061E08A850E949D0661E08B850E949D06BA
:102BF0008FA58F3F91F061E00E949D066EA581E058
:102C000068278FA5DF91CF910C946F06833011F068
:102C1000863071F761E08A85E9CFDF91CF91089521
:102C2000CF93DF93FC0127812223A9F0EC010190CF
:102C3000F081E02D0284F385E02D60E009958FA5F9
:102C40008F3F49F061E00E949D066EA58FA5DF9140
:102C5000CF910C946F06DF91CF910895DC01ED9137
:102C6000FC91228533854770552766277727415089
:102C7000510961097109473051056105710560F419
:102C8000FA01EB5BF94E0C948E244F165116531635
:102C90005516571659165B1661E0F901099465E05F
:102CA000FCCF64E0FACF66E0F8CF62E0F6CF6AE0EE
:102CB000F4CF68E0F2CF69E0F0CFCF93DF93EC017F
:102CC000CB01BA0126E030E040E050E00E946F24E2
:102CD000623071058105910589F16CF4611571050A
:102CE00081059105D1F06130710581059105F9F0FB
:102CF000DF91CF910895643071058105910561F1EF
:102D000024F1653071058105910591F7E881F9811C
:102D10000284F385E02D66E006C0E881F981028433
:102D2000F385E02D64E0CE01DF91CF910994E88135
:102D3000F9810284F385E02D65E0F5CFE881F98122
:102D40000284F385E02D61E0EECFE881F981028411
:102D5000F385E02D63E0E7CFE881F9810284F38514
:102D6000E02D62E0E0CFDC01ED91FC910284F3857F
:102D7000E02D4370552766277727423051056105BE
:102D8000710571F0433051056105710559F041300D
:102D900051056105710511F065E0099466E0FDCF0C
:102DA0006AE0FBCF69E0F9CFCF93DF93EC01CB0171
:102DB000BA0123E030E040E050E00E946F2461302F
:102DC00071058105910599F06230710581059105C4
:102DD000A9F0672B682B692BC1F4E881F981028483
:102DE000F385E02D64E0CE01DF91CF910994E88175
:102DF000F9810284F385E02D61E0F5CFE881F98166
:102E00000284F385E02D62E0EECFDF91CF9108954B
:102E1000DC01ED91FC910284F385E02D4370552790
:102E200066277727423051056105710571F04330FF
:102E300051056105710559F0413051056105710574
:102E400011F062E0099463E0FDCF61E0FBCF60E048
:102E5000F9CFCF93DF93EC01E881F9810284F38508
:102E6000E02D8A8160E0811162E0CE010995E88160
:102E7000F9810284F385E02D8A8161E0811163E0AC
:102E8000CE0109958CA59DA58230910538F0880F5B
:102E9000991F880F991F05970197F1F7E881F9812C
:102EA0000284F385E02D8A8160E0811162E0CE0129
:102EB000DF91CF910994CF93DF93EC0120E030E0D4
:102EC000A901688D798D8A8D9B8D0E9460261816C8
:102ED0002CF4E8A9F9A9DF91CF910994EAA9FBA9FB
:102EE000FACFCF92DF92EF92FF920F931F93CF937F
:102EF000DF93DC011796CC91C43039F0C83059F11A
:102F0000C33019F0C63049F1C2E08C01085F1F4F91
:102F1000F12CE12CC62ED12CD1E0F8016481C60140
:102F20000E2C02C0959587950A94E2F780FD6D27D7
:102F30000F5F1F4F80810E946F06BFEFEB1AFB0AE5
:102F4000EC1658F3DF91CF911F910F91FF90EF9006
:102F5000DF90CF900895C4E0D8CFC3E0D6CFDC0196
:102F60001796EC911797E93008F038C0F0E0E55477
:102F7000F84E0C948E24C417CA17D017D617DC1736
:102F8000EE17E217EE17E817ED91FC910684F7852E
:102F9000E02D0994ED91FC910088F189E02DF9CFA5
:102FA000ED91FC910288F389E02DF3CFED91FC9136
:102FB0000488F589E02DEDCFED91FC910688F78925
:102FC000E02DE7CFED91FC91008CF18DE02DE1CF6C
:102FD000ED91FC91028CF38DE02DDBCF0895CF9223
:102FE000DF92EF92FF928091C3039091C403A0916E
:102FF000C503B091C603892B8A2B8B2B31F480E05B
:10300000FF90EF90DF90CF9008950E94D9066B015A
:103010007C018091E8039091E903A091EA03B091CB
:10302000EB03B701A601481B590B6A0B7B0B809180
:10303000C3039091C403A091C503B091C603481780
:1030400059076A077B07D8F28091D0039091D1038A
:10305000A091D203B091D3032091C203222309F19E
:103060000196A11DB11D8093D0039093D103A0932D
:10307000D203B093D3034091D0035091D103609118
:10308000D2037091D30380EC93E00E94AF17C092FB
:10309000E803D092E903E092EA03F092EB0381E0C7
:1030A000AFCF0197A109B109DECF4F925F926F9226
:1030B0007F928F929F92AF92BF92CF92DF92EF92C8
:1030C000FF920F931F93CF93DF93EC01CC88DD88A1
:1030D000EE88FF8888899989AA89BB89C81AD90A84
:1030E000EA0AFB0A688D798D8A8D9B8D9B01AC0164
:1030F0000E9465264B015C0168A179A18AA19BA170
:103100009B01AC010E9495249B01AC01C501B40157
:103110000E9406250E947825C114D104E104F1041F
:1031200009F0B6C062307105810591050CF0D0C080
:103130001B821C821D821E82188E198E1A8E1B8E77
:103140001CAA1DAA1EAA1FAAC12CD12C7601C70138
:10315000B601DF91CF911F910F91FF90EF90DF901B
:10316000CF90BF90AF909F908F907F906F905F9027
:103170004F9008951016110612061306B4F46C153C
:103180007D058E059F051CF42A812111A1C09B019C
:10319000AC0188279927DC01821B930BA40BB50B8C
:1031A0008CAB9DABAEABBFAB93C001151105210538
:1031B000310509F48DC06C157D058E059F050CF059
:1031C00087C08A81882309F483C0309520951095A3
:1031D00001951F4F2F4F3F4F0CAB1DAB2EAB3FAB9D
:1031E00077C0011511052105310509F471C0882446
:1031F000992454018C189D08AE08BF0868157905FC
:103200008A059B050CF064C08A81811161C0DDCF05
:10321000CCACDDACEEACFFACA7019601C701B601AA
:103220000E9495242B013C01C501B4010E94B025E8
:1032300020E030E040E850E40E94652620E030E0E5
:1032400040E85FE30E9495249B01AC01C301B201F9
:103250000E9406259B01AC01C701B6010E9494247F
:103260003B016C01FE01E05CFF4FE080F1800281D8
:1032700013819701A8010E946026181614F47301A7
:103280008601C701D8018CAF9DAFAEAFBFAF3AC0CA
:103290000CA91DA92EA93FA91C141D041E041F045E
:1032A0000CF468CF10161106120613060CF099CF15
:1032B0000027112798010C191D092E093F096017D5
:1032C0007107820793070CF062CF2A8121115FCF2B
:1032D0008CA89DA8AEA8BFA881149104A104B10434
:1032E00009F096CF88AD99ADAAADBBAD8CAF9DAFBF
:1032F000AEAFBFAF81E01C141D041E041F040CF010
:1033000080E08A833FEF831A930AA30AB30A8CAA48
:103310009DAAAEAABFAA8CAC9DACAEACBFACC50199
:10332000B4010E947F256B017C01CB82DC82ED829F
:10333000FE82A501940160E074E284E799E40E94B2
:103340000625688F798F8A8F9B8F2A812111FFCE66
:103350009058688F798F8A8F9B8FF9CECF92DF92AA
:10336000EF92FF92CF93DF93C0ECD3E0688D798D1D
:103370008A8D9B8D9B01AC010E9465266B017C01AF
:1033800068A179A18AA19BA19B01AC010E9495240F
:103390009B01AC01C701B6010E9406250E94782559
:1033A0006CAB7DAB8EAB9FABCE01DF91CF91FF902D
:1033B000EF90DF90CF900C94551808954F925F9244
:1033C0006F927F928F929F92AF92BF92CF92DF9235
:1033D000EF92FF926B017C0120E030E0A9010E9496
:1033E000012587FF04C0F7FAF094F7F8F094809075
:1033F000E0039090E103A090E203B090E303A70103
:103400009601C501B4010E940125882309F458C022
:103410006091F4037091F5038091F6039091F703A6
:103420000E94B0252B013C01A7019601C501B40102
:103430000E9406259B01AC01C301B2010E946526D2
:103440000E9478256093F4037093F5038093F6034C
:103450009093F703A701960160E070E080E090E4AC
:103460000E9406250E94D82626E53EE04DE25FE355
:103470000E94652620E034E244E759E40E94652674
:103480006093F8037093F9038093FA039093FB031E
:10349000C092E003D092E103E092E203F092E303F2
:1034A00080EC93E0FF90EF90DF90CF90BF90AF90D3
:1034B0009F908F907F906F905F904F900C945518D5
:1034C000FF90EF90DF90CF90BF90AF909F908F9044
:1034D0007F906F905F904F900895209116043091E7
:1034E0001704C901079697FD079623E095958795E0
:1034F0002A95E1F72091140430911504829FA001D0
:10350000839F500D929F500D112470E060E08091D8
:103510002F04909130040C9457280E945228FB01EC
:1035200001900020E9F73197AF01461B570BDC01F2
:10353000ED91FC910280F381E02D099485ED80935B
:10354000BC008091190290911A02A0911B02B091C7
:103550001C020796A11DB11D23E0B695A79597956E
:1035600087952A95D1F72091BC0024FD03C01092C5
:10357000620208954091190250911A0260911B0253
:1035800070911C02452B462B472B69F30097A10530
:10359000B10541F025E32A95F1F700000197A10953
:1035A000B109E1CF809118020C944E110C94C927F7
:1035B0001F920F920FB60F9211242F933F938F9368
:1035C0009F93AF93BF938091900290919102A091AD
:1035D0009202B091930230918F0223E0230F2D3796
:1035E00058F50196A11DB11D20938F028093900282
:1035F00090939102A0939202B093930280919402CF
:1036000090919502A0919602B09197020196A11D0A
:10361000B11D8093940290939502A0939602B0936B
:103620009702BF91AF919F918F913F912F910F90F2
:103630000FBE0F901F90189526E8230F0296A11D2C
:10364000B11DD2CF1F920F920FB60F9211242F935C
:103650003F934F935F936F937F938F939F93AF931A
:10366000BF93EF93FF938CE992E00E942308FF91B0
:10367000EF91BF91AF919F918F917F916F915F91EA
:103680004F913F912F910F900FBE0F901F90189563
:103690001F920F920FB60F9211242F938F939F9327
:1036A000EF93FF93E091AC02F091AD028081E09145
:1036B000B202F091B30282FD1BC090818091B502ED
:1036C0008F5F8F732091B602821741F0E091B502AF
:1036D000F0E0E456FD4F958F8093B502FF91EF9196
:1036E0009F918F912F910F900FBE0F901F90189563
:1036F0008081F4CF1F920F920FB60F9211242F9357
:103700003F934F935F936F937F938F939F93AF9369
:10371000BF93EF93FF938091B900887F803609F4BF
:103720004AC0F0F5883209F4A7C018F5803109F4D1
:103730009BC0B8F4882309F4F9C0883009F494C018
:10374000FF91EF91BF91AF919F918F917F916F9179
:103750005F914F913F912F910F900FBE0F901F904F
:103760001895883109F488C0803251F7809361023E
:1037700014C0803409F49DC040F48033B9F3883319
:10378000F9F68093610285ECB0C0803509F485C0FC
:10379000883509F496C0883499F60E949E1AD0CFD5
:1037A000883909F48CC038F5883729F050F4883608
:1037B00011F0803729F683E0809362021092600254
:1037C00057C0883809F47BC0803919F0803809F077
:1037D000B7CF80916002803208F071C0E091600242
:1037E00081E08E0F809360028091BB00F0E0E05C8E
:1037F000FD4F80833DC0803B39F0E0F4803A09F40E
:1038000079C0883A09F09CCF84E0809362021092DC
:103810003F0210923E02E0918B02F0918C020995DA
:1038200080913E0281110FC081E080933E02109290
:103830001E0209C0803C09F4A6CF883C09F4A3CF3E
:10384000883B09F07DCFE0913F0281E08E0F8093AD
:103850003F02F0E0E25EFD4F80818093BB009091DB
:103860003F0280913E0229C0809187028093BB0075
:1038700085EC8093BC0064CF909186028091850294
:10388000981758F5E091860281E08E0F80938602AA
:10389000F0E0EB59FD4F8081E9CFE091860281E0B5
:1038A0008E0F809386028091BB00F0E0EB59FD4FB4
:1038B000808390918602809185029817C8F285E8EE
:1038C000D8CFE091860281E08E0F809386028091AE
:1038D000BB00F0E0EB59FD4F8083809164028111C1
:1038E0005CCF81E08093630284EA8093BC001092F5
:1038F000620226CF85EC8093BC0010926202809118
:103900006002803230F4E0916002F0E0E05CFD4F54
:1039100010826091600270E0E0918902F0918A0269
:1039200080E492E00995109260020ACF1092610241
:1039300034CFCF92DF92EF92FF9210929F021092BB
:103940009E0288EE93E0A0E0B0E08093A002909306
:10395000A102A093A202B093A3022DE131E0309323
:103960009D0220939C0225EC30E03093A902209325
:10397000A80224EC30E03093AB022093AA0220ECA2
:1039800030E03093AD022093AC0221EC30E0309374
:10399000AF022093AE0222EC30E03093B1022093CC
:1039A000B00226EC30E03093B3022093B2021092C2
:1039B000B5021092B6021092B7021092B80210929D
:1039C0000704109206048093080490930904A093BE
:1039D0000A04B0930B048FE291E090930504809366
:1039E0000404109213041092120420E830E0309383
:1039F00015042093140480E490E0909317048093BE
:103A00001604309319042093180490931B04809398
:103A10001A041092260410921D0410921C04109295
:103A20001F0410921E0491E09093250490932404A7
:103A30002FEF3FEF3093230420932204309321048F
:103A400020932004909327041092280410922A04B3
:103A50001092290421E731E03093110420931004DF
:103A600010922C0410922B0424E034E030932E04A6
:103A700020932D041092300410922F048FEF809326
:103A80003404809335048093360480933704809304
:103A9000380440E85AE166E070E0409345045093F2
:103AA0004604609347047093480440EA56E861E096
:103AB00070E04093490450934A0460934B04709320
:103AC0004C0420E520934E0410924F0421E531E090
:103AD0003093C1032093C0039093C7031092D00387
:103AE0001092D1031092D2031092D3031092D403F8
:103AF0001092D5031092D6031092D7031092D803D8
:103B00001092D9031092DA031092DB031092DC03B7
:103B10001092DD031092DE031092DF031092E00397
:103B20001092E1031092E2031092E303C12CD12C16
:103B300090E8E92E9FE3F92EC092E403D092E503CA
:103B4000E092E603F092E7031092C3031092C403DD
:103B50001092C5031092C60321E030E03093ED03CC
:103B60002093EC038093EF031092E8031092E90393
:103B70001092EA031092EB038AE08093C8038BE073
:103B80008093C90384E08093CA0385E08093CB03CC
:103B90001092EE031092F4031092F5031092F603C4
:103BA0001092F7031092F8031092F9031092FA039F
:103BB0001092FB031092FC031092FD031092FE037F
:103BC0001092FF03C0920004D0920104E09202041C
:103BD000F09203041092C2031092CC031092CD0312
:103BE0001092CE031092CF0380EC93E00E94DC157C
:103BF000C701B6010E94DE19A70196016091DC039E
:103C00007091DD038091DE039091DF030E94012516
:103C1000882319F1C092DC03D092DD03E092DE0329
:103C2000F092DF0380E094E2A4E7B9E4809300041B
:103C300090930104A0930204B09303048091F403D1
:103C40009091F503A091F603B091F70318161906A9
:103C50001A061B0614F40E94AE191092B6031092B5
:103C6000B9032BE431E03093B5032093B4031092F1
:103C7000BC038FE08093BD0381E08093BE038093FB
:103C8000BF031092AA031092AD033093A9032093AF
:103C9000A8031092B00390E19093B1038093B20314
:103CA0008093B30310923B0310923F0310923E03A4
:103CB0001092400381E491E090933A03809339039A
:103CC000E5E5F3E01082148213821582369683E0D4
:103CD000E139F807B9F783E091E090939C03809372
:103CE0009B0380E091E090939E0380939D0384E08A
:103CF00080939F0383E08093A00387E091E09093FB
:103D00009A03809399038AE090E09093A2038093B2
:103D1000A10384EF91E09093A4038093A3031092F6
:103D2000A7031092A6031092950310929603109287
:103D30009703109298031092A503FF90EF90DF90E5
:103D4000CF900895CF93DF93CDB7DEB7A6970FB688
:103D5000F894DEBF0FBECDBF789484B5826084BD79
:103D600084B5816084BD85B5826085BD85B581607F
:103D700085BD80916E00816080936E0010928100FD
:103D800080918100826080938100809181008160B8
:103D90008093810080918000816080938000809179
:103DA000B10084608093B1008091B0008160809305
:103DB000B00080917A00846080937A0080917A00CC
:103DC000826080937A0080917A00816080937A008B
:103DD00080917A00806880937A001092C100E0910F
:103DE000AC02F091AD0282E08083E091A802F091F4
:103DF000A9021082E091AA02F091AB028FEC8083BD
:103E00001092B402E091B002F091B10286E080839A
:103E1000E091AE02F091AF02808180618083E091F9
:103E2000AE02F091AF02808188608083E091AE02A3
:103E3000F091AF02808180688083E091AE02F091C2
:103E4000AF0280818F7D808382E390E09093A20314
:103E50008093A10320E030E04AE754E46091DC0362
:103E60007091DD038091DE039091DF030E940125B4
:103E7000882319F180E090E0AAE7B4E48093DC03A2
:103E80009093DD03A093DE03B093DF0380930004DF
:103E900090930104A0930204B09303048091F4036F
:103EA0009091F503A091F603B091F7031816190647
:103EB0001A061B0614F40E94AE1960E070E080EF51
:103EC00091E40E94DE1980912F0490913004892B97
:103ED00011F10E946D1A20911604309117048091FF
:103EE000140490911504213231050CF04BC0B90136
:103EF0006052710977FF02C06F5F7F4F75956795BC
:103F00008357910997FD019600E210E023E730E026
:103F10004AE855E04AC02091160430911704C901BF
:103F2000079697FD0796B3E095958795BA95E1F7C3
:103F30002091140430911504AC01429FC001439FAD
:103F4000900D529F900D11240E942D2790933004C4
:103F500080932F04892B09F0BCCF0AE21AE0F80104
:103F60006491662341F08CE992E00E9445080F5F5E
:103F70001F4F892BA1F769E971E08CE992E00E945B
:103F80008F1AFFCFB9016054710977FF02C06F5FCC
:103F90007F4F759567958255910997FD019600E4CD
:103FA00010E022E530E04AE657E0959587950E94BB
:103FB000FA0F82E08093320480912D0490912E04B8
:103FC000892B09F41FC18CE38093310410928E0277
:103FD00010928D0210929902109298020E94301154
:103FE00083EA97E090938C0280938B0284EA97E0B7
:103FF00090938A02809389028091380487FD1EC0C5
:1040000061E00E949D0661E0809138040E946F0685
:1040100061E070E080E090E00E94FE0660E0809148
:1040200038040E946F066AE070E080E090E00E9431
:10403000FE0661E0809138040E946F0680912D0495
:1040400090912E04892B09F49CC120914504309154
:104050004604409147045091480460E074E284EFC4
:1040600090E00E944D242051310941095109569593
:104070004795379527952093B80064E086E895E04A
:104080000E94DB1260911604615080E194E00E946E
:10409000901364E082E895E00E94DB128091320484
:1040A00060E1813009F064E180E194E00E949013C6
:1040B00064E08EE795E00E94DB128FE880934D0468
:1040C00080911404909115048038910509F072C113
:1040D00080911604909117048034910509F07AC1FB
:1040E00080913204813009F063C18FE980934D04DF
:1040F00012E16AED80E194E00E949013612F80E16B
:1041000094E00E94901361E880E194E00E94901393
:1041100060914D0480E194E00E94901369ED80E18C
:1041200094E00E9490138091320462E2813009F0A1
:1041300061EF80E194E00E94901366E088E795E0EB
:104140000E94DB1280912D0490912E04892B09F49A
:1041500045C12091490430914A0440914B0450914B
:104160004C0460E074E284EF90E00E944D24205102
:10417000310941095109569547953795279520935F
:10418000B8000E946D1A81E0809324048093250476
:1041900081E090E090932304809322049093210483
:1041A0008093200410921D0410921C0410921F048E
:1041B00010921E046CE971E080E194E00E948F1A75
:1041C0000E94F21384EB93E00E949D15682E8111EA
:1041D0000FC120E030E048E452E46091D8037091D0
:1041E000D9038091DA039091DB030E940125882393
:1041F00031F060E070E088E492E40E947E050E9465
:10420000EF17E0CF61E0809136040E949D0661E0E7
:10421000809137040E949D0680913604082E000C80
:10422000990BFC01EE59F54FE491F0E0EE0FFF1F02
:10423000E25BF54F2591349130933E0420933D0489
:10424000FC01EA58F54FE491E09343048091370470
:10425000082E000C990BFC01EE59F54FE491F0E0AB
:10426000EE0FFF1FE25BF54FA591B491B0934004B0
:10427000A0933F04FC01EA58F54FE491E093440415
:104280008C91E82BEC9380912B0490912C04892B3A
:1042900009F434C01FB7F89480918802811127C0B7
:1042A000ECE6FAE08491E0E8FAE09491E82FF0E09F
:1042B000EE0FFF1FEC5BF54FA591B491EC91E92354
:1042C00021F461E08AE00E946F0661E08AE00E94CA
:1042D0009D068CB580618CBD8CB580648CBD61E021
:1042E0008DE00E949D0661E08BE00E949D0680911A
:1042F00088028F5F809388021FBF7ECE61E080912D
:1043000034040E949D0661E0809135040E949D0660
:1043100080913404082E000C990BFC01EE59F54FE6
:10432000E491F0E0EE0FFF1FE25BF54F2591349131
:1043300030933A0420933904FC01EA58F54FE49194
:10434000E093410480913504082E000C990BFC0188
:10435000EE59F54FE491F0E0EE0FFF1FE25BF54FF1
:10436000A591B491B0933C04A0933B04FC01EA589E
:10437000F54FE491E09342048C91E095E823EC93AF
:104380003BCE80912B0490912C04892B31F08091AD
:104390004E0490914F040E94100BE0913F04F09165
:1043A000400490818091440480958923808365CE68
:1043B0008FEC9CCE8036910569F480911604909123
:1043C0001704409739F480913204813029F480E158
:1043D00080934D0412E08DCE8FEAFACFE0913F0436
:1043E000F0914004808190914404892B8083C9CE50
:1043F00010921D0410921C048AE090E090931F0418
:1044000080931E0463EA71E080E194E00E948F1AB9
:1044100010921D0410921C0484E190E090931F04FC
:1044200080931E046FEA71E080E194E00E948F1A8D
:104430000E94F2131BA21AA2FE01B49683E0DF01D0
:104440001D928A95E9F78AE08FA3F12CE12C45E7CC
:10445000242E43E0342E56E0452EB1E0B093A50360
:104460000E943007009195031091960320919703C5
:1044700030919803AB01BC01401B510B620B730BD5
:104480008091A1039091A203B0E0A0E0841795076A
:10449000A607B70708F025C110E080919F03181701
:1044A00060F4E0919B03F0919C03E10FF11D62E049
:1044B00080810E949D061F5FF0CF712C8091A00328
:1044C000781608F063C0C72CD12CE0919D03F091C1
:1044D0009E03EC0DFD1D61E080810E949D06E09130
:1044E0009D03F0919E03EC0DFD1D60E080810E9414
:1044F0006F0681E090E0A0E0B0E0072C04C0880FD8
:10450000991FAA1FBB1F0A94D2F74C015C01A0940B
:10451000B094512C80919F03581608F5052D10E09A
:10452000E0919B03F0919C03E00FF11F80810E94BA
:1045300046060C5F1F4F000F111FF801E75CFC4F90
:10454000892B41F4808191818829992991838083E5
:104550005394E0CF808191818A219B21F7CFE09114
:104560009D03F0919E03EC0DFD1D61E080810E9492
:104570006F0680919D0390919E03C80ED91E60E046
:10458000F60180810E949D06739498CF29E3C22E84
:1045900023E0D22E8601D8015F968D919C91909751
:1045A000892B59F45C961C925C97EFEFFFEF5E96B7
:1045B000FC93EE935D9791961C920A5F1F4F201615
:1045C000310649F7B12C80919F03B81608F055C009
:1045D000A12C8B2C912C880C991CA4014F5B5C4F57
:1045E0004A012091A003A21608F045C0D4016D91A4
:1045F0007C910A2C02C0769567950A94E2F7AB018C
:10460000417055276170B29E900111242A0D311D11
:10461000E0919903F0919A03E20FF31F7081E9E3AF
:10462000F3E080E0A58DB68D2A173B07D1F08F5FB0
:1046300036968A30B9F7452BE1F0E9E3F3E090E0F4
:1046400080E0448D411110C0489EF001499EF00D5C
:104650001124E75CFC4F748F368F258F10A2178EC4
:1046600061E00E943C0705C0019636968A309105AC
:1046700041F7A394B6CFB394A6CFB12CF60181A194
:104680008111B82EF6E0CF0ED11CC016D106B1F7BD
:104690000E9430076093950370939603809397036D
:1046A00090939803BB20E9F0C0905A03CC20C9F046
:1046B0008091580390915903019799F4D090550334
:1046C00043E2D41212C060EC71E08CE992E00E94E7
:1046D0008F1A69E971E08CE992E00E948F1AC12C6F
:1046E00004C01092A503C62CD12C97010F2C000CEE
:1046F000440B550B19A28E010F5D1F4FCA01B90162
:104700002AE030E040E050E00E944D24605DD80196
:104710006E938D01211531054105510579F71097EB
:1047200029F0BD018CE992E00E948F1A69E971E0DD
:104730008CE992E00E948F1AB3E0EB16F104CCF4FE
:104740008FEC8D0D8930A8F46D2D8CE992E00E94DC
:10475000450869E971E08CE992E00E948F1AE2E273
:10476000F0E0EC0FFD1FEE0DFF1DD082EFEFEE1A13
:10477000FE0A10921D0410921C0442E350E0509374
:104780001F0440931E04BE016E5D7F4F80E194E0E4
:104790000E948F1A0E94F213C1105FCE10921D0466
:1047A00010921C048EE190E090931F0480931E04ED
:1047B0006AEC71E080E194E00E948F1A0E94F2138B
:1047C00068EE73E080E090E00E94FE060E946D1AA1
:1047D0000E94F21380E0E82E80E0F82E08EE13E04D
:1047E00088EA93E00E949D15811119C020E030E015
:1047F00048E453EC6091D8037091D9038091DA03B7
:104800009091DB030E940125882331F060E070E085
:1048100088E493EC0E947E050E94EF17E1CF84EBC1
:1048200093E00E949D15811119C020E030E048E41A
:1048300053E46091D8037091D9038091DA03909189
:10484000DB030E940125882331F060E070E088E4FA
:1048500093E40E947E050E94EF17E1CF01501109F9
:1048600009F0BECFE114F10409F4B8CF0E940F089B
:10487000882309F4B3CF0E940000B0CF81E791E014
:10488000909311048093100480912F049091300430
:10489000009711F00C94C9270895A1E21A2EAA1BC3
:1048A000BB1BFD010DC0AA1FBB1FEE1FFF1FA217E0
:1048B000B307E407F50720F0A21BB30BE40BF50BDD
:1048C000661F771F881F991F1A9469F76095709566
:1048D000809590959B01AC01BD01CF010895052EF7
:1048E00097FB1EF400940E94862457FD07D00E9477
:1048F0004D2407FC03D04EF40C948624509540952B
:10490000309521953F4F4F4F5F4F0895909580957B
:10491000709561957F4F8F4F9F4F0895EE0FFF1F4A
:104920000590F491E02D09945058BB27AA270E94C6
:10493000AC240C9426260E94182638F00E941F26CC
:1049400020F039F49F3F19F426F40C9415260EF448
:10495000E095E7FB0C940F26E92F0E94372658F3C9
:10496000BA17620773078407950720F079F4A6F554
:104970000C9459260EF4E0950B2EBA2FA02D0B01A6
:10498000B90190010C01CA01A0011124FF27591B94
:1049900099F0593F50F4503E68F11A16F040A22F9A
:1049A000232F342F4427585FF3CF4695379527950B
:1049B000A795F0405395C9F77EF41F16BA0B620B0A
:1049C000730B840BBAF09150A1F0FF0FBB1F661F51
:1049D000771F881FC2F70EC0BA0F621F731F841F94
:1049E00048F4879577956795B795F7959E3F08F0BA
:1049F000B0CF9395880F08F09927EE0F979587957C
:104A000008950E94EB2508F481E008950E941A257C
:104A10000C9426260E941F2658F00E94182640F06B
:104A200029F45F3F29F00C940F2651110C945A265B
:104A30000C9415260E94372668F39923B1F3552369
:104A400091F3951B550BBB27AA27621773078407A1
:104A500038F09F5F5F4F220F331F441FAA1FA9F337
:104A600035D00E2E3AF0E0E832D091505040E69525
:104A7000001CCAF72BD0FE2F29D0660F771F881F86
:104A8000BB1F261737074807AB07B0E809F0BB0B79
:104A9000802DBF01FF2793585F4F3AF09E3F51058D
:104AA00078F00C940F260C945A265F3FE4F3983E5E
:104AB000D4F3869577956795B795F7959F5FC9F776
:104AC000880F911D9695879597F90895E1E0660FF7
:104AD000771F881FBB1F621773078407BA0720F070
:104AE000621B730B840BBA0BEE1F88F7E0950895D9
:104AF0000E947F256894B1110C945A2608950E9453
:104B00003F2688F09F5798F0B92F9927B751B0F0FA
:104B1000E1F0660F771F881F991F1AF0BA95C9F741
:104B200014C0B13091F00E945926B1E008950C9460
:104B30005926672F782F8827B85F39F0B93FCCF313
:104B4000869577956795B395D9F73EF490958095BE
:104B5000709561957F4F8F4F9F4F0895E89409C0DE
:104B600097FB3EF490958095709561957F4F8F4FA0
:104B70009F4F9923A9F0F92F96E9BB279395F695B6
:104B8000879577956795B795F111F8CFFAF4BB0F34
:104B900011F460FF1BC06F5F7F4F8F4F9F4F16C098
:104BA000882311F096E911C0772321F09EE8872F22
:104BB000762F05C0662371F096E8862F70E060E0DE
:104BC0002AF09A95660F771F881FDAF7880F969557
:104BD000879597F90895990F0008550FAA0BE0E8FB
:104BE000FEEF16161706E807F907C0F012161306AF
:104BF000E407F50798F0621B730B840B950B39F4EF
:104C00000A2661F0232B242B252B21F408950A2654
:104C100009F4A140A6958FEF811D811D089597F994
:104C20009F6780E870E060E008959FEF80EC089552
:104C300000240A941616170618060906089500247B
:104C40000A9412161306140605060895092E0394F5
:104C5000000C11F4882352F0BB0F40F4BF2B11F469
:104C600060FF04C06F5F7F4F8F4F9F4F089557FDC8
:104C70009058440F551F59F05F3F71F04795880FCA
:104C800097FB991F61F09F3F79F087950895121661
:104C900013061406551FF2CF4695F1DF08C016160D
:104CA00017061806991FF1CF8695710561050894BE
:104CB0000895E894BB2766277727CB0197F90895D5
:104CC0000E94EB2508F48FEF08950E9478260C943B
:104CD00026260E94182638F00E941F2620F09523D1
:104CE00011F00C940F260C94152611240C945A26BE
:104CF0000E94372670F3959FC1F3950F50E0551F22
:104D0000629FF001729FBB27F00DB11D639FAA2720
:104D1000F00DB11DAA1F649F6627B00DA11D661F6F
:104D2000829F2227B00DA11D621F739FB00DA11D90
:104D3000621F839FA00D611D221F749F3327A00D4A
:104D4000611D231F849F600D211D822F762F6A2FE6
:104D500011249F5750409AF0F1F088234AF0EE0F4B
:104D6000FF1FBB1F661F771F881F91505040A9F778
:104D70009E3F510580F00C940F260C945A265F3FFD
:104D8000E4F3983ED4F3869577956795B795F795B4
:104D9000E7959F5FC1F7FE2B880F911D969587952C
:104DA00097F9089519F416F40C9415260C94182705
:104DB0000E943F26B8F39923C9F3B6F39F57550BCA
:104DC00087FF0E9426270024A0E640EA9001805831
:104DD0005695979528F4805C660F771F881F20F002
:104DE00026173707480730F4621B730B840B202902
:104DF00031294A2BA69517940794202531254A2757
:104E000058F7660F771F881F20F0261737074807C7
:104E100030F4620B730B840B200D311D411DA095E6
:104E200081F7B901842F9158880F96958795089539
:104E30009F3F31F0915020F4879577956795B7950E
:104E4000880F911D9695879597F908959150504038
:104E5000660F771F881FD2F708950F931F93CF9384
:104E6000DF938230910510F482E090E0E0915204EB
:104E7000F091530430E020E0B0E0A0E0309799F4E6
:104E80002115310509F44AC0281B390B243031059E
:104E9000D8F58A819B816115710589F1FB019383A6
:104EA0008283FE0111C04081518102811381481724
:104EB0005907E0F04817590799F4109761F01296D6
:104EC0000C93129713961C933296CF01DF91CF91DA
:104ED0001F910F9108950093520410935304F4CF3F
:104EE0002115310551F04217530738F0A901DB01B4
:104EF0009A01BD01DF01F801C1CFEF01F9CF909315
:104F0000530480935204CDCFFE01E20FF31F81932F
:104F100091932250310939832883D7CF20915004AF
:104F200030915104232B41F4209115013091160149
:104F300030935104209350042091130130911401B7
:104F40002115310541F42DB73EB74091170150911D
:104F50001801241B350BE0915004F0915104E21725
:104F6000F307A0F42E1B3F0B2817390778F0AC018C
:104F70004E5F5F4F2417350748F04E0F5F1F509369
:104F8000510440935004819391939FCFF0E0E0E06F
:104F90009CCFCF93DF930097E9F0FC013297138207
:104FA0001282A0915204B0915304ED0130E020E050
:104FB0001097A1F420813181820F931F209150041A
:104FC000309151042817390709F061C0F09351045A
:104FD000E0935004DF91CF910895EA01CE17DF07E7
:104FE000E8F54A815B819E0141155105B1F7E90160
:104FF000FB83EA8349915991C40FD51FEC17FD0734
:1050000061F4808191810296840F951FE901998353
:105010008883828193819B838A83F0E0E0E012960B
:105020008D919C9113970097B9F52D913C91119713
:10503000CD010296820F931F2091500430915104AC
:105040002817390739F6309751F51092530410920A
:105050005204B0935104A0935004BCCFD383C283B5
:1050600040815181840F951FC817D90761F44E5FA5
:105070005F4F88819981480F591F518340838A81EE
:105080009B81938382832115310509F0B0CFF09382
:105090005304E09352049ECFFD01DC01C0CF138284
:1050A0001282D7CF81E090E0F8940C945E28DC0166
:1050B00001C06D9341505040E0F7089515E0C3E5FD
:1050C000D5E004C0FE010E948E242196C435D1078C
:0650D000C9F7F894FFCFC0
:1050D60005040309080706313233343536373839C3
:1050E6002A3023000054048000000000004508A573
:1050F60007D20792080308E107F50700000000C57C
:1051060011981179151C0691117E116F110000007E
:105116000098079C07A007000000007C150000000F
:10512600001016DC15DD19D61A55187117AF175B66
:105136001729170817D416B3165D162E1600000089
:10514600004E0DA50779150811590A1C06F30FCB59
:105156000FE70FDB0F5B101C06140B2315C9091292
:105166000A140FF70E7F0E200E0D0A0072656D658C
:10517600647900696E697469616C697A656400773F
:10518600616974696E6720746F207374617274004C
:1051960023207072657373656400636F756E74693E
:0851A6006E672E2E2E2E000074
:00000001FF
