:100000000C94E2020C940A030C940A030C940A0365
:100010000C940A030C940A030C940A030C940A032C
:100020000C940A030C940A030C940A030C940A031C
:100030000C940A030C940A030C940A030C940A030C
:100040000C9405110C940A030C940A030C940A03F3
:100050000C940A030C940A030C940A030C940A03EC
:100060000C940A030C940A0300000000003E5B4F4E
:100070005B3E3E6B4F6B3E1C3E7C3E1C183C7E3C08
:10008000181C577D571C1C5E7F5E1C00183C180016
:10009000FFE7C3E7FF0018241800FFE7DBE7FF30A6
:1000A000483A060E2629792926407F050507407F14
:1000B00005253F5A3CE73C5A7F3E1C1C08081C1C87
:1000C0003E7F14227F22145F5F005F5F06097F017D
:1000D0007F006689956A606060606094A2FFA29468
:1000E00008047E040810207E201008082A1C080836
:1000F0001C2A08081E101010100C1E0C1E0C303884
:100100003E3830060E3E0E06000000000000005F84
:1001100000000007000700147F147F14242A7F2AA0
:100120001223130864623649562050000807030062
:10013000001C2241000041221C002A1C7F1C2A08AE
:10014000083E080800807030000808080808000011
:1001500060600020100804023E5149453E00427F85
:10016000400072494949462141494D331814127FD4
:100170001027454545393C4A494931412111090774
:100180003649494936464949291E000014000000F5
:1001900040340000000814224114141414140041C7
:1001A00022140802015909063E415D594E7C121184
:1001B000127C7F494949363E414141227F414141BC
:1001C0003E7F494949417F090909013E4141517337
:1001D0007F0808087F00417F41002040413F017FA8
:1001E000081422417F404040407F021C027F7F0470
:1001F00008107F3E4141413E7F090909063E4151B9
:10020000215E7F09192946264949493203017F01A8
:10021000033F4040403F1F2040201F3F4038403FA9
:10022000631408146303047804036159494D4300BF
:100230007F4141410204081020004141417F0402F6
:10024000010204404040404000030708002054548D
:1002500078407F284444383844444428384444286B
:100260007F385454541800087E090218A4A49C78BE
:100270007F0804047800447D40002040403D007F1A
:100280001028440000417F40007C047804787C08FA
:100290000404783844444438FC18242418182424CE
:1002A00018FC7C08040408485454542404043F44B3
:1002B000243C4040207C1C2040201C3C4030403CE2
:1002C00044281028444C9090907C4464544C440042
:1002D00008364100000077000000413608000201A6
:1002E0000204023C2623263C1EA1A161123A404092
:1002F000207A38545455592155557941225454780F
:1003000042215554784020545579400C1E527212A7
:100310003955555559395454545939555454580030
:1003200000457C410002457D420001457C407D1234
:1003300011127DF0282528F07C5455450020545496
:100340007C547C0A097F4932494949323A44444441
:100350003A324A4848303A4141217A3A424020787C
:10036000009DA0A07D3D4242423D3D4040403D3C7D
:1003700024FF2424487E4943662B2FFC2F2BFF09A2
:1003800029F620C0887E0903205454794100004496
:100390007D413048484A32384040227A007A0A0A81
:1003A000727D0D19317D2629292F282629292926F4
:1003B00030484D4020380808080808080808382F39
:1003C00010C8ACBA2F102834FA00007B00000814C3
:1003D0002A142222142A14085500550055AA55AA99
:1003E00055AAFF55FF55FF000000FF00101010FF39
:1003F00000141414FF001010FF00FF1010F010F094
:10040000141414FC001414F700FF0000FF00FF1484
:1004100014F404FC141417101F10101F101F1414D0
:10042000141F00101010F0000000001F101010101A
:100430001F10101010F010000000FF10101010100E
:1004400010101010FF10000000FF140000FF00FF4C
:1004500000001F10170000FC04F4141417101714E8
:1004600014F404F40000FF00F7141414141414140A
:10047000F700F7141414171410101F101F1414147D
:10048000F4141010F010F000001F101F0000001FE7
:1004900014000000FC140000F010F01010FF10FF1A
:1004A000141414FF141010101F00000000F010FFAF
:1004B000FFFFFFFFF0F0F0F0F0FFFFFF0000000093
:1004C00000FFFF0F0F0F0F0F3844443844FC4A4A17
:1004D0004A347E02020606027E027E0263554941CC
:1004E000633844443C04407E201E2006027E020203
:1004F00099A5E7A5991C2A492A1C4C7201724C3017
:100500004A4D4D303048784830BC625A463D3E49ED
:100510004949007E0101017E2A2A2A2A2A44445F91
:10052000444440514A444040444A51400000FF0185
:1005300003E080FF000008086B6B08361236243693
:10054000060F090F060000181800000010100030F8
:1005500040FF0101001F01011E00191D1712003C80
:100560003C3C3C000000000000000000230026008E
:10057000290000000000240027002A0000000000DD
:10058000250028002B0004040404040404040202CF
:100590000202020203030303030301020408102002
:1005A000408001020408102001020408102000000D
:1005B0000008000201000003040700000000000022
:1005C00000004F1111241FBECFEFD8E0DEBFCDBF1A
:1005D00024E0AEE8B3E001C01D92A533B207E1F715
:1005E00013E0A0E0B1E0E0E3F5E302C005900D9276
:1005F000AE38B107D9F712E0C2EED2E004C02197BD
:10060000FE010E940217C13ED107C9F70E94AC1239
:100610000C94961A0C9400008F929F92AF92BF9206
:10062000CF92DF92EF92FF920F931F93CF93DF93BE
:100630008B01D82FC92F8090090490900A04A090B4
:100640000B04B0900C0475016401F7FAF094F7F80C
:10065000F0949B01482F592FC701B6010E943F1803
:10066000181674F098014D2F5C2FC501B4010E943B
:1006700088157501640187FD03C06801ED2EFC2E0D
:1006800020E030E0A901C701B6010E948815811160
:100690001DC01092F0031092F1031092F203109219
:1006A000F303C0920504D0920604E0920704F0928E
:1006B0000804DF91CF911F910F91FF90EF90DF9091
:1006C000CF90BF90AF909F908F900895A701960113
:1006D00060E074E284E799E40E9497179F770E9494
:1006E00010186093F0037093F1038093F2039093DA
:1006F000F303C1E020E030E0A901C701B6010E9488
:100700003F1818160CF0C0E0C093EF03CACF833037
:1007100081F028F4813099F08230A9F00895873073
:10072000A9F08830C9F08430B1F4809180008F7DC9
:1007300003C0809180008F7780938000089584B5F6
:100740008F7784BD089584B58F7DFBCF8091B000F5
:100750008F778093B00008958091B0008F7DF9CF9E
:100760001F93CF93DF93282F30E0F901E255FA4F22
:100770008491F901E656FA4FD491F901EA57FA4FFC
:10078000C491CC23A9F0162F81110E948703EC2F6E
:10079000F0E0EE0FFF1FE458FA4FA591B4918FB728
:1007A000F894EC91111108C0D095DE23DC938FBF33
:1007B000DF91CF911F910895DE2BF8CFCF93DF9378
:1007C00090E0FC01E656FA4F24918A579A4FFC01BB
:1007D00084918823C9F090E0880F991FFC01EE589E
:1007E000FA4FA591B491FC01E458FA4FC591D49108
:1007F00061110DC09FB7F8948C91209582238C9342
:100800008881282328839FBFDF91CF91089562308C
:1008100051F49FB7F8943C91822F809583238C9359
:10082000E8812E2BEFCF8FB7F894EC912E2B2C93E1
:100830008FBFEACF3FB7F8948091900390919103D6
:10084000A0919203B091930326B5A89B05C02F3FBA
:1008500019F00196A11DB11D3FBFBA2FA92F982FE6
:100860008827BC01CD01620F711D811D911D42E0E1
:10087000660F771F881F991F4A95D1F708958F92A9
:100880009F92AF92BF92CF92DF92EF92FF924B0175
:100890005C010E941A046B017C010E941A046C190D
:1008A0007D098E099F09683E734081059105A8F373
:1008B00021E0821A9108A108B10888EEC80E83E0F1
:1008C000D81EE11CF11C81149104A104B10429F784
:1008D000FF90EF90DF90CF90BF90AF909F908F9060
:1008E0000895AF92BF92CF92DF92EF92FF920F9353
:1008F0001F93CF93DF936C017B018B01040F151FB6
:10090000EB015E01AE18BF08C017D10759F069911D
:10091000D601ED91FC910190F081E02DC601099581
:10092000892B79F7C501DF91CF911F910F91FF902E
:10093000EF90DF90CF90BF90AF9008950F931F93EB
:10094000CF93DF93EC01888581110EC0898591E0FA
:1009500098879A8562E0911101C060E00E94DE03F1
:100960008FE090E00197F1F7298530E0F901E25539
:10097000FA4F8491F901E656FA4F0491F901EA57CA
:10098000FA4F14911123C9F081110E948703E12FBE
:10099000F0E0EE0FFF1FE859FA4FA591B491EC91EA
:1009A0000E2331E009F430E0832F2B8582278170FC
:1009B000DF91CF911F910F91089580E0F6CFCF93F3
:1009C000DF93EC010E949E049FB7F894409194033A
:1009D0005091950360919603709197039FBF9A8100
:1009E000913081F030F09230D9F09330F9F080E01E
:1009F00006C08111FCCF5C834B8391E09A83DF9129
:100A0000CF910895882311F01A82F1CF2B813C8178
:100A1000421B530B4F30510590F382E08A83E7CF9E
:100A2000882369F35C834B8383E0F8CF8823A9F3A1
:100A30002B813C81421B530B4F305105C0F21A826F
:100A4000DECFCF93DF93FC012781222359F1EC0104
:100A500061E080850E94DE0361E089850E94DE03FB
:100A60008F81843011F08830B1F461E08A850E9472
:100A7000DE0361E08B850E94DE038FA58F3F91F03E
:100A800061E00E94DE036EA581E068278FA5DF91FB
:100A9000CF910C94B003833011F0863071F761E090
:100AA0008A85E9CFDF91CF910895CF93DF93FC0141
:100AB00027812223A9F0EC010190F081E02D02842E
:100AC000F385E02D60E009958FA58F3F49F061E047
:100AD0000E94DE036EA58FA5DF91CF910C94B00329
:100AE000DF91CF910895DC01ED91FC912285338552
:100AF00047705527662777274150510961097109C9
:100B0000473051056105710560F4FA01E657FA4F67
:100B10000C9402179405960598059A059C059E0568
:100B2000A00561E0F901099465E0FCCF64E0FACF2B
:100B300066E0F8CF62E0F6CF6AE0F4CF68E0F2CF8B
:100B400069E0F0CFCF93DF93EC01CB01BA0126E04F
:100B500030E040E050E00E94E3166230710581050C
:100B6000910589F16CF46115710581059105D1F04C
:100B70006130710581059105F9F0DF91CF910895FC
:100B8000643071058105910561F124F165307105CD
:100B90008105910591F7E881F9810284F385E02DC3
:100BA00066E006C0E881F9810284F385E02D64E007
:100BB000CE01DF91CF910994E881F9810284F38518
:100BC000E02D65E0F5CFE881F9810284F385E02D21
:100BD00061E0EECFE881F9810284F385E02D63E0E6
:100BE000E7CFE881F9810284F385E02D62E0E0CF70
:100BF000DC01ED91FC910284F385E02D43705527D3
:100C000066277727423051056105710571F0433041
:100C100051056105710559F04130510561057105B6
:100C200011F065E0099466E0FDCF6AE0FBCF69E072
:100C3000F9CFCF93DF93EC01CB01BA0123E030E091
:100C400040E050E00E94E316613071058105910596
:100C500099F06230710581059105A9F0672B682B29
:100C6000692BC1F4E881F9810284F385E02D64E009
:100C7000CE01DF91CF910994E881F9810284F38557
:100C8000E02D61E0F5CFE881F9810284F385E02D64
:100C900062E0EECFDF91CF910895DC01ED91FC9100
:100CA0000284F385E02D437055276627772742306D
:100CB00051056105710571F04330510561057105FC
:100CC00059F0413051056105710511F062E0099458
:100CD00063E0FDCF61E0FBCF60E0F9CFCF93DF931E
:100CE000EC01E881F9810284F385E02D8A8160E0DE
:100CF000811162E0CE010995E881F9810284F385D2
:100D0000E02D8A8161E0811163E0CE0109958CA517
:100D10009DA58230910538F0880F991F880F991F83
:100D200005970197F1F7E881F9810284F385E02DB9
:100D30008A8160E0811162E0CE01DF91CF91099458
:100D4000CF93DF93EC0120E030E0A901688D798D2D
:100D50008A8D9B8D0E943F1818162CF4E8A9F9A9DA
:100D6000DF91CF910994EAA9FBA9FACFCF92DF9244
:100D7000EF92FF920F931F93CF93DF93DC011796AF
:100D8000CC91C43039F0C83059F1C33019F0C630B5
:100D900049F1C2E08C01085F1F4FF12CE12CC62EF7
:100DA000D12CD1E0F8016481C6010E2C02C09595CA
:100DB00087950A94E2F780FD6D270F5F1F4F8081B2
:100DC0000E94B003BFEFEB1AFB0AEC1658F3DF9159
:100DD000CF911F910F91FF90EF90DF90CF900895EA
:100DE000C4E0D8CFC3E0D6CFDC011796EC911797BB
:100DF000E93008F038C0F0E0E050F94F0C940217E9
:100E000009070F0715071B072107330727073307B4
:100E10002D07ED91FC910684F785E02D0994ED9165
:100E2000FC910088F189E02DF9CFED91FC910288C9
:100E3000F389E02DF3CFED91FC910488F589E02D45
:100E4000EDCFED91FC910688F789E02DE7CFED918C
:100E5000FC91008CF18DE02DE1CFED91FC91028CA5
:100E6000F38DE02DDBCF0895CF92DF92EF92FF92CA
:100E70008091F0039091F103A091F203B091F303FC
:100E8000892B8A2B8B2B31F480E0FF90EF90DF9041
:100E9000CF9008950E941A046B017C018091150483
:100EA00090911604A0911704B0911804B701A601FF
:100EB000481B590B6A0B7B0B8091F0039091F10357
:100EC000A091F203B091F303481759076A077B0713
:100ED000D8F28091FD039091FE03A091FF03B091A1
:100EE00000042091EF03222309F10196A11DB11DF9
:100EF0008093FD039093FE03A093FF03B09300043F
:100F00004091FD035091FE036091FF037091000436
:100F10008DEE93E00E94F406C0921504D092160460
:100F2000E0921704F092180481E0AFCF0197A10975
:100F3000B109DECF4F925F926F927F928F929F9214
:100F4000AF92BF92CF92DF92EF92FF920F931F93D7
:100F5000CF93DF93EC01CC88DD88EE88FF88888909
:100F60009989AA89BB89C81AD90AEA0AFB0A688D35
:100F7000798D8A8D9B8D9B01AC010E94EE154B01F2
:100F80005C0168A179A18AA19BA19B01AC010E948F
:100F90002B179B01AC01C501B4010E9497170E9459
:100FA0000918C114D104E104F10409F0B6C062309B
:100FB0007105810591050CF0D0C01B821C821D8239
:100FC0001E82188E198E1A8E1B8E1CAA1DAA1EAA8E
:100FD0001FAAC12CD12C7601C701B601DF91CF9198
:100FE0001F910F91FF90EF90DF90CF90BF90AF9047
:100FF0009F908F907F906F905F904F900895101604
:10100000110612061306B4F46C157D058E059F05B6
:101010001CF42A812111A1C09B01AC0188279927CA
:10102000DC01821B930BA40BB50B8CAB9DABAEAB61
:10103000BFAB93C0011511052105310509F48DC021
:101040006C157D058E059F050CF087C08A8188236D
:1010500009F483C030952095109501951F4F2F4FAF
:101060003F4F0CAB1DAB2EAB3FAB77C0011511054D
:101070002105310509F471C08824992454018C1884
:101080009D08AE08BF08681579058A059B050CF018
:1010900064C08A81811161C0DDCFCCACDDACEEAC27
:1010A000FFACA7019601C701B6010E942B172B01C7
:1010B0003C01C501B4010E948F1520E030E040E8FA
:1010C00050E40E94EE1520E030E040E85FE30E942B
:1010D0002B179B01AC01C301B2010E9497179B0122
:1010E000AC01C701B6010E942A173B016C01FE0149
:1010F000E05CFF4FE080F180028113819701A8013D
:101100000E943F18181614F473018601C701D80114
:101110008CAF9DAFAEAFBFAF3AC00CA91DA92EA931
:101120003FA91C141D041E041F040CF468CF1016E4
:101130001106120613060CF099CF0027112798010B
:101140000C191D092E093F096017710782079307C3
:101150000CF062CF2A8121115FCF8CA89DA8AEA888
:10116000BFA881149104A104B10409F096CF88AD01
:1011700099ADAAADBBAD8CAF9DAFAEAFBFAF81E0B7
:101180001C141D041E041F040CF080E08A833FEF32
:10119000831A930AA30AB30A8CAA9DAAAEAABFAA6D
:1011A0008CAC9DACAEACBFACC501B4010E941018B4
:1011B0006B017C01CB82DC82ED82FE82A501940171
:1011C00060E074E284E799E40E949717688F798F52
:1011D0008A8F9B8F2A812111FFCE9058688F798F3B
:1011E0008A8F9B8FF9CECF92DF92EF92FF92CF93AF
:1011F000DF93CDEED3E0688D798D8A8D9B8D9B0139
:10120000AC010E94EE156B017C0168A179A18AA155
:101210009BA19B01AC010E942B179B01AC01C70154
:10122000B6010E9497170E9409186CAB7DAB8EAB7C
:101230009FABCE01DF91CF91FF90EF90DF90CF90E9
:101240000C949A070895FC01838D8F3F21F481E06F
:10125000948D9F3F09F080E008951F93CF93DF9313
:10126000EC01162F0E94230928E030E090E8882343
:1012700051F01EBD00000DB407FEFDCF8EB5DF910D
:10128000CF911F910895EAA1FBA1408189A5809586
:1012900084238083E8A1F9A188A5412F492371F017
:1012A0004081842B8083EAA1FBA1808149A5842B06
:1012B000808396952150310931F7E1CF40818095A7
:1012C0008423F0CFCF93DF93EC01ECA1FDA19081BB
:1012D0008BA58095892380838F8D882339F0EEA19B
:1012E000FFA190818AA5809589238083CE010E94E9
:1012F0002D098F8D882331F0EEA1FFA180819AA561
:10130000892B8083DF91CF910895FC01D90177FD6E
:101310003CC08085918568177907BCF557FD35C0BD
:10132000828593854817590784F58689823071F143
:101330008330C9F1813031F48FE290E0861B970B46
:10134000BA01AC016435710500F540335105E8F48C
:10135000CA0123E0959587952A95E1F724E5289F12
:10136000F001299FF00D1124E60FF71FE050FF4F09
:1013700030814770552781E090E001C0880F4A9581
:10138000EAF7AB2BB9F0832B8083089583E590E0D7
:101390009C01261B370BB9018FE290E09C01241BB6
:1013A000350BA901CFCF83E590E0841B950BAB01F2
:1013B000BC01C8CF80958323E7CF08958CBD9DBD28
:1013C00008950F931F93CF93DF938BE993E00E94CF
:1013D0002309882331F080919803909199030E940A
:1013E000DE0960E48BE993E00E94620960E88BE922
:1013F00093E00E946209E091BF03F091C0038081F5
:101400009091C603892B80838091BA03882351F081
:10141000E091C103F091C20390818091C503809552
:10142000892380838BE993E00E942309C0E0D1E007
:10143000882301F108EF12E069918BE993E00E94A3
:101440002D090C171D07C1F78091BA03882349F0B5
:10145000E091C103F091C20380819091C503892B73
:10146000808360E48BE993E0DF91CF911F910F912E
:101470000C94620969918BE993E00E942D0982E046
:10148000C83FD807B9F7E0CF1F93CF93DF93EC01A4
:10149000162F0E942309882331F0809198039091A0
:1014A00099030E94DE0960E2CE010E9462096CE0AD
:1014B00011116DE0CE01DF91CF911F910C94620963
:1014C0000895FC016370668B848195812681378144
:1014D000613039F0633029F0918780873387228724
:1014E0000895318720879387828708952F923F92AE
:1014F0004F925F926F927F928F929F92AF92BF9224
:10150000CF92DF92EF92FF920F931F93CF93DF93CF
:10151000CDB7DEB76A970FB6F894DEBF0FBECDBF6A
:101520009A8F898F7A8369834A01D22E18870F8315
:101530003701BC2CDC0159962D913C915A9721150D
:10154000310509F015C118968D919C91199768176E
:1015500079070CF0D7C11A968D919C9148175907BD
:101560000CF0D0C14C2C512CB6E0CB9E600D711DFF
:1015700011247C876B87161617060CF0C3C1EA2D61
:10158000F0E0FA87E98793E0EE0FFF1F9A95E1F705
:10159000F88BEF87CF01840F951F181619060CF0F2
:1015A000B1C1A98DBA8D58968C91811104C0BFEA42
:1015B000BD1508F4D394A98DBA8DED91FC911197C6
:1015C0000284F385E02DCD010995B5E0DB9EC001D5
:1015D0001124E981FA81FC83EB83312C212C9C01BD
:1015E00028593F4F388F2F8B4A2D50E05E8B4D8B03
:1015F000EF89F88DE20DF31D44919E828D82D12CEE
:10160000C12C69817A81620D731D7A8B698B842F5D
:1016100090E09C8B8B8BE98DFA8DA081B18140FF8E
:1016200082C0F1E0BF126FC0AF126DC01C96ED9189
:10163000FC912F813885A4014C0D5D1D69897A8943
:10164000898D9A8D0995EB89FC89F595E7954E2F43
:101650005FEFC51AD50A6D817E818D899E89680FDD
:10166000791F7E836D8398E0C916D10481F6AFEFB0
:101670002A1A3A0AEB81FC81E40DF51DFC83EB8309
:10168000F5E02F16310409F0B3CF2F8138852615E8
:101690003705B9F0A98DBA8DED91FC91B1E0BB127F
:1016A00057C0AB1255C069817A816B5F7F4F00884C
:1016B000F189E02D830128E030E0A401898D9A8D25
:1016C0000995A98DBA8DED91FC9111970688F7893E
:1016D000E02DCD016A960FB6F894DEBF0FBECDBFE8
:1016E000DF91CF911F910F91FF90EF90DF90CF90FE
:1016F000BF90AF909F908F907F906F905F904F9032
:101700003F902F9009941E96ED91FC91EF80F88404
:1017100009851A8592014D815E816B817C81898D5D
:101720009A8D099590CF2F8138852615370509F4B4
:101730008ACF31E0B31207C0A31205C01C96ED9109
:10174000FC91930178CF1E96ED91FC917301E0CF4F
:101750006B857C85641975090684F785E02D730116
:101760000F8518899201A401898D9A8D0995A9CFB9
:10177000F90134969491329745915491D91AB7E072
:10178000DB9E400D511D1124F901259134913C8BB4
:101790002B8BFA0125903490FA0132967490319691
:1017A0003491398B329664903196449041E04C15D7
:1017B00018F04A1508F07FC0662D062C000C770B38
:1017C0007C836B83842D042C000C990B9E838D836A
:1017D000A98DBA8DED91FC9111970284F385E02DCE
:1017E000CD010995512CD12CC12CEA2DF0E0FA87BE
:1017F000E9872B2D30E03C872B87A401440D511D38
:1018000047FC5A95588F4F8B69817A81660D711DFF
:1018100067FC7A957E876D877989C71608F051CF66
:101820002C2D30E04D815E81420F531FA985BA8572
:101830004A9FC0014B9F900D5A9F900D1124FC01AF
:10184000E80DF91DF88BEF87852D612C4F89588D98
:10185000420F531F5E8B4D8B671408F050C0442419
:101860004394480E877041F4C1010196EB89FC89CD
:10187000E20DF31DD4901C01D7FE19C0A98DBA8DBD
:10188000ED91FC91662D70E0B1E0BB1219C0AB1276
:1018900017C02D853E85620F731F0484F585E02DEA
:1018A0002F8138854D895E89898D9A8D0995DD0C4A
:1018B0006394842DD1CF1E821D821C821B8288CF0F
:1018C0004B815C81640F751FAB85BC856A9FC0012D
:1018D0006B9F900D7A9F900D112469817A81680F1A
:1018E000791F0684F785E02DEF80F88409851A8535
:1018F0009D014F855889898D9A8D0995D8CF570CB0
:10190000C3948ACF6A960FB6F894DEBF0FBECDBFE0
:10191000DF91CF911F910F91FF90EF90DF90CF90CB
:10192000BF90AF909F908F907F906F905F904F90FF
:101930003F902F9008958F929F92AF92CF92EF9207
:10194000FF920F931F93CF93DF93EC01262F898D86
:101950009A8D009709F051C06A30D1F41D861C861B
:101960008D8948E0849F900111248E859F85820F88
:10197000931F9F878E8781E090E0DF91CF911F9129
:101980000F91FF90EF90CF90AF909F908F90089520
:101990006D3089F3CC88AD888F898823C1F08C8520
:1019A0009D8536E0C39E800D911D11244885598583
:1019B0004817590764F44E855F851D861C8638E0FC
:1019C000A39EC0011124840F951F9F878E87EA88EC
:1019D000FB88088919894E855F856C857D85CE01D8
:1019E0000E94760A2C898C859D8546E0249F800D77
:1019F000911D11249D878C87BECF6A3069F41D86A6
:101A00001C86FC013896E4912D898E859F85E29F86
:101A1000800D911D1124ADCF6D3009F4ACCFFC01C8
:101A200034963491631708F4A6CF3296E491E61702
:101A300008F4A1CFFC01329685909490462F431B69
:101A4000342F47E0349F800C911C1124F40132960E
:101A500034913196E4913323A9F1EE2399F1CC88A6
:101A6000F4013596E491AD884F89442301F10E2E9F
:101A7000000CFF0BE30FF11DCE9EA001CF9E500D79
:101A800011246C857D85460F571F688579856417FD
:101A900075076CF44E855F851D861C86FC013896A3
:101AA000E491AE9E400D511D11245F874E87EA8858
:101AB000FB88088919894E855F856C857D85CE01F7
:101AC0000E94760AF4013496E4912C898C859D85D8
:101AD000E29F800D911D11248DCF6F927F928F9286
:101AE0009F92AF92BF92CF92DF92EF92FF920F93AD
:101AF0001F93CF93DF93EC016B015A013901480129
:101B0000E881F9810284F385E02D0995E881F98166
:101B10000288F389E02D87019301A501B601CE016A
:101B20000995A501480D591D41505109E881F981D8
:101B30000288F389E02D9301B601CE010995E88171
:101B4000F9810088F189E02D9401A501B601CE014B
:101B50000995C60CD71CB60161507109E881F9815D
:101B60000088F189E02D9401A501CE010995E88155
:101B7000F9810688F789E02DCE01DF91CF911F9181
:101B80000F91FF90EF90DF90CF90BF90AF909F901C
:101B90008F907F906F9009946F927F928F929F9217
:101BA000AF92BF92CF92DF92EF92FF920F931F936B
:101BB000CF93DF935C01EB016A0149013801870192
:101BC000DC01ED91FC916217730719F56416750637
:101BD0002CF0962D872D3A01C92ED82E9601261964
:101BE00037092F5F3F4F048CF58DE02DA301BE0117
:101BF000C5010995DF91CF911F910F91FF90EF9053
:101C0000DF90CF90BF90AF909F908F907F906F901C
:101C100008954615570591F42617370724F0892DA6
:101C20004B01C22FD82F9E01281939092F5F3F4F32
:101C3000068CF78DE02DA601B401DACF0284F3857E
:101C4000E02D0995D501ED91FC910488F589E02DF1
:101C500083019401A601BE01C5010995D501ED914D
:101C6000FC910688F789E02DC501DF91CF911F9186
:101C70000F91FF90EF90DF90CF90BF90AF909F902B
:101C80008F907F906F900994EF92FF920F931F9324
:101C9000DC011A960D911C911B9718962D913C9181
:101CA0001997ED91FC9100A0F1A1E02D7B0150E08E
:101CB00040E070E060E009951F910F91FF90EF9078
:101CC00008954F925F926F927F928F929F92AF9200
:101CD000BF92CF92DF92EF92FF920F931F93CF9319
:101CE000DF936C012B015A0139014801DC01ED91B0
:101CF000FC910284F385E02D0995E201640C751CCA
:101D0000D601ED91FC91C615D7055CF40088F189E8
:101D1000E02D87019401A501BE01C6010995219618
:101D2000EFCF0688F789E02DC601DF91CF911F9193
:101D30000F91FF90EF90DF90CF90BF90AF909F906A
:101D40008F907F906F905F904F9009948F929F92A9
:101D5000AF92BF92CF92DF92EF92FF920F931F93B9
:101D6000CF93DF93EC015B014A016901E881F981BE
:101D70000284F385E02D099595012C0D3D1D215020
:101D80003109E881F9810488F589E02D7801840121
:101D9000A401B501CE010995E881F9810688F7898A
:101DA000E02DCE01DF91CF911F910F91FF90EF9029
:101DB000DF90CF90BF90AF909F908F9009948F92BB
:101DC0009F92AF92BF92CF92DF92EF92FF920F93CA
:101DD0001F93CF93DF93EC015B014A016901780106
:101DE000E881F9810284F385E02D0995C80CD91C9E
:101DF000860101501109E881F9810488F589E02DF7
:101E00009501A401B501CE010995E881F981068803
:101E1000F789E02DCE01DF91CF911F910F91FF90B7
:101E2000EF90DF90CF90BF90AF909F908F900994EC
:101E30000895EF92FF920F931F93DC01ED91FC91B7
:101E400000A0F1A1E02D09951F910F91FF90EF9057
:101E500008950F931F93DC01ED91FC91068CF78D93
:101E6000E02D09951F910F9108950F931F93DC01A9
:101E7000ED91FC91048CF58DE02D09951F910F914A
:101E80000895DC01ED91FC910084F185E02D099429
:101E90002F923F924F925F926F927F928F929F927A
:101EA000AF92BF92CF92DF92EF92FF920F931F9368
:101EB000CF93DF9300D000D000D0CDB7DEB73C0188
:101EC0006A013E832D83FC82EB825801A41AB50A75
:101ED000B7FE03C0B194A194B1088D809E80861A8C
:101EE000970A97FE03C09194819491088A149B04E9
:101EF0005CF0902F812F0D811E819D838E839C2D00
:101F00008D2D6B01692F782F0C151D055CF09D81BF
:101F10008E817E836D83692F782F902F812F86018C
:101F2000C92ED82E1601201A310A2B012D813E818F
:101F3000421A530A57FE03C051944194510871014B
:101F400037FE03C03FEFE31AF30AF594E7948D815F
:101F50009E81861797075CF5A1E0B0E0BA83A9835C
:101F6000C016D1064CF1D301ED91FC910484F585A6
:101F7000E02D2B813C81A8016D817E818A149B0418
:101F80001CF04D815E81B801C3010995E418F50884
:101F9000F7FE0AC02D813E8189819A81280F391F61
:101FA0003E832D83E20CF31C0F5F1F4FD9CF2FEF21
:101FB0003FEF3A832983D4CF26960FB6F894DEBF3D
:101FC0000FBECDBFDF91CF911F910F91FF90EF908A
:101FD000DF90CF90BF90AF909F908F907F906F9049
:101FE0005F904F903F902F900895089590E080E08B
:101FF00008954F925F926F927F928F929F92AF92CD
:10200000BF92CF92DF92EF92FF926B017C0120E0B2
:1020100030E0A9010E94881587FF04C0F7FAF09408
:10202000F7F8F09480900D0490900E04A0900F04A7
:10203000B0901004A7019601C501B4010E94881553
:10204000882309F458C06091210470912204809182
:102050002304909124040E948F152B013C01A701B9
:102060009601C501B4010E9497179B01AC01C30101
:10207000B2010E94EE150E9409186093210470932A
:1020800022048093230490932404A701960160E026
:1020900070E080E090E40E9497170E944A1826E5BD
:1020A0003EE04DE25FE30E94EE1520E034E244E7BB
:1020B00059E40E94EE1560932504709326048093E2
:1020C000270490932804C0920D04D0920E04E0924D
:1020D0000F04F09210048DEE93E0FF90EF90DF90EC
:1020E000CF90BF90AF909F908F907F906F905F90B8
:1020F0004F900C949A07FF90EF90DF90CF90BF9095
:10210000AF909F908F907F906F905F904F900895C9
:1021100042E050E060E573E08BE993E00C947104D9
:10212000FA01ABE9B3E01D969C938E931C971F9622
:102130007C936E931E974481558160817181CD019E
:102140000E9471040E9488100C94E109FC018081B6
:102150009181009711F00C943B1908950C943B1950
:102160000E94811A0F931F93CF93DF93EC01888114
:102170009981009759F02A813B812617370730F063
:1021800081E0DF91CF911F910F9108958B016F5FD7
:102190007F4F0E94C419009759F0998388831B834D
:1021A0000A832C813D81232B59F7FC011082E8CF53
:1021B00080E0E7CFEF92FF920F931F93CF93DF93CF
:1021C000EC017B018A01BA010E94B2102881398199
:1021D000811114C02115310519F0C9010E943B1964
:1021E000198218821D821C821B821A82CE01DF9105
:1021F000CF911F910F91FF90EF9008951D830C8355
:10220000B701C9010E948F1AF1CF1F920F920FB62A
:102210000F9211242F933F938F939F93AF93BF936C
:102220008091940390919503A0919603B0919703A8
:1022300030918F0323E0230F2D3758F50196A11D10
:10224000B11D20938F038093940390939503A093E3
:102250009603B09397038091900390919103A0917E
:102260009203B09193030196A11DB11D8093900339
:1022700090939103A0939203B0939303BF91AF9176
:102280009F918F913F912F910F900FBE0F901F90B4
:10229000189526E8230F0296A11DB11DD2CFCF922B
:1022A000DF92EF92FF9283E5809398031092990357
:1022B00010929E0310929D0324E530E03093A0031A
:1022C00020939F0380E390E09093A2038093A10367
:1022D0003093A4032093A3039093A6038093A503B4
:1022E0001092B1031092A8031092A7031092AA03B0
:1022F0001092A90381E08093B0038093AF032FEF86
:102300003FEF3093AE032093AD033093AC032093A3
:10231000AB038093B2031092B3031092B5031092F3
:10232000B40322E033E030939C0320939B039FEFA0
:102330009093B6039093B70322E02093B80324E070
:102340002093B90333E03093BA034AE953E0509342
:10235000C8034093C70344E353E05093EE03409314
:10236000ED038093F4031092FD031092FE0310928C
:10237000FF031092000410920104109202041092C4
:1023800003041092040410920504109206041092A3
:102390000704109208041092090410920A04109283
:1023A0000B0410920C0410920D0410920E04109263
:1023B0000F0410921004C12CD12C80E8E82E8FE37A
:1023C000F82EC0921104D0921204E0921304F092FD
:1023D00014041092F0031092F1031092F203109281
:1023E000F30341E050E050931A0440931904909392
:1023F0001C041092150410921604109217041092E7
:1024000018048AE08093F50389E08093F603209313
:10241000F70385E08093F80310921B0410922104C7
:102420001092220410922304109224041092250486
:102430001092260410922704109228041092290466
:1024400010922A0410922B0410922C04C0922D0496
:10245000D0922E04E0922F04F09230041092EF03F9
:102460001092F9031092FA031092FB031092FC03EE
:102470008DEE93E00E942105C701B6010E94F90F7D
:10248000A70196016091090470910A0480910B04E0
:1024900090910C040E948815882319F1C0920904B8
:1024A000D0920A04E0920B04F0920C0480E094E2D3
:1024B000A4E7B9E480932D0490932E04A0932F04F5
:1024C000B09330048091210490912204A0912304C0
:1024D000B0912404181619061A061B0614F40E945B
:1024E000F3081092E3031092E6032EE233E03093F8
:1024F000E2032093E1031092E90386E08093EA036C
:1025000081E08093EB038093EC031092D703109249
:10251000DA033093D6032093D5031092DD0397E0BE
:102520009093DE038093DF038093E0031092CB034C
:102530001092CE033093CA032093C9031092D103A3
:1025400098E09093D2038093D3038093D403FF90B9
:10255000EF90DF90CF900895CF93DF9300D000D01D
:1025600000D0CDB7DEB7789484B5826084BD84B5E1
:10257000816084BD85B5826085BD85B5816085BD7E
:1025800080916E00816080936E0010928100809136
:1025900081008260809381008091810081608093BE
:1025A0008100809180008160809380008091B100E3
:1025B00084608093B1008091B00081608093B0000E
:1025C00080917A00846080937A0080917A008260A2
:1025D00080937A0080917A00816080937A00809164
:1025E0007A00806880937A001092C10020E030E089
:1025F0004AE754E46091090470910A0480910B0445
:1026000090910C040E948815882319F180E090E0D5
:10261000AAE7B4E48093090490930A04A0930B04FE
:10262000B0930C0480932D0490932E04A0932F0458
:10263000B09330048091210490912204A09123044E
:10264000B0912404181619061A061B0614F40E94E9
:10265000F30860E070E080EF91E40E94F90F8BE9ED
:1026600093E00E942309882309F462C11FB7F894FC
:1026700080918E03811127C0E0E9F5E08491E4EABE
:10268000F5E09491E82FF0E0EE0FFF1FEE58FA4FBF
:10269000A591B491EC91E92321F461E08AE00E94D4
:1026A000B00361E08AE00E94DE038CB580618CBDDE
:1026B0008CB580648CBD61E08DE00E94DE0361E03A
:1026C0008BE00E94DE0380918E038F5F80938E03E8
:1026D0001FBF8CB58C7F8CBD8DB58E7F8DBD8CB5AD
:1026E000837F8CBD8CB58F7D8CBD8091BA03082E05
:1026F000000C990BFC01EA57FA4FE491F0E0EE0F61
:10270000FF1FE458FA4F259134913093C203209370
:10271000C103FC01E656FA4FE491E093C5038091B2
:10272000B803082E000C990BFC01EA57FA4FE4910C
:10273000F0E0EE0FFF1FE458FA4F259134913093EB
:10274000C0032093BF03FC01E656FA4FE491E093E7
:10275000C60361E08091B8030E94DE038091B90353
:1027600018161CF461E00E94DE038091BA0318166B
:102770001CF461E00E94DE038091B903181674F422
:1027800060E00E94B00364EF71E080E090E00E949E
:102790003F0461E08091B9030E94B0038BE993E0AC
:1027A0000E942309882331F0809198039091990326
:1027B0000E94DE0961E28BE993E00E94620964E114
:1027C0008BE993E00E94620968EA8BE993E00E943A
:1027D000620960E28BE993E00E9462096CE08BE998
:1027E00093E00E9462090E94E1098BE993E00E9454
:1027F0002309882331F080919803909199030E94D6
:10280000DE0961E28BE993E00E94620962EB8BE9E9
:1028100093E00E94620960E28BE993E00E94620902
:1028200081E08093AF038093B00381E090E09093C8
:10283000AE038093AD039093AC038093AB034AE067
:1028400050E063E573E08BE993E00E9471040E941D
:1028500088108BEC97E00197F1F7E0E0F1E088EF6A
:1028600091E0DF019C011D9221503040E1F7109270
:10287000A8031092A7031092AA031092A9031A8228
:1028800019821C821B821E821D826DE070E0CE01C7
:1028900001960E94B21029813A81811188C02115C8
:1028A000310519F0C9010E943B191A8219821E8252
:1028B0001D821C821B82AE014F5F5F4F70E060E0A3
:1028C00090E080E00E949010CE0101960E94A61038
:1028D000EE24E394F12C0AE010E028E730E04AE02F
:1028E00050E070E060E08BE993E00E94CC0D0E9424
:1028F000E10981EE93E00E94DF04811162C020E0D3
:1029000030E048E452E4609105047091060480913F
:102910000704909108040E948815882331F060E034
:1029200070E088E492E40E940C030E943407E1CF37
:1029300061E08091B6030E94DE0361E08091B703FD
:102940000E94DE038091B703082E000C990BFC0156
:10295000EA57FA4FE491F0E0EE0FFF1FE458FA4F08
:10296000259134913093BE032093BD03FC01E656BC
:10297000FA4FE491E093C4038091B603082E000C53
:10298000990BFC01EA57FA4FE491F0E0EE0FFF1FBC
:10299000E458FA4F259134913093BC032093BB0344
:1029A000FC01E656FA4FE491E093C3039ECE8DE01E
:1029B00090E09E838D836EE573E0C9010E948F1ABB
:1029C0007ACF1A8219821C821B821E821D824FE0DE
:1029D00050E06CE673E0CE0101960E94DA10AE0181
:1029E0004F5F5F4F6AE070E081E090E00E949010DE
:1029F000CE0101960E94A61068EE73E080E090E0A0
:102A00000E943F041A8219821C821B821E821D8230
:102A100041E150E06CE773E0CE0101960E94DA10CC
:102A2000AE014F5F5F4F6AE070E081E090E00E948E
:102A30009010CE0101960E94A61089EC93E00E94AE
:102A40009E048823D1F36AE070E080E090E00E9469
:102A50003F0489EC93E00E949E04882371F389EC83
:102A600093E00E949E048111FACF6AE070E080E05A
:102A700090E00E943F0489EC93E00E949E04811143
:102A8000EECF00E010E085ED93E00E94DF048111BD
:102A900019C020E030E048E453EC609105047091E7
:102AA000060480910704909108040E9488158823E9
:102AB00031F060E070E088E493EC0E940C030E9427
:102AC0003407E1CF81EE93E00E94DF04811119C049
:102AD00020E030E048E453E460910504709106047E
:102AE00080910704909108040E948815882331F092
:102AF00060E070E088E493E40E940C030E943407D5
:102B0000E1CF0115110509F4BECF0E940000BBCF33
:102B10000E94CA1508F481E00895E89409C097FB63
:102B20003EF490958095709561957F4F8F4F9F4FA4
:102B30009923A9F0F92F96E9BB279395F6958795E8
:102B400077956795B795F111F8CFFAF4BB0F11F4AB
:102B500060FF1BC06F5F7F4F8F4F9F4F16C0882352
:102B600011F096E911C0772321F09EE8872F762F88
:102B700005C0662371F096E8862F70E060E02AF0C9
:102B80009A95660F771F881FDAF7880F96958795B5
:102B900097F90895990F0008550FAA0BE0E8FEEF8A
:102BA00016161706E807F907C0F012161306E40711
:102BB000F50798F0621B730B840B950B39F40A260A
:102BC00061F0232B242B252B21F408950A2609F4E8
:102BD000A140A6958FEF811D811D08950E940116C9
:102BE0000C9472160E94641638F00E946B1620F046
:102BF000952311F00C945B160C94611611240C941F
:102C0000A6160E94831670F3959FC1F3950F50E0AE
:102C1000551F629FF001729FBB27F00DB11D639F8E
:102C2000AA27F00DB11DAA1F649F6627B00DA11D34
:102C3000661F829F2227B00DA11D621F739FB00DDA
:102C4000A11D621F839FA00D611D221F749F33274A
:102C5000A00D611D231F849F600D211D822F762FE3
:102C60006A2F11249F5750409AF0F1F088234AF0C0
:102C7000EE0FFF1FBB1F661F771F881F915050402C
:102C8000A9F79E3F510580F00C945B160C94A61694
:102C90005F3FE4F3983ED4F3869577956795B795B3
:102CA000F795E7959F5FC1F7FE2B880F911D9695CD
:102CB000879597F9089597F99F6780E870E060E03D
:102CC00008959FEF80EC089500240A9416161706C5
:102CD00018060906089500240A941216130614060D
:102CE00005060895092E0394000C11F4882352F070
:102CF000BB0F40F4BF2B11F460FF04C06F5F7F4F28
:102D00008F4F9F4F089557FD9058440F551F59F00E
:102D10005F3F71F04795880F97FB991F61F09F3FC8
:102D200079F087950895121613061406551FF2CFF1
:102D30004695F1DF08C0161617061806991FF1CF41
:102D400086957105610508940895E894BB27662768
:102D50007727CB0197F908952F923F924F925F9278
:102D60006F927F928F929F92AF92BF92CF92DF929B
:102D7000EF92FF920F931F93CF93DF93CDB7DEB700
:102D8000CA1BDB0B0FB6F894DEBF0FBECDBF099494
:102D90002A88398848885F846E847D848C849B84EB
:102DA000AA84B984C884DF80EE80FD800C811B81F9
:102DB000AA81B981CE0FD11D0FB6F894DEBF0FBE28
:102DC000CDBFED010895052E97FB1EF400940E94DF
:102DD000FA1657FD07D00E94081707FC03D04EF4DF
:102DE0000C94FA1650954095309521953F4F4F4FD2
:102DF0005F4F089590958095709561957F4F8F4FA7
:102E00009F4F0895EE0FFF1F0590F491E02D099458
:102E1000A1E21A2EAA1BBB1BFD010DC0AA1FBB1FDE
:102E2000EE1FFF1FA217B307E407F50720F0A21B50
:102E3000B30BE40BF50B661F771F881F991F1A94BD
:102E400069F760957095809590959B01AC01BD01E7
:102E5000CF0108955058BB27AA270E9442170C940F
:102E600072160E94641638F00E946B1620F039F436
:102E70009F3F19F426F40C9461160EF4E095E7FBDD
:102E80000C945B16E92F0E94831658F3BA17620759
:102E900073078407950720F079F4A6F50C94A5161E
:102EA0000EF4E0950B2EBA2FA02D0B01B901900165
:102EB0000C01CA01A0011124FF27591B99F0593FA9
:102EC00050F4503E68F11A16F040A22F232F342FF1
:102ED0004427585FF3CF469537952795A795F0403F
:102EE0005395C9F77EF41F16BA0B620B730B840B54
:102EF000BAF09150A1F0FF0FBB1F661F771F881F0C
:102F0000C2F70EC0BA0F621F731F841F48F4879563
:102F100077956795B795F7959E3F08F0B0CF939555
:102F2000880F08F09927EE0F9795879508950E94CE
:102F3000AB170C9472160E946B1658F00E94641620
:102F400040F029F45F3F29F00C945B1651110C946A
:102F5000A6160C9461160E94831668F39923B1F3A8
:102F6000552391F3951B550BBB27AA2762177307AF
:102F7000840738F09F5F5F4F220F331F441FAA1F43
:102F8000A9F335D00E2E3AF0E0E832D091505040FF
:102F9000E695001CCAF72BD0FE2F29D0660F771FAD
:102FA000881FBB1F261737074807AB07B0E809F093
:102FB000BB0B802DBF01FF2793585F4F3AF09E3F18
:102FC000510578F00C945B160C94A6165F3FE4F361
:102FD000983ED4F3869577956795B795F7959F5F5B
:102FE000C9F7880F911D9695879597F90895E1E0A7
:102FF000660F771F881FBB1F621773078407BA0706
:1030000020F0621B730B840BBA0BEE1F88F7E09560
:1030100008950E9410186894B1110C94A616089592
:103020000E948B1688F09F5798F0B92F9927B751B7
:10303000B0F0E1F0660F771F881F991F1AF0BA955C
:10304000C9F714C0B13091F00E94A516B1E00895FF
:103050000C94A516672F782F8827B85F39F0B93FF1
:10306000CCF3869577956795B395D9F73EF490950F
:103070008095709561957F4F8F4F9F4F08950E9467
:10308000CA1508F48FEF089519F416F40C9461161C
:103090000C948A180E948B16B8F39923C9F3B6F3DF
:1030A0009F57550B87FF0E9498180024A0E640EA1E
:1030B000900180585695979528F4805C660F771F8D
:1030C000881F20F026173707480730F4621B730B60
:1030D000840B202931294A2BA69517940794202583
:1030E00031254A2758F7660F771F881F20F02617CB
:1030F0003707480730F4620B730B840B200D311D2A
:10310000411DA09581F7B901842F9158880F96959C
:10311000879508959F3F31F0915020F487957795DA
:103120006795B795880F911D9695879597F908959E
:1031300091505040660F771F881FD2F708950F9364
:103140001F93CF93DF938230910510F482E090E0DB
:10315000E0913304F091340430E020E0B0E0A0E0EE
:10316000309799F42115310509F44AC0281B390B11
:1031700024303105D8F58A819B816115710589F16B
:10318000FB0193838283FE0111C040815181028142
:10319000138148175907E0F04817590799F4109719
:1031A00061F012960C93129713961C933296CF01EE
:1031B000DF91CF911F910F910895009333041093E5
:1031C0003404F4CF2115310551F04217530738F07C
:1031D000A901DB019A01BD01DF01F801C1CFEF01B7
:1031E000F9CF9093340480933304CDCFFE01E20FE6
:1031F000F31F819391932250310939832883D7CFCC
:103200002091310430913204232B41F42091FA02B1
:103210003091FB0230933204209331042091F80264
:103220003091F9022115310541F42DB73EB7409197
:10323000FC025091FD02241B350BE0913104F0910A
:103240003204E217F307A0F42E1B3F0B28173907AF
:1032500078F0AC014E5F5F4F2417350748F04E0FF2
:103260005F1F5093320440933104819391939FCF19
:10327000F0E0E0E09CCFCF93DF930097E9F0FC0112
:10328000329713821282A0913304B0913404ED017D
:1032900030E020E01097A1F420813181820F931F4C
:1032A00020913104309132042817390709F061C0A8
:1032B000F0933204E0933104DF91CF910895EA0155
:1032C000CE17DF07E8F54A815B819E014115510564
:1032D000B1F7E901FB83EA8349915991C40FD51FE6
:1032E000EC17FD0761F4808191810296840F951F90
:1032F000E90199838883828193819B838A83F0E0AB
:10330000E0E012968D919C9113970097B9F52D915D
:103310003C911197CD010296820F931F20913104A9
:10332000309132042817390739F6309751F5109249
:10333000340410923304B0933204A0933104BCCF10
:10334000D383C28340815181840F951FC817D90749
:1033500061F44E5F5F4F88819981480F591F5183F7
:1033600040838A819B81938382832115310509F0F3
:10337000B0CFF0933404E09333049ECFFD01DC0121
:10338000C0CF13821282D7CFB0E0A0E0EAECF9E11F
:103390000C94AE168C01009751F4CB010E949F183B
:1033A0008C01C801CDB7DEB7E0E10C94CA16FC0170
:1033B000E60FF71F9C0122503109E217F30708F4CA
:1033C0009DC0D901CD91DC911197C617D70798F010
:1033D000C530D10530F3CE0104978617970708F35F
:1033E000C61BD70B2297C193D1936D937C93CF01CA
:1033F0000E943B19D6CF5B01AC1ABD0A4C018C0E62
:103400009D1EA0913304B0913404512C412CF12C19
:10341000E12C109731F58091310490913204881598
:10342000990509F05CC04616570608F058C080910F
:10343000F8029091F902009741F48DB79EB7409140
:10344000FC025091FD02841B950BE817F90708F068
:1034500055C0F0933204E0933104F9017183608325
:10346000A0CF8D919C91119712966C901297139604
:103470007C901397A815B90559F56C0142E0C40E6C
:10348000D11CCA14DB0420F1AC014A195B09DA0132
:103490001296159780F06282738251834083D9011E
:1034A0006D937C93E114F10471F0D7011396FC93B2
:1034B000EE93129776CF22968C0F9D1FF901918380
:1034C0008083F301EFCFF0933404E093330469CFAA
:1034D0004816590608F42C017D01D3019ACFCB017F
:1034E0000E949F187C01009749F0AE01B8010E942C
:1034F000861AC8010E943B19870153CF10E000E0F3
:1035000050CF81E090E0F8940C94961AFB01DC0116
:1035100002C001900D9241505040D8F70895FB0130
:10352000DC0101900D920020E1F70895F894FFCF9F
:10353000000000000000000000000000000000008B
:10354000000000000000000000000000000000007B
:10355000000000000000C0E0F0F8FCFCFEFFFCE012
:10356000000000000000000000000000000000005B
:10357000000000000000000000000000000000004B
:10358000000000000000000000000000000000003B
:103590000000000000F8F8F8F8F8F8F8F8F8F8F883
:1035A000F8F0F0E0E0C080C0FCFFFFFFFF7F3F7F4E
:1035B000FFFFFFFFFF000000000000000000000010
:1035C00000000000000000000000000000000000FB
:1035D00000000000000000000000000000000000EB
:1035E000000000000000000000000F1F3F7FFFFFF1
:1035F000FFFFFFFFFFFFE7C7C7878F9F9FFFFFFF0B
:10360000C1C0E0FCFFFFFFFFFFFCFCFCFCFEFEFE78
:10361000FCFCF8F8F0E0C0C0000000000000000072
:10362000000000000000000000000000000000009A
:10363000000000000000000000000000000000008A
:103640000080C0E0F1FBFFFFFFFFFF7F1F0F0F8730
:10365000E7FFFFFF1F1F3FF9F8F8F8F8F8F8FDFF44
:10366000FFFFFFFFFFFFFFFF7F3F0F07010000008D
:10367000000000000000000000000000000000004A
:10368000000000000000000000000000000000003A
:10369000000000F0FEFFFFFFFFFFFFFFFFFFFFFE48
:1036A0007E3F3F0F1FFFFFFFFCF0E0F1FFFFFFFF3A
:1036B000FFFCF00101010101010101000000000017
:1036C00000000000000000000000000000000000FA
:1036D00000000000000000000000000000000000EA
:1036E00000000000000000030303030303030301C1
:1036F00001010100000000000000030F1F3F7F7F59
:10370000FFFFFFFF7F7F1F0300000000000000009D
:1037100000000000000000000000000000000000A9
:1037200000000000000000000000350480000000E0
:1037300000009B0C7104F60FF50F8509180F410F5F
:10374000190F350F290F480F180F610A440ADF0EB1
:10375000A60E610E440ECC0D6D0D000000009E04FF
:1037600000000000550521052209AE109A07B60693
:10377000F406A0066E064D061906F805A2057305A7
:103780000D0A00696E6974206F6B2E2E2E00524553
:103790004D454459205348414B455200494E4954E8
:1037A00020434F4D504C415445442E0057414954FD
:0E37B000494E4720464F522053544152540078
:00000001FF
