:100000000C9454050C947C050C947C050C947C0594
:100010000C947C050C947C050C947C050C947C055C
:100020000C947C050C947C050C947C050C947C054C
:100030000C947C050C947C050C947C050C947C053C
:100040000C94D81A0C947C050C94481B0C94221B1D
:100050000C947C050C947C050C947C050C947C051C
:100060000C947A1B0C947C0500000000003E5B4F52
:100070005B3E3E6B4F6B3E1C3E7C3E1C183C7E3C08
:10008000181C577D571C1C5E7F5E1C00183C180016
:10009000FFE7C3E7FF0018241800FFE7DBE7FF30A6
:1000A000483A060E2629792926407F050507407F14
:1000B00005253F5A3CE73C5A7F3E1C1C08081C1C87
:1000C0003E7F14227F22145F5F005F5F06097F017D
:1000D0007F006689956A606060606094A2FFA29468
:1000E00008047E040810207E201008082A1C080836
:1000F0001C2A08081E101010100C1E0C1E0C303884
:100100003E3830060E3E0E06000000000000005F84
:1001100000000007000700147F147F14242A7F2AA0
:100120001223130864623649562050000807030062
:10013000001C2241000041221C002A1C7F1C2A08AE
:10014000083E080800807030000808080808000011
:1001500060600020100804023E5149453E00427F85
:10016000400072494949462141494D331814127FD4
:100170001027454545393C4A494931412111090774
:100180003649494936464949291E000014000000F5
:1001900040340000000814224114141414140041C7
:1001A00022140802015909063E415D594E7C121184
:1001B000127C7F494949363E414141227F414141BC
:1001C0003E7F494949417F090909013E4141517337
:1001D0007F0808087F00417F41002040413F017FA8
:1001E000081422417F404040407F021C027F7F0470
:1001F00008107F3E4141413E7F090909063E4151B9
:10020000215E7F09192946264949493203017F01A8
:10021000033F4040403F1F2040201F3F4038403FA9
:10022000631408146303047804036159494D4300BF
:100230007F4141410204081020004141417F0402F6
:10024000010204404040404000030708002054548D
:1002500078407F284444383844444428384444286B
:100260007F385454541800087E090218A4A49C78BE
:100270007F0804047800447D40002040403D007F1A
:100280001028440000417F40007C047804787C08FA
:100290000404783844444438FC18242418182424CE
:1002A00018FC7C08040408485454542404043F44B3
:1002B000243C4040207C1C2040201C3C4030403CE2
:1002C00044281028444C9090907C4464544C440042
:1002D00008364100000077000000413608000201A6
:1002E0000204023C2623263C1EA1A161123A404092
:1002F000207A38545455592155557941225454780F
:1003000042215554784020545579400C1E527212A7
:100310003955555559395454545939555454580030
:1003200000457C410002457D420001457C407D1234
:1003300011127DF0282528F07C5455450020545496
:100340007C547C0A097F4932494949323A44444441
:100350003A324A4848303A4141217A3A424020787C
:10036000009DA0A07D3D4242423D3D4040403D3C7D
:1003700024FF2424487E4943662B2FFC2F2BFF09A2
:1003800029F620C0887E0903205454794100004496
:100390007D413048484A32384040227A007A0A0A81
:1003A000727D0D19317D2629292F282629292926F4
:1003B00030484D4020380808080808080808382F39
:1003C00010C8ACBA2F102834FA00007B00000814C3
:1003D0002A142222142A14085500550055AA55AA99
:1003E00055AAFF55FF55FF000000FF00101010FF39
:1003F00000141414FF001010FF00FF1010F010F094
:10040000141414FC001414F700FF0000FF00FF1484
:1004100014F404FC141417101F10101F101F1414D0
:10042000141F00101010F0000000001F101010101A
:100430001F10101010F010000000FF10101010100E
:1004400010101010FF10000000FF140000FF00FF4C
:1004500000001F10170000FC04F4141417101714E8
:1004600014F404F40000FF00F7141414141414140A
:10047000F700F7141414171410101F101F1414147D
:10048000F4141010F010F000001F101F0000001FE7
:1004900014000000FC140000F010F01010FF10FF1A
:1004A000141414FF141010101F00000000F010FFAF
:1004B000FFFFFFFFF0F0F0F0F0FFFFFF0000000093
:1004C00000FFFF0F0F0F0F0F3844443844FC4A4A17
:1004D0004A347E02020606027E027E0263554941CC
:1004E000633844443C04407E201E2006027E020203
:1004F00099A5E7A5991C2A492A1C4C7201724C3017
:100500004A4D4D303048784830BC625A463D3E49ED
:100510004949007E0101017E2A2A2A2A2A44445F91
:10052000444440514A444040444A51400000FF0185
:1005300003E080FF000008086B6B08361236243693
:10054000060F090F060000181800000010100030F8
:1005500040FF0101001F01011E00191D1712003C80
:100560003C3C3C0000000000000103070F1F3F7FE0
:100570000080C0E0F0F8FCFEDB40A4A62EAF200017
:10058000A1C8D300408DAED580A800006000000057
:100590000000000000000000000000E0000000007B
:1005A00000000000000000000001E000000000006A
:1005B000000000000000000001F00000000000004A
:1005C0000000000000000003F00000000000000038
:1005D00000000000000007F0000000000000000024
:1005E000000000000007F80000000000000000000C
:1005F000000000000FF800000003C0007E000001B2
:10060000E0007F0FF800000003C000FE000001E0E2
:1006100000FFEFF800000003C000FE000001E00052
:10062000FFFFF800000003C000F00000000F007F93
:10063000FE7FC0000003C000F00000000F003FFE7E
:100640007FF83FF1FBCFFCFEF3BC3DEFE01FFE7FE8
:10065000FF7FFBFFDFFEFEFFBC3DEFE01FC6FFFF9D
:100660007FFBFFDFFEFEFFBC3DEFE00FE3C7FE7840
:100670007BC3DE1EF0FFBC3DEF0007FF87FC787BED
:10068000C3DE1EF0F83C3DEF0001FFFFF0007BC32E
:10069000C01EF0F03C3DEF0001F37FE03FFBC3CF15
:1006A000FEF0F03C3DEF0003E33F807FFBC3DFFE45
:1006B000F0F03C3DEF0007E73C00787BC3DE1EF026
:1006C000F03C3DEF0007FFBE00787BC3DE1EF0F07C
:1006D0003C3DEF0007FFFE00787BC3DE1EF0F03CE0
:1006E0003DEF000FFFFE007FFBFFDFFEF0F03FFD60
:1006F000EFE00FFFFF007FFBFFDFFEF0F03FFDEFBD
:10070000E00FF9FF003E79F9CF9EF0F01F3DE7E0E2
:100710001FF1FF0000000000000000000000001FAB
:1007200080FF007FFFFFFFFFFFFFFFFFFFE01C00D8
:100730007F007FFFFFFFFEB46D888D18E000001F73
:10074000007FFFFFFFFE95AD7DB577E000000F0055
:100750007FFFFFFFFEA5AD9D8D19E0000006007F25
:10076000FFFFFFFEB5ADEDB57EE00000000000012B
:100770008000000000000000000003800000000076
:10078000000000000007C0000000000000000000A2
:1007900007C00000000000000000000FC0000000C3
:1007A0000000000000001FE000000000000000004A
:1007B000001FE00000000000000000003FE000001B
:1007C000000000000000003FF000000000000000FA
:1007D00000007FF0000000000000001FF87FF00024
:1007E0000000000000003FFE7FF00000000000005D
:1007F000003FFF7FF0000000000000001FFFFBE053
:10080000000000000000000FFFF9FFC00000000022
:1008100000000FFFF9FFF800000000000007FFF1E3
:10082000FFFF00000000000003FC73FFFF800000DA
:1008300000000001FE3FFFFF80000000000000FFFD
:100840001E0FFF000000000000007FFE1FFC0000E4
:1008500000000000003FFFFFF80000000000000063
:100860000FDFFFE0000000000000001F19FFC000C4
:100870000000000000003F3CFF00000000000000FE
:10088000007E7CF800000000000000007FFE7C007D
:1008900000000000000000FFFFFC0000000000005E
:1008A0000000FFFFFE0000000000000000FFFFFE50
:1008B0000000000000000001FFEFFE00000000004B
:1008C000000001FFCFFE0000000000000003FF0752
:1008D000FE0000000000000003FC07FE0000000016
:1008E00000000003F003FE00000000000000018093
:1008F00000FE000000000000000000007E0000007C
:10090000000000000000003E0000000000000000A9
:1009100000000C000000000000078000FC00000345
:10092000C0000000078001FC000003C000000007B9
:100930008001FC000003C0000000078001E000000F
:10094000001E000000078001E00000001E007FE3A1
:10095000F79FF9FDE7787BDFC0FFF7FFBFFDFDFFE5
:10096000787BDFC0FFF7FFBFFDFDFF787BDFC0F0C6
:10097000F787BC3DE1FF787BDE00F0F787BC3DE107
:10098000F0787BDE0000F787803DE1E0787BDE00D9
:100990007FF7879FFDE1E0787BDE00FFF787BFFDF3
:1009A000E1E0787BDE00F0F787BC3DE1E0787BDEBC
:1009B00000F0F787BC3DE1E0787BDE00F0F787BC14
:1009C0003DE1E0787BDE00FFF7FFBFFDE1E07FFB6C
:1009D000DFC0FFF7FFBFFDE1E07FFBDFC07CF3F38B
:1009E0009F3DE1E03E7BCFC0000000000000000022
:1009F000000000FFFFFFFFFFFFFFFFFFFFC0FFFF43
:100A0000FFFFFD68DB111A31C0FFFFFFFFFD2B5A0E
:100A1000FB6AEFC0FFFFFFFFFD4B5B3B1A33C0FFDC
:100A2000FFFFFFFD6B5BDB6AFDC053534431333086
:100A30003620616C6C6F636174696F6E20666169EA
:100A40006C65640000000000240027002A000000FC
:100A50000000250028002B000000000023002600D5
:100A60002900040404040404040402020202020231
:100A70000303030303030102040810204080010262
:100A800004081020010204081020000000080002E1
:100A90000100000304070000000000000000220025
:100AA000FF210000991C562311241FBECFEFD8E070
:100AB000DEBFCDBF11E0A0E0B1E0E6E0FFE402C0A0
:100AC00005900D92A43DB107D9F724E0A4EDB1E063
:100AD00001C01D92A035B207E1F715E0C3E5D5E0EE
:100AE00004C02197FE010E94A623C235D107C9F791
:100AF0000E94A21E0C9476270C9400008F929F9265
:100B0000AF92BF92CF92DF92EF92FF920F931F931B
:100B1000CF93DF938B01D82FC92F8090D80390906B
:100B2000D903A090DA03B090DB0375016401F7FAF2
:100B3000F094F7F8F0949B01482F592FC701B601A4
:100B40000E947825181674F098014D2F5C2FC5016E
:100B5000B4010E9419247501640187FD03C0680176
:100B6000ED2EFC2E20E030E0A901C701B6010E9465
:100B7000192481111DC01092BF031092C00310925E
:100B8000C1031092C203C092D403D092D503E09265
:100B9000D603F092D703DF91CF911F910F91FF9071
:100BA000EF90DF90CF90BF90AF909F908F9008957F
:100BB000A701960160E074E284E799E40E941E2494
:100BC0009F770E9497246093BF037093C003809324
:100BD000C1039093C203C1E020E030E0A901C70146
:100BE000B6010E94782518160CF0C0E0C093BE0331
:100BF000CACF96E0899FD0011124AB5CBC4F909680
:100C00007C936E935F9791E091969C939197E0917E
:100C1000A203F091A3039091A103992339F0309797
:100C200051F0811108C0809151030994309719F057
:100C30005C968C91FACF08950895833081F028F462
:100C4000813099F08230A9F008958730A9F088307A
:100C5000C9F08430B1F4809180008F7D03C0809111
:100C600080008F7780938000089584B58F7784BD4E
:100C7000089584B58F7DFBCF8091B0008F778093EE
:100C8000B00008958091B0008F7DF9CFCF93DF93AE
:100C9000282F30E0F901E657F54F8491F901EA5821
:100CA000F54FD491F901EE59F54FC491CC23A1F041
:100CB00081110E941D06EC2FF0E0EE0FFF1FE85A95
:100CC000F54FA591B491EC91ED2381E090E009F40A
:100CD00080E0DF91CF91089580E090E0FACF1F93FC
:100CE000CF93DF93282F30E0F901E657F54F849139
:100CF000F901EA58F54FD491F901EE59F54FC49135
:100D0000CC23A9F0162F81110E941D06EC2FF0E0D4
:100D1000EE0FFF1FE25BF54FA591B4918FB7F894EA
:100D2000EC91111108C0D095DE23DC938FBFDF91C9
:100D3000CF911F910895DE2BF8CFCF93DF9390E0F2
:100D4000FC01EA58F54F24918E59954FFC0184918E
:100D50008823C9F090E0880F991FFC01EC5BF54FE8
:100D6000A591B491FC01E25BF54FC591D49161115D
:100D70000DC09FB7F8948C91209582238C93888125
:100D8000282328839FBFDF91CF910895623051F4CB
:100D90009FB7F8943C91822F809583238C93E881B0
:100DA0002E2BEFCF8FB7F894EC912E2B2C938FBF77
:100DB000EACF3FB7F8948091900290919102A09170
:100DC0009202B091930226B5A89B05C02F3F19F05F
:100DD0000196A11DB11D3FBFBA2FA92F982F8827BB
:100DE000BC01CD01620F711D811D911D42E0660F96
:100DF000771F881F991F4A95D1F708958F929F9268
:100E0000AF92BF92CF92DF92EF92FF924B015C01C3
:100E10000E94D9066B017C010E94D9066C197D09DC
:100E20008E099F09683E734081059105A8F321E072
:100E3000821A9108A108B10888EEC80E83E0D81E76
:100E4000E11CF11C81149104A104B10429F7FF9065
:100E5000EF90DF90CF90BF90AF909F908F900895CC
:100E60002FB7F89460918C0270918D0280918E0260
:100E700090918F022FBF08950F931F93CF93DF930D
:100E8000C82FD62F86E0C89FF0011124EB5CFC4FE1
:100E900011A2878D90A181309105F1F058F0823038
:100EA0009105F1F1039709F440C0DF91CF911F91B3
:100EB0000F9108956623C9F361E070E08C2F0E94C2
:100EC000F9050E94300760938D0370938E03809321
:100ED0008F0390939003E9CF0E94300700918D0318
:100EE00010918E0320918F0330919003AB01BC01D0
:100EF000401B510B620B730B80919F039091A003D9
:100F0000B0E0A0E084179507A607B70748F462E0B1
:100F100070E08C2FDF91CF911F910F910C94F90508
:100F200063E070E0D111C1CFF4CF70E060E0F1CFA9
:100F3000862F642F0C949D06862F642F0C946F06C9
:100F4000862F0C94460608950895AF92BF92CF92D3
:100F5000DF92EF92FF920F931F93CF93DF936C0179
:100F60007B018B01040F151FEB015E01AE18BF085A
:100F7000C017D10759F06991D601ED91FC9101900C
:100F8000F081E02DC6010995892B79F7C501DF9124
:100F9000CF911F910F91FF90EF90DF90CF90BF9076
:100FA000AF900895FC01538D448D252F30E0842FA0
:100FB00090E0821B930B541710F0CF960895019781
:100FC0000895FC01918D828D981761F0A28DAE0F6E
:100FD000BF2FB11D5D968C91928D9F5F9F73928FF5
:100FE00090E008958FEF9FEF0895FC01918D828D21
:100FF000981731F0828DE80FF11D858D90E00895EE
:101000008FEF9FEF0895FC01918D228D892F90E045
:10101000805C9F4F821B91098F739927089588E9FF
:1010200092E00E94030821E0892B09F420E0822F3E
:10103000089580E090E0892B29F00E940F0881112B
:101040000C9400000895FC01A48DA80FB92FB11DC8
:10105000A35ABF4F2C91848D90E001968F739927EE
:10106000848FA689B7892C93A089B1898C918370CC
:1010700080648C93938D848D981306C00288F389C5
:10108000E02D80818F7D80830895EF92FF920F93F2
:101090001F93CF93DF93EC0181E0888F9B8D8C8D24
:1010A00098131AC0E889F989808185FF15C09FB718
:1010B000F894EE89FF896083E889F98980818370DB
:1010C000806480839FBF81E090E0DF91CF911F918A
:1010D0000F91FF90EF900895F62E0B8D10E00F5FAB
:1010E0001F4F0F731127E02E8C8D8E110CC00FB681
:1010F00007FCFACFE889F989808185FFF5CFCE0119
:101100000E942308F1CFEB8DEC0FFD2FF11DE35A68
:10111000FF4FF0829FB7F8940B8FEA89FB8980819B
:101120008062CFCFCF93DF93EC01888D8823B9F015
:10113000AA89BB89E889F9898C9185FD03C08081E2
:1011400086FD0DC00FB607FCF7CF8C9185FFF2CF5F
:10115000808185FFEDCFCE010E942308E9CFDF918A
:10116000CF910895EF92FF920F931F93CF93DF9348
:10117000EC01EC80FD806E157F050CF070C057FF10
:1011800004C0240F351F50E040E08E819F81FA019A
:10119000E20FF31F8E179F071CF49C01241B350BD5
:1011A000121613060CF05BC0922F842F869586953D
:1011B00086958E9DD0018F9DB00D11246A0F7B1FE7
:1011C000AF8DB8A1A60FB71F477049F188E0841B07
:1011D000482F682F70E0FB01E059FA4FE49128177F
:1011E00008F063C0621B71092FEF30E002C0359533
:1011F00027956A95E2F7E2230130110539F0B0F145
:101200000230110561F58C91E82702C08C91E82B22
:10121000EC93941720F12C813D81A20FB31FE92F8D
:10122000E41BE83078F00230110521F58E2F9C91F7
:1012300090959C932C813D81A20FB31F88508830DC
:10124000B0F7E770EE2359F0F0E0E859FA4FE49177
:1012500001301105F9F010F10230110519F1DF919B
:10126000CF911F910F91FF90EF900895E0958C9191
:10127000E823CECF81E00115110509F480E08195C6
:101280009E2F8C932C813D81A20FB31F98509830D4
:10129000C0F7D7CF8C91E82BEC93E1CFE0958C9100
:1012A000E823FACF8C91E827F7CF0130110509F434
:1012B000ADCFE0F20230110509F4A5CFAE0DBF1D90
:1012C000AECF0F931F93CF93DF9377FF04C0260F0A
:1012D000371F70E060E0DC011496CD91DC91FB01DA
:1012E000E20FF31FCE17DF071CF49E01261B370BFE
:1012F000121613064CF5FA0157FD3796A3E0F59543
:10130000E795AA95E1F7EC9FD001ED9FB00DFC9F0A
:10131000B00D11246A0F7B1FDC015F96ED91FC91EB
:10132000E60FF71F4770552781E090E001C0880F56
:101330004A95EAF7482F0130110559F0A8F02E0F11
:101340003F1F02301105E1F0DF91CF911F910F9106
:1013500008952E0F3F1FE217F307B1F38191DF01CC
:101360001197842B8C93F7CF80952E0F3F1FE21798
:10137000F30751F39191DF01119798239C93F7CFD5
:10138000E217F30709F38191DF01119784278C930A
:10139000F7CF0F931F93FA01DC0156964C915697A5
:1013A0004230E9F04330A1F1413061F514964D919E
:1013B0005C91DA01AE1BBF0BFD01E21BF30B77FD65
:1013C0000BC0DC0116964D915C916417750724F4EF
:1013D000AB01BF010E9461091F910F9108951496FE
:1013E0004D915C91DA01A61BB70BBD0161507109EB
:1013F000DC0116964D915C91DA01AE1BBF0BFD012D
:10140000E21BF30B77FDE8CFAF010E94B208E4CFF7
:1014100016964D915C91DA01A61BB70BBD01615088
:101420007109CDCF0F931F93FA01DC0156964C91B1
:1014300056974230A9F0433091F1413019F5149696
:101440004D915C91DA01AE1BBF0BFD013197F7FDA9
:1014500004C0AB01BF010E94B2081F910F91089513
:1014600014964D915C91DA01A61BB70BBD01DC010E
:1014700016964D915C91DA01AE1BBF0BFD013197C1
:10148000621B730BF7FDE9CFDC0116964D915C9161
:10149000E417F50714F7AF010E946109DECF169635
:1014A0004D915C91DA01A61BB70BBD01621B730B5A
:1014B000CECFFC0177FD64C08085918568177907E0
:1014C0000CF05EC057FD5CC08285938548175907B4
:1014D0000CF056C086898230B1F0833029F181301A
:1014E00041F484819581841B950BAB01BC01615053
:1014F00071092130310509F108F443C0223031056A
:1015000009F463C0089584819581DC01A61BB70BA3
:10151000BD016150710986819781DC01A41BB50B67
:10152000AD0141505109E5CF86819781861B970B0C
:10153000BA01AC0141505109DCCFCA0157FD0796F1
:10154000A3E095958795AA95E1F7A481B5818A9F37
:1015500090018B9F300D9A9F300D1124620F731FE5
:10156000078CF0A1E02DE60FF71F4770552721E00B
:1015700030E001C0220F4A95EAF78081822B8083F8
:101580000895CA0157FD079633E0959587953A95DA
:10159000E1F7A481B5818A9F90018B9F300D9A9FBE
:1015A000300D1124620F731F078CF0A1E02DE60FA0
:1015B000F71F4770552781E090E001C0880F4A95DA
:1015C000EAF7809590818923DACFCA0157FD079603
:1015D00023E0959587952A95E1F7A481B5818A9FA7
:1015E00090018B9F300D9A9F300D1124620F731F55
:1015F000078CF0A1E02DE60FF71F4770552721E07B
:1016000030E001C0220F4A95EAF780818227B7CFE8
:1016100008958EBD00000DB407FEFDCF8EB5089570
:101620008CBD9DBD08950895FC016370668B848117
:10163000958126813781613039F0633029F09187B7
:101640008087338722870895318720879387828711
:1016500008952F923F924F925F926F927F928F9256
:101660009F92AF92BF92CF92DF92EF92FF920F9331
:101670001F93CF93DF93CDB7DEB76A970FB6F89479
:10168000DEBF0FBECDBF9A8F898F7A8369834A01EF
:10169000D22E18870F833701BC2CDC0159962D916F
:1016A0003C915A972115310509F015C118968D9175
:1016B0009C911997681779070CF0D7C11A968D91EC
:1016C0009C91481759070CF0D0C14C2C512CB6E016
:1016D000CB9E600D711D11247C876B871616170633
:1016E0000CF0C3C1EA2DF0E0FA87E98793E0EE0F32
:1016F000FF1F9A95E1F7F88BEF87CF01840F951FB5
:10170000181619060CF0B1C1A98DBA8D58968C9196
:10171000811104C0BFEABD1508F4D394A98DBA8D18
:10172000ED91FC9111970284F385E02DCD0109958F
:10173000B5E0DB9EC0011124E981FA81FC83EB83D3
:10174000312C212C9C0128593F4F388F2F8B4A2D4B
:1017500050E05E8B4D8BEF89F88DE20DF31D4491C7
:101760009E828D82D12CC12C69817A81620D731D7C
:101770007A8B698B842F90E09C8B8B8BE98DFA8D13
:10178000A081B18140FF82C0F1E0BF126FC0AF12F3
:101790006DC01C96ED91FC912F813885A4014C0DF4
:1017A0005D1D69897A89898D9A8D0995EB89FC89F6
:1017B000F595E7954E2F5FEFC51AD50A6D817E81AD
:1017C0008D899E89680F791F7E836D8398E0C91685
:1017D000D10481F6AFEF2A1A3A0AEB81FC81E40DBD
:1017E000F51DFC83EB83F5E02F16310409F0B3CF30
:1017F0002F81388526153705B9F0A98DBA8DED9161
:10180000FC91B1E0BB1257C0AB1255C069817A811F
:101810006B5F7F4F0088F189E02D830128E030E085
:10182000A401898D9A8D0995A98DBA8DED91FC91B0
:1018300011970688F789E02DCD016A960FB6F894C6
:10184000DEBF0FBECDBFDF91CF911F910F91FF90F3
:10185000EF90DF90CF90BF90AF909F908F907F9050
:101860006F905F904F903F902F9009941E96ED914E
:10187000FC91EF80F88409851A8592014D815E8183
:101880006B817C81898D9A8D099590CF2F813885C8
:101890002615370509F48ACF31E0B31207C0A31229
:1018A00005C01C96ED91FC91930178CF1E96ED91A9
:1018B000FC917301E0CF6B857C8564197509068402
:1018C000F785E02D73010F8518899201A401898D98
:1018D0009A8D0995A9CFF901349694913297459143
:1018E0005491D91AB7E0DB9E400D511D1124F90126
:1018F000259134913C8B2B8BFA0125903490FA0181
:101900003296749031963491398B32966490319638
:10191000449041E04C1518F04A1508F07FC0662D40
:10192000062C000C770B7C836B83842D042C000C1D
:10193000990B9E838D83A98DBA8DED91FC911197A2
:101940000284F385E02DCD010995512CD12CC12CB9
:10195000EA2DF0E0FA87E9872B2D30E03C872B87D2
:10196000A401440D511D47FC5A95588F4F8B698136
:101970007A81660D711D67FC7A957E876D877989FE
:10198000C71608F051CF2C2D30E04D815E81420FFB
:10199000531FA985BA854A9FC0014B9F900D5A9F3E
:1019A000900D1124FC01E80DF91DF88BEF87852DB2
:1019B000612C4F89588D420F531F5E8B4D8B6714DE
:1019C00008F050C044244394480E877041F4C1018C
:1019D0000196EB89FC89E20DF31DD4901C01D7FE22
:1019E00019C0A98DBA8DED91FC91662D70E0B1E022
:1019F000BB1219C0AB1217C02D853E85620F731F35
:101A00000484F585E02D2F8138854D895E89898D87
:101A10009A8D0995DD0C6394842DD1CF1E821D8291
:101A20001C821B8288CF4B815C81640F751FAB8544
:101A3000BC856A9FC0016B9F900D7A9F900D112409
:101A400069817A81680F791F0684F785E02DEF8020
:101A5000F88409851A859D014F855889898D9A8D4D
:101A60000995D8CF570CC3948ACF6A960FB6F894CD
:101A7000DEBF0FBECDBFDF91CF911F910F91FF90C1
:101A8000EF90DF90CF90BF90AF909F908F907F901E
:101A90006F905F904F903F902F9008958F929F92FC
:101AA000AF92CF92EF92FF920F931F93CF93DF935A
:101AB000EC01262F898D9A8D009709F051C06A306C
:101AC000D1F41D861C868D8948E0849F90011124E5
:101AD0008E859F85820F931F9F878E8781E090E080
:101AE000DF91CF911F910F91FF90EF90CF90AF902A
:101AF0009F908F9008956D3089F3CC88AD888F8941
:101B00008823C1F08C859D8536E0C39E800D911D94
:101B10001124488559854817590764F44E855F8517
:101B20001D861C8638E0A39EC0011124840F951FDA
:101B30009F878E87EA88FB88088919894E855F858B
:101B40006C857D85CE010E94290B2C898C859D8515
:101B500046E0249F800D911D11249D878C87BECF68
:101B60006A3069F41D861C86FC013896E4912D8943
:101B70008E859F85E29F800D911D1124ADCF6D3024
:101B800009F4ACCFFC0134963491631708F4A6CF66
:101B90003296E491E61708F4A1CFFC0132968590C5
:101BA0009490462F431B342F47E0349F800C911CA8
:101BB0001124F401329634913196E4913323A9F142
:101BC000EE2399F1CC88F4013596E491AD884F89E4
:101BD000442301F10E2E000CFF0BE30FF11DCE9EEE
:101BE000A001CF9E500D11246C857D85460F571F97
:101BF00068857985641775076CF44E855F851D8649
:101C00001C86FC013896E491AE9E400D511D1124B6
:101C10005F874E87EA88FB88088919894E855F852A
:101C20006C857D85CE010E94290BF4013496E491E8
:101C30002C898C859D85E29F800D911D11248DCF6F
:101C40006F927F928F929F92AF92BF92CF92DF92CC
:101C5000EF92FF920F931F93CF93DF93EC016B01F1
:101C60005A0139014801E881F9810284F385E02DA8
:101C70000995E881F9810288F389E02D87019301B4
:101C8000A501B601CE010995A501480D591D415088
:101C90005109E881F9810288F389E02D9301B601A9
:101CA000CE010995E881F9810088F189E02D940140
:101CB000A501B601CE010995C60CD71CB60161502D
:101CC0007109E881F9810088F189E02D9401A5016D
:101CD000CE010995E881F9810688F789E02DCE01CA
:101CE000DF91CF911F910F91FF90EF90DF90CF90F8
:101CF000BF90AF909F908F907F906F9009946F925C
:101D00007F928F929F92AF92BF92CF92DF92EF928B
:101D1000FF920F931F93CF93DF935C01EB016A0156
:101D2000490138018701DC01ED91FC9162177307CD
:101D300019F5641675062CF0962D872D3A01C92EDB
:101D4000D82E9601261937092F5F3F4F048CF58D49
:101D5000E02DA301BE01C5010995DF91CF911F912F
:101D60000F91FF90EF90DF90CF90BF90AF909F903A
:101D70008F907F906F9008954615570591F4261720
:101D8000370724F0892D4B01C22FD82F9E01281927
:101D900039092F5F3F4F068CF78DE02DA601B40166
:101DA000DACF0284F385E02D0995D501ED91FC9100
:101DB0000488F589E02D83019401A601BE01C501C7
:101DC0000995D501ED91FC910688F789E02DC501B3
:101DD000DF91CF911F910F91FF90EF90DF90CF9007
:101DE000BF90AF909F908F907F906F900994EF92EB
:101DF000FF920F931F93DC011A960D911C911B9774
:101E000018962D913C911997ED91FC9100A0F1A1AC
:101E1000E02D7B0150E040E070E060E009951F910B
:101E20000F91FF90EF9008954F925F926F927F9283
:101E30008F929F92AF92BF92CF92DF92EF92FF92DA
:101E40000F931F93CF93DF936C012B015A0139013C
:101E50004801DC01ED91FC910284F385E02D0995A8
:101E6000E201640C751CD601ED91FC91C615D705F5
:101E70005CF40088F189E02D87019401A501BE0181
:101E8000C60109952196EFCF0688F789E02DC60196
:101E9000DF91CF911F910F91FF90EF90DF90CF9046
:101EA000BF90AF909F908F907F906F905F904F907A
:101EB00009948F929F92AF92BF92CF92DF92EF924E
:101EC000FF920F931F93CF93DF93EC015B014A01C5
:101ED0006901E881F9810284F385E02D0995950176
:101EE0002C0D3D1D21503109E881F9810488F589C7
:101EF000E02D78018401A401B501CE010995E881A6
:101F0000F9810688F789E02DCE01DF91CF911F91ED
:101F10000F91FF90EF90DF90CF90BF90AF909F9088
:101F20008F9009948F929F92AF92BF92CF92DF923F
:101F3000EF92FF920F931F93CF93DF93EC015B011E
:101F40004A0169017801E881F9810284F385E02D75
:101F50000995C80CD91C860101501109E881F98145
:101F60000488F589E02D9501A401B501CE010995FC
:101F7000E881F9810688F789E02DCE01DF91CF91C4
:101F80001F910F91FF90EF90DF90CF90BF90AF9097
:101F90009F908F900994EF92FF920F931F93DC0113
:101FA000ED91FC9100A0F1A1E02D09951F910F91F9
:101FB000FF90EF9008950F931F93DC01ED91FC913A
:101FC000068CF78DE02D09951F910F9108950F93C1
:101FD0001F93DC01ED91FC91048CF58DE02D0995AA
:101FE0001F910F910895DC01ED91FC910084F18522
:101FF000E02D09943F924F925F926F927F928F9261
:102000009F92AF92BF92CF92DF92EF92FF920F9387
:102010001F93CF93DF935C017B014A016901390172
:1020200087E0680E711C93E0759467949A95E1F7C8
:102030002B01400E511E10E000E0312CD0E0C0E03A
:10204000CE0187709927330C892B59F4FE0183E068
:10205000F595E7958A95E1F7E00FF11FE80DF91D79
:10206000349037FE0AC021E030E0A701B5016C0FC3
:102070007D1F8CE094E00E94F30F2196CC16DD06C4
:10208000F9F68FEFE81AF80A060D171DE414F504A7
:10209000A9F6DF91CF911F910F91FF90EF90DF9004
:1020A000CF90BF90AF909F908F907F906F905F90F8
:1020B0004F903F9008952F923F924F925F926F9270
:1020C0007F928F929F92AF92BF92CF92DF92EF92C8
:1020D000FF920F931F93CF93DF9300D000D000D0D7
:1020E000CDB7DEB73C016A013E832D83FC82EB82D3
:1020F0005801A41AB50AB7FE03C0B194A194B1085F
:102100008D809E80861A970A97FE03C091948194D1
:1021100091088A149B045CF0902F812F0D811E8101
:102120009D838E839C2D8D2D6B01692F782F0C152F
:102130001D055CF09D818E817E836D83692F782FD4
:10214000902F812F8601C92ED82E1601201A310A10
:102150002B012D813E81421A530A57FE03C0519430
:1021600041945108710137FE03C03FEFE31AF30AAF
:10217000F594E7948D819E81861797075CF5A1E021
:10218000B0E0BA83A983C016D1064CF1D301ED911A
:10219000FC910484F585E02D2B813C81A8016D81A3
:1021A0007E818A149B041CF04D815E81B801C301BD
:1021B0000995E418F508F7FE0AC02D813E81898152
:1021C0009A81280F391F3E832D83E20CF31C0F5F89
:1021D0001F4FD9CF2FEF3FEF3A832983D4CF2696D5
:1021E0000FB6F894DEBF0FBECDBFDF91CF911F9128
:1021F0000F91FF90EF90DF90CF90BF90AF909F90A6
:102200008F907F906F905F904F903F902F900895A8
:10221000089520913A02260F3327331F21323105CA
:10222000ECF420915E02FC0190E080E0243069F043
:1022300082E00895A0913A022191AC01465E5D4F83
:10224000A40FB52FB11D2C930196861798F380919A
:102250003A02680F60933A0280E0089581E00895A1
:1022600010925E0281E08093600210925F0261E052
:1022700082E10E946F0661E083E10E946F06E9EB54
:10228000F0E080818E7F808380818D7F808388E4F1
:102290008093B80085E48093BC000895CF93DF93CA
:1022A00091E0909319028823B9F0C091B800D091C1
:1022B000BA008091BC008A7B8093BC0060E082E120
:1022C0000E946F0660E083E10E946F060E94301159
:1022D000D093BA00C093B800DF91CF910895E091F8
:1022E0008A0280918902E81730F4F0E0EC50FE4F4A
:1022F000808190E008958FEF9FEF089590918A027A
:10230000809189022FEF3FEF981748F4E92FF0E012
:10231000EC50FE4F208130E09F5F90938A02C9010C
:1023200008958091890290918A02891B990B0895E2
:10233000CF92DF92EF92FF920F931F93CF93DF9391
:102340007C01CB018A0120919702222389F0EB01C5
:102350006B01C40ED51ECC15DD0569F06991D7015E
:10236000ED91FC910190F081E02DC7010995F3CF2B
:10237000642F0E940911C801DF91CF911F910F9125
:10238000FF90EF90DF90CF900895CF93DF931F924F
:10239000CDB7DEB76983209197022223F9F020910F
:1023A0009402203258F021E030E0FC013383228394
:1023B00090E080E00F90DF91CF9108958091950299
:1023C000E82FF0E0EC52FE4F998190838F5F80936D
:1023D00095028093940281E090E0ECCF61E0CE0121
:1023E00001960E940911F7CFCF92DF92EF92FF92F0
:1023F0000F931F93CF93DF93D091940281E0D1325A
:1024000008F09CC0C09196020E94D9066B017C0125
:1024100080915E0281116CC082E080935E0281E057
:10242000809360028FEF80935D0210928202D093BE
:102430008102A4EDB1E0E1E6F2E080E0D8138DC0C6
:102440001092830280918302CC0FC82BC093830229
:1024500080915F02813009F084C010925F020E9477
:10246000D9066B017C01809183028093BB0080912F
:10247000150290911602A0911702B0911802892BB3
:102480008A2B8B2BA1F00E94D90600911502109186
:10249000160220911702309118026C197D098E09DD
:1024A0009F09061717072807390708F442C08091CB
:1024B000BC0083FDD8CF85EC8093BC000E94D90678
:1024C0006B017C0180915E02823009F44CC08091E6
:1024D0005D028F3F09F469C080915D02803209F48A
:1024E00066C080915D02803309F463C084E026C039
:1024F0008091150290911602A0911702B0911802D6
:10250000892B8A2B8B2B09F483CF0E94D90600914B
:1025100015021091160220911702309118026C19C1
:102520007D098E099F09061717072807390708F044
:102530006FCF809114020E944E1185E01092950297
:102540001092940210929702DF91CF911F910F91F8
:10255000FF90EF90DF90CF9008959D9191938F5FC2
:102560006DCF85EEA9CF8091150290911602A091B2
:102570001702B0911802892B8A2B8B2B09F4A2CF5A
:102580000E94D9060091150210911602209117029F
:10259000309118026C197D098E099F0906171707DB
:1025A0002807390708F08ECFC4CF80E0C7CF82E07C
:1025B000C5CF83E0C3CFEF92FF920F931F93CF93CA
:1025C000DF937C01C62F8091290490912A04009703
:1025D00009F459C020912D0431E0309397022093E3
:1025E00096021092950210929402DC01ED91FC91FA
:1025F0000190F081E02D60E009958701EE24E394DD
:10260000F12CD1E0C1508091290490912A04CF3F50
:1026100091F1B0E2EB16F104D8F00E94F411809130
:10262000290490912A0420912D04D093970220939D
:1026300096021092950210929402DC01ED91FC91A9
:102640000190F081E02D60E00995EE24E394F12CF7
:102650008091290490912A04F8016491DC01ED91A4
:10266000FC910190F081E02D0995BFEFEB1AFB0A78
:102670000F5F1F4FC7CFDF91CF911F910F91FF9039
:10268000EF900C94F411E0913904F0913A049081A8
:1026900080913F048095892380838701C15008F48D
:1026A00038C0F80184912091270430912804232B0D
:1026B00029F00E94090B0F5F1F4FF0CF28E030E098
:1026C00040E8E0913504F091360490913D04582F94
:1026D0005423D9F05081952B9083E0913704F091E9
:1026E0003804908150913E04952B9083E0913704FB
:1026F000F0913804508190913E04909595239083F9
:10270000469521503109E9F6D6CF50819095952311
:10271000E3CFDF91CF911F910F91FF90EF9008953C
:102720001F93CF93DF93EC018D8D9E8D009721F148
:10273000162F29A131E03093970220939602109230
:10274000950210929402DC01ED91FC910190F081D0
:10275000E02D60E009958D8D9E8DDC01ED91FC9161
:102760000190F081E02D612F09958D8D9E8DDF9177
:10277000CF911F910C94F411ADA5BEA59C918BA98E
:10278000809589238C938B8D9C8D892B31F0862F9E
:10279000DF91CF911F910C94090B28E030E080E885
:1027A000A9A5BAA599A9462F4823C1F04C91942B0D
:1027B0009C93ABA5BCA59C914AA9942B9C93ABA5DB
:1027C000BCA54C919AA9909594239C9386952150F1
:1027D000310931F7DF91CF911F9108954C91909578
:1027E0009423E6CFDF92EF92FF920F931F93CF9344
:1027F000DF938091290490912A04892B09F498C0D1
:10280000209141043091420440914304509144048A
:1028100060E074E284EF90E00E946523205131096A
:102820004109510956954795379527952093B8004A
:1028300065E08EE99AE00E94DB126091100461501D
:102840008CE094E00E9490132091120430911304C4
:10285000C901079697FD079633E0959587953A95B8
:10286000E1F72091100430911104829F8001839F31
:10287000100D929F100D1124C0912B04D0912C04A7
:102880008091290490912A040C0F1D1F009709F4D0
:102890008FC020912D0431E030939702209396024F
:1028A0001092950210929402DC01ED91FC9101903E
:1028B000F081E02D60E40995EE24E394F12CDD2411
:1028C000D3948091290490912A040C171D0709F4D0
:1028D00046C0B0E2EB16F104D8F00E94F4118091EA
:1028E000290490912A0420912D04D09297022093DC
:1028F00096021092950210929402DC01ED91FC91E7
:102900000190F081E02D60E40995EE24E394F12C30
:102910008091290490912A046991DC01ED91FC9148
:102920000190F081E02D0995BFEFEB1AFB0AC9CFAA
:102930008091270490912804892B31F080914A04DA
:1029400090914B040E94100BE0913B04F0913C04E9
:1029500090818091400480958923808369CF0E9473
:10296000F4118091290490912A04892B09F461C003
:102970002091450430914604409147045091480409
:1029800060E074E284EF90E00E94652320513109F9
:102990004109510956954795379527952093B800D9
:1029A000DF91CF911F910F91FF90EF90DF900895ED
:1029B000E0913904F0913A04808190913F04892B91
:1029C00080830C171D0769F28991209127043091AB
:1029D0002804232B19F00E94090BF3CF28E030E0E4
:1029E00040E8E0913504F091360490913D04582F71
:1029F0005423D9F05081952B9083E0913704F091C6
:102A00003804908150913E04952B9083E0913704D7
:102A1000F0913804508190913E04909595239083D5
:102A2000469521503109E9F6CCCF508190959523F8
:102A3000E3CFE0913B04F0913C048081909140040D
:102A4000892B8083ADCF1F93CF93DF93EC01162F9B
:102A50008D8D9E8D892BB1F12DA93EA94FA958AD21
:102A600060E074E284EF90E00E9465232051310918
:102A70004109510956954795379527952093B800F8
:102A800066EA111167EACE010E9490138D8D9E8D2A
:102A9000892B41F129AD3AAD4BAD5CAD60E074E2FC
:102AA00084EF90E00E9465232051310941095109CA
:102AB00056954795379527952093B800DF91CF918C
:102AC0001F9108958B8D9C8D892B21F08EAD9FAD2C
:102AD0000E94100BEFA5F8A990818CA980958923FD
:102AE0008083CECFEFA5F8A980819CA9892B808314
:102AF000E5CF90E080E00895CF93DF93EC018885E7
:102B000081110EC0898591E098879A8562E09111C4
:102B100001C060E00E949D068FE090E00197F1F710
:102B200089850E9446063B8521E03817190609F47D
:102B300020E0822FDF91CF9108950F931F93CF93C1
:102B40008C010E947C15C82F0E943007F801228159
:102B5000213091F030F02230F1F0233011F1C0E05B
:102B600006C0C111FCCF7483638381E082838C2F04
:102B7000CF911F910F910895CC2311F01282EFCFC6
:102B800023813481621B730B6F30710580F382E007
:102B9000F8018283E4CFCC2351F37483638383E011
:102BA000F8CFCC23A1F323813481621B730B6F30E8
:102BB0007105A8F21282DBCFCF93DF93FC0127814E
:102BC000222359F1EC0161E080850E949D0661E0BD
:102BD00089850E949D068F81843011F08830B1F480
:102BE00061E08A850E949D0661E08B850E949D06BA
:102BF0008FA58F3F91F061E00E949D066EA581E058
:102C000068278FA5DF91CF910C946F06833011F068
:102C1000863071F761E08A85E9CFDF91CF91089521
:102C2000CF93DF93FC0127812223A9F0EC010190CF
:102C3000F081E02D0284F385E02D60E009958FA5F9
:102C40008F3F49F061E00E949D066EA58FA5DF9140
:102C5000CF910C946F06DF91CF910895DC01ED9137
:102C6000FC91228533854770552766277727415089
:102C7000510961097109473051056105710560F419
:102C8000FA01EB5BF94E0C94A6234F16511653161E
:102C90005516571659165B1661E0F901099465E05F
:102CA000FCCF64E0FACF66E0F8CF62E0F6CF6AE0EE
:102CB000F4CF68E0F2CF69E0F0CFCF93DF93EC017F
:102CC000CB01BA0126E030E040E050E00E948723CB
:102CD000623071058105910589F16CF4611571050A
:102CE00081059105D1F06130710581059105F9F0FB
:102CF000DF91CF910895643071058105910561F1EF
:102D000024F1653071058105910591F7E881F9811C
:102D10000284F385E02D66E006C0E881F981028433
:102D2000F385E02D64E0CE01DF91CF910994E88135
:102D3000F9810284F385E02D65E0F5CFE881F98122
:102D40000284F385E02D61E0EECFE881F981028411
:102D5000F385E02D63E0E7CFE881F9810284F38514
:102D6000E02D62E0E0CFDC01ED91FC910284F3857F
:102D7000E02D4370552766277727423051056105BE
:102D8000710571F0433051056105710559F041300D
:102D900051056105710511F065E0099466E0FDCF0C
:102DA0006AE0FBCF69E0F9CFCF93DF93EC01CB0171
:102DB000BA0123E030E040E050E00E948723613018
:102DC00071058105910599F06230710581059105C4
:102DD000A9F0672B682B692BC1F4E881F981028483
:102DE000F385E02D64E0CE01DF91CF910994E88175
:102DF000F9810284F385E02D61E0F5CFE881F98166
:102E00000284F385E02D62E0EECFDF91CF9108954B
:102E1000DC01ED91FC910284F385E02D4370552790
:102E200066277727423051056105710571F04330FF
:102E300051056105710559F0413051056105710574
:102E400011F062E0099463E0FDCF61E0FBCF60E048
:102E5000F9CFCF93DF93EC01E881F9810284F38508
:102E6000E02D8A8160E0811162E0CE010995E88160
:102E7000F9810284F385E02D8A8161E0811163E0AC
:102E8000CE0109958CA59DA58230910538F0880F5B
:102E9000991F880F991F05970197F1F7E881F9812C
:102EA0000284F385E02D8A8160E0811162E0CE0129
:102EB000DF91CF910994CF93DF93EC0120E030E0D4
:102EC000A901688D798D8A8D9B8D0E9478251816B1
:102ED0002CF4E8A9F9A9DF91CF910994EAA9FBA9FB
:102EE000FACFCF92DF92EF92FF920F931F93CF937F
:102EF000DF93DC011796CC91C43039F0C83059F11A
:102F0000C33019F0C63049F1C2E08C01085F1F4F91
:102F1000F12CE12CC62ED12CD1E0F8016481C60140
:102F20000E2C02C0959587950A94E2F780FD6D27D7
:102F30000F5F1F4F80810E946F06BFEFEB1AFB0AE5
:102F4000EC1658F3DF91CF911F910F91FF90EF9006
:102F5000DF90CF900895C4E0D8CFC3E0D6CFDC0196
:102F60001796EC911797E93008F038C0F0E0E55477
:102F7000F84E0C94A623C417CA17D017D617DC171F
:102F8000EE17E217EE17E817ED91FC910684F7852E
:102F9000E02D0994ED91FC910088F189E02DF9CFA5
:102FA000ED91FC910288F389E02DF3CFED91FC9136
:102FB0000488F589E02DEDCFED91FC910688F78925
:102FC000E02DE7CFED91FC91008CF18DE02DE1CF6C
:102FD000ED91FC91028CF38DE02DDBCF0895CF9223
:102FE000DF92EF92FF928091BF039091C003A09176
:102FF000C103B091C203892B8A2B8B2B31F480E063
:10300000FF90EF90DF90CF9008950E94D9066B015A
:103010007C018091E4039091E503A091E603B091D7
:10302000E703B701A601481B590B6A0B7B0B809184
:10303000BF039091C003A091C103B091C203481790
:1030400059076A077B07D8F28091CC039091CD0392
:10305000A091CE03B091CF032091BE03222309F1AA
:103060000196A11DB11D8093CC039093CD03A09335
:10307000CE03B093CF034091CC035091CD03609128
:10308000CE037091CF038CEB93E00E94AF17C092F8
:10309000E403D092E503E092E603F092E70381E0D7
:1030A000AFCF0197A109B109DECF4F925F926F9226
:1030B0007F928F929F92AF92BF92CF92DF92EF92C8
:1030C000FF920F931F93CF93DF93EC01CC88DD88A1
:1030D000EE88FF8888899989AA89BB89C81AD90A84
:1030E000EA0AFB0A688D798D8A8D9B8D9B01AC0164
:1030F0000E947D254B015C0168A179A18AA19BA159
:103100009B01AC010E94AD239B01AC01C501B40140
:103110000E941E240E949024C114D104E104F104F1
:1031200009F0B6C062307105810591050CF0D0C080
:103130001B821C821D821E82188E198E1A8E1B8E77
:103140001CAA1DAA1EAA1FAAC12CD12C7601C70138
:10315000B601DF91CF911F910F91FF90EF90DF901B
:10316000CF90BF90AF909F908F907F906F905F9027
:103170004F9008951016110612061306B4F46C153C
:103180007D058E059F051CF42A812111A1C09B019C
:10319000AC0188279927DC01821B930BA40BB50B8C
:1031A0008CAB9DABAEABBFAB93C001151105210538
:1031B000310509F48DC06C157D058E059F050CF059
:1031C00087C08A81882309F483C0309520951095A3
:1031D00001951F4F2F4F3F4F0CAB1DAB2EAB3FAB9D
:1031E00077C0011511052105310509F471C0882446
:1031F000992454018C189D08AE08BF0868157905FC
:103200008A059B050CF064C08A81811161C0DDCF05
:10321000CCACDDACEEACFFACA7019601C701B601AA
:103220000E94AD232B013C01C501B4010E94C824BA
:1032300020E030E040E850E40E947D2520E030E0CE
:1032400040E85FE30E94AD239B01AC01C301B201E2
:103250000E941E249B01AC01C701B6010E94AC2351
:103260003B016C01FE01E05CFF4FE080F1800281D8
:1032700013819701A8010E947825181614F4730190
:103280008601C701D8018CAF9DAFAEAFBFAF3AC0CA
:103290000CA91DA92EA93FA91C141D041E041F045E
:1032A0000CF468CF10161106120613060CF099CF15
:1032B0000027112798010C191D092E093F096017D5
:1032C0007107820793070CF062CF2A8121115FCF2B
:1032D0008CA89DA8AEA8BFA881149104A104B10434
:1032E00009F096CF88AD99ADAAADBBAD8CAF9DAFBF
:1032F000AEAFBFAF81E01C141D041E041F040CF010
:1033000080E08A833FEF831A930AA30AB30A8CAA48
:103310009DAAAEAABFAA8CAC9DACAEACBFACC50199
:10332000B4010E9497246B017C01CB82DC82ED8288
:10333000FE82A501940160E074E284E799E40E94B2
:103340001E24688F798F8A8F9B8F2A812111FFCE4F
:103350009058688F798F8A8F9B8FF9CECF92DF92AA
:10336000EF92FF92CF93DF93CCEBD3E0688D798D12
:103370008A8D9B8D9B01AC010E947D256B017C0198
:1033800068A179A18AA19BA19B01AC010E94AD23F8
:103390009B01AC01C701B6010E941E240E9490242B
:1033A0006CAB7DAB8EAB9FABCE01DF91CF91FF902D
:1033B000EF90DF90CF900C94551808954F925F9244
:1033C0006F927F928F929F92AF92BF92CF92DF9235
:1033D000EF92FF926B017C0120E030E0A9010E9496
:1033E000192487FF04C0F7FAF094F7F8F09480905E
:1033F000DC039090DD03A090DE03B090DF03A70113
:103400009601C501B4010E941924882309F458C00B
:103410006091F0037091F1038091F2039091F303B6
:103420000E94C8242B013C01A7019601C501B401EB
:103430000E941E249B01AC01C301B2010E947D25A4
:103440000E9490246093F0037093F1038093F20341
:103450009093F303A701960160E070E080E090E4B0
:103460000E941E240E94F02526E53EE04DE25FE327
:103470000E947D2520E034E244E759E40E947D2546
:103480006093F4037093F5038093F6039093F7032E
:10349000C092DC03D092DD03E092DE03F092DF0302
:1034A0008CEB93E0FF90EF90DF90CF90BF90AF90C8
:1034B0009F908F907F906F905F904F900C945518D5
:1034C000FF90EF90DF90CF90BF90AF909F908F9044
:1034D0007F906F905F904F900895209112043091EB
:1034E0001304C901079697FD079623E095958795E4
:1034F0002A95E1F72091100430911104829FA001D8
:10350000839F500D929F500D112470E060E08091D8
:103510002B0490912C040C946F270E946A27FB01C6
:1035200001900020E9F73197AF01461B570BDC01F2
:10353000ED91FC910280F381E02D099485ED80935B
:10354000BC008091150290911602A0911702B091D3
:1035500018020796A11DB11D23E0B695A795979572
:1035600087952A95D1F72091BC0024FD03C01092C5
:103570005E02089540911502509116026091170263
:1035800070911802452B462B472B69F30097A10534
:10359000B10541F025E32A95F1F700000197A10953
:1035A000B109E1CF809114020C944E110C94E126E4
:1035B0001F920F920FB60F9211242F933F938F9368
:1035C0009F93AF93BF9380918C0290918D02A091B5
:1035D0008E02B0918F0230918B0223E0230F2D37A2
:1035E00058F50196A11DB11D20938B0280938C028A
:1035F00090938D02A0938E02B0938F0280919002DF
:1036000090919102A0919202B09193020196A11D16
:10361000B11D8093900290939102A0939202B09377
:103620009302BF91AF919F918F913F912F910F90F6
:103630000FBE0F901F90189526E8230F0296A11D2C
:10364000B11DD2CF1F920F920FB60F9211242F935C
:103650003F934F935F936F937F938F939F93AF931A
:10366000BF93EF93FF9388E992E00E942308FF91B4
:10367000EF91BF91AF919F918F917F916F915F91EA
:103680004F913F912F910F900FBE0F901F90189563
:103690001F920F920FB60F9211242F938F939F9327
:1036A000EF93FF93E091A802F091A9028081E0914D
:1036B000AE02F091AF0282FD1BC090818091B102F9
:1036C0008F5F8F732091B202821741F0E091B102B7
:1036D000F0E0E856FD4F958F8093B102FF91EF9196
:1036E0009F918F912F910F900FBE0F901F90189563
:1036F0008081F4CF1F920F920FB60F9211242F9357
:103700003F934F935F936F937F938F939F93AF9369
:10371000BF93EF93FF938091B900887F803609F4BF
:103720004AC0F0F5883209F4A7C018F5803109F4D1
:103730009BC0B8F4882309F4F9C0883009F494C018
:10374000FF91EF91BF91AF919F918F917F916F9179
:103750005F914F913F912F910F900FBE0F901F904F
:103760001895883109F488C0803251F780935D0242
:1037700014C0803409F49DC040F48033B9F3883319
:10378000F9F680935D0285ECB0C0803509F485C000
:10379000883509F496C0883499F60E949E1AD0CFD5
:1037A000883909F48CC038F5883729F050F4883608
:1037B00011F0803729F683E080935E0210925C025C
:1037C00057C0883809F47BC0803919F0803809F077
:1037D000B7CF80915C02803208F071C0E0915C024A
:1037E00081E08E0F80935C028091BB00F0E0E45C8E
:1037F000FD4F80833DC0803B39F0E0F4803A09F40E
:1038000079C0883A09F09CCF84E080935E021092E0
:103810003B0210923A02E0918702F09188020995EA
:1038200080913A0281110FC081E080933A02109298
:103830001A0209C0803C09F4A6CF883C09F4A3CF42
:10384000883B09F07DCFE0913B0281E08E0F8093B1
:103850003B02F0E0E65EFD4F80818093BB009091DB
:103860003B0280913A0229C0809183028093BB0081
:1038700085EC8093BC0064CF90918202809181029C
:10388000981758F5E091820281E08E0F80938202B2
:10389000F0E0EF59FD4F8081E9CFE091820281E0B5
:1038A0008E0F809382028091BB00F0E0EF59FD4FB4
:1038B000808390918202809181029817C8F285E8F6
:1038C000D8CFE091820281E08E0F809382028091B6
:1038D000BB00F0E0EF59FD4F8083809160028111C1
:1038E0005CCF81E080935F0284EA8093BC001092F9
:1038F0005E0226CF85EC8093BC0010925E02809120
:103900005C02803230F4E0915C02F0E0E45CFD4F58
:10391000108260915C0270E0E0918502F091860275
:103920008CE392E0099510925C020ACF10925D023E
:1039300034CFCF92DF92EF92FF9210929B021092BF
:103940009A0288EE93E0A0E0B0E080939C0290930E
:103950009D02A0939E02B0939F022DE131E030932F
:1039600099022093980225EC30E03093A502209331
:10397000A40224EC30E03093A7022093A60220ECAE
:1039800030E03093A9022093A80221EC30E030937C
:10399000AB022093AA0222EC30E03093AD022093D8
:1039A000AC0226EC30E03093AF022093AE021092CE
:1039B000B1021092B2021092B3021092B4021092AD
:1039C0000304109202048093040490930504A093CE
:1039D0000604B09307048FE291E090930104809372
:1039E000000410920F0410920E0420E830E030938F
:1039F00011042093100480E490E0909313048093CA
:103A000012043093150420931404909317048093A8
:103A100016041092220410921904109218041092A5
:103A20001B0410921A0491E09093210490932004B7
:103A30002FEF3FEF30931F0420931E0430931D049B
:103A400020931C04909323041092240410922604C3
:103A50001092250421E731E030930D0420930C04EB
:103A6000109228041092270420E034E030932A04B6
:103A70002093290410922C0410922B048FEF809332
:103A80003004809331048093320480933304809314
:103A9000340440E85AE166E070E0409341045093FA
:103AA0004204609343047093440440EA56E861E0A2
:103AB00070E040934504509346046093470470932C
:103AC000480420E520934A0410924B0421E531E09C
:103AD0003093BD032093BC039093C3031092CC0397
:103AE0001092CD031092CE031092CF031092D00308
:103AF0001092D1031092D2031092D3031092D403E8
:103B00001092D5031092D6031092D7031092D803C7
:103B10001092D9031092DA031092DB031092DC03A7
:103B20001092DD031092DE031092DF03C12CD12C22
:103B300090E8E92E9FE3F92EC092E003D092E103D2
:103B4000E092E203F092E3031092BF031092C003ED
:103B50001092C1031092C20321E030E03093E903D8
:103B60002093E8038093EB031092E4031092E503A3
:103B70001092E6031092E7038AE08093C4038BE07F
:103B80008093C50384E08093C60385E08093C703D8
:103B90001092EA031092F0031092F1031092F203D4
:103BA0001092F3031092F4031092F5031092F603AF
:103BB0001092F7031092F8031092F9031092FA038F
:103BC0001092FB03C092FC03D092FD03E092FE032F
:103BD000F092FF031092BE031092C8031092C90323
:103BE0001092CA031092CB038CEB93E00E94DC1579
:103BF000C701B6010E94DE19A70196016091D803A2
:103C00007091D9038091DA039091DB030E9419240B
:103C1000882319F1C092D803D092D903E092DA0335
:103C2000F092DB0380E094E2A4E7B9E48093FC0324
:103C30009093FD03A093FE03B093FF038091F003E4
:103C40009091F103A091F203B091F30318161906B5
:103C50001A061B0614F40E94AE191092B2031092B9
:103C6000B5032BE431E03093B1032093B0031092FD
:103C7000B8038FE08093B90381E08093BA03809307
:103C8000BB031092A6031092A9033093A5032093BF
:103C9000A4031092AC0390E19093AD038093AE0324
:103CA0008093AF031092370310923B0310923A03B4
:103CB00010923C0381E491E09093360380933503A6
:103CC000E1E5F3E01082148213821582369683E0D8
:103CD000ED38F807B9F783E091E09093980380936B
:103CE000970380E091E090939A038093990384E096
:103CF00080939B0383E080939C0387E091E0909303
:103D00009603809395038AE090E090939E038093BE
:103D10009D0384EF91E09093A00380939F03109202
:103D2000A3031092A2031092910310929203109297
:103D30009303109294031092A103FF90EF90DF90F1
:103D4000CF900895789484B5826084BD84B58160F5
:103D500084BD85B5826085BD85B5816085BD809156
:103D60006E00816080936E001092810080918100CE
:103D700082608093810080918100816080938100C6
:103D8000809180008160809380008091B100846088
:103D90008093B1008091B00081608093B0008091E9
:103DA0007A00846080937A0080917A0082608093A8
:103DB0007A0080917A00816080937A0080917A0005
:103DC000806880937A001092C100E091A802F0917F
:103DD000A90282E08083E091A402F091A502108202
:103DE000E091A602F091A7028FEC80831092B002BE
:103DF000E091AC02F091AD0286E08083E091AA02EE
:103E0000F091AB02808180618083E091AA02F09101
:103E1000AB02808188608083E091AA02F091AB02BE
:103E2000808180688083E091AA02F091AB0280815A
:103E30008F7D808382E390E090939E0380939D0327
:103E400020E030E04AE754E46091D8037091D90350
:103E50008091DA039091DB030E941924882319F1E1
:103E600080E090E0AAE7B4E48093D8039093D9036C
:103E7000A093DA03B093DB038093FC039093FD03DC
:103E8000A093FE03B093FF038091F0039091F103A0
:103E9000A091F203B091F303181619061A061B0637
:103EA00014F40E94AE1960E070E080EF91E40E948B
:103EB000DE1980912B0490912C04892B11F10E9422
:103EC0006D1A209112043091130480911004909186
:103ED0001104213231050CF04AC0B9016052710958
:103EE00077FF02C06F5F7F4F759567958357910984
:103EF00097FD019600E210E023E730E04AE855E044
:103F000049C02091120430911304C901079697FD0E
:103F10000796B3E095958795BA95E1F7209110043F
:103F200030911104AC01429FC001439F900D529FFC
:103F3000900D11240E94452690932C0480932B040D
:103F4000892B09F0BCCFCAE2DAE0FE016491662356
:103F500039F088E992E00E9445082196892BA9F75B
:103F600069E971E088E992E00E948F1AFFCFB901F8
:103F70006054710977FF02C06F5F7F4F7595679539
:103F80008255910997FD019600E410E022E530E0AA
:103F90004AE657E0959587950E94FA0F82E0809354
:103FA0002E048091290490912A04892B09F41EC1C2
:103FB0008CE380932D0410928A0210928902109251
:103FC0009502109294020E94301183EA97E0909338
:103FD00088028093870284EA97E090938602809318
:103FE00085028091340487FD1EC061E00E949D0619
:103FF00061E0809134040E946F0661E070E080E02F
:1040000090E00E94FE0660E0809134040E946F06FA
:104010006AE070E080E090E00E94FE0661E080913E
:1040200034040E946F068091290490912A04892B00
:1040300009F49BC120914104309142044091430412
:104040005091440460E074E284EF90E00E946523A4
:1040500020513109410951095695479537952795C2
:104060002093B80064E086E895E00E94DB1260913E
:10407000120461508CE094E00E94901364E082E8A6
:1040800095E00E94DB1280912E0460E1813009F0FE
:1040900064E18CE094E00E94901364E08EE795E088
:1040A0000E94DB128FE88093490480911004909164
:1040B00011048038910509F071C18091120490912A
:1040C00013048034910509F079C180912E04813068
:1040D00009F062C18FE980934904C2E16AED8CE086
:1040E00094E00E9490136C2F8CE094E00E94901357
:1040F00061E88CE094E00E949013609149048CE0A8
:1041000094E00E94901369ED8CE094E00E9490137B
:1041100080912E0462E2813009F061EF8CE094E03E
:104120000E94901366E088E795E00E94DB12809180
:10413000290490912A04892B09F444C12091450453
:1041400030914604409147045091480460E074E285
:1041500084EF90E00E946523205131094109510903
:1041600056954795379527952093B8000E946D1A6C
:1041700081E0809320048093210481E090E090937B
:104180001F0480931E0490931D0480931C041092BE
:1041900019041092180410921B0410921A046CE96E
:1041A00071E08CE094E00E948F1A0E94F21380EB81
:1041B00093E00E949D1581110FC120E030E048E49A
:1041C00052E46091D4037091D5038091D60390910D
:1041D000D7030E941924882331F060E070E088E45E
:1041E00092E40E947E050E94EF17E1CF61E080918A
:1041F00032040E949D0661E0809133040E949D0676
:1042000080913204082E000C990BFC01EE59F54FF9
:10421000E491F0E0EE0FFF1FE25BF54F2591349142
:1042200030933A0420933904FC01EA58F54FE491A5
:10423000E0933F0480913304082E000C990BFC019D
:10424000EE59F54FE491F0E0EE0FFF1FE25BF54F02
:10425000A591B491B0933C04A0933B04FC01EA58AF
:10426000F54FE491E09340048C91E82BEC9380911E
:10427000270490912804892B09F434C0CFB7F8940F
:1042800080918402811127C0ECE6FAE08491E0E895
:10429000FAE09491E82FF0E0EE0FFF1FEC5BF54F92
:1042A000A591B491EC91E92321F461E08AE00E94A8
:1042B0006F0661E08AE00E949D068CB580618CBD2E
:1042C0008CB580648CBD61E08DE00E949D0661E04C
:1042D0008BE00E949D06809184028F5F8093840210
:1042E000CFBF7FCE61E0809130040E949D0661E0E7
:1042F000809131040E949D0680913004082E000CAC
:10430000990BFC01EE59F54FE491F0E0EE0FFF1F21
:10431000E25BF54F259134913093360420933504B8
:10432000FC01EA58F54FE491E0933D04809131049B
:10433000082E000C990BFC01EE59F54FE491F0E0CA
:10434000EE0FFF1FE25BF54FA591B491B0933804D7
:10435000A0933704FC01EA58F54FE491E0933E0442
:104360008C91E095E823EC933CCE809127049091CA
:104370002804892B31F080914A0490914B040E94CB
:10438000100BE0913B04F0913C049081809140043B
:1043900080958923808366CE8FEC9DCE80369105F3
:1043A00069F48091120490911304409739F480913C
:1043B0002E04813029F480E180934904C2E08ECE3E
:1043C0008FEAFACFE0913B04F0913C048081909118
:1043D0004004892B8083CACE1092190410921804CD
:1043E0008AE090E090931B0480931A0463EA71E0E2
:1043F0008CE094E00E948F1A109219041092180415
:1044000084E190E090931B0480931A046FEA71E0BA
:104410008CE094E00E948F1A0E94F21322242394CD
:10442000812C912C5401839466246A94762C56E056
:10443000352E2092A1030E94300700919103109124
:1044400092032091930330919403AB01BC01401B74
:10445000510B620B730B80919D0390919E03B0E012
:10446000A0E084179507A607B70708F019C1C0E0B8
:1044700080919B03C81760F4E0919703F091980333
:10448000EC0FF11D62E080810E949D06CF5FF0CFAE
:10449000512C80919C03581608F060C0052D10E047
:1044A000E0919903F0919A03E00FF11F61E08081A0
:1044B0000E949D06E0919903F0919A03E00FF11F8D
:1044C00060E080810E946F06D501C401052C04C004
:1044D000880F991FAA1FBB1F0A94D2F76C017C0199
:1044E000E094F094412C80919B03481600F5C42D74
:1044F000D0E080919703909198038C0F9D1FFC0151
:1045000080810E9446062496CC0FDD1FCB5CDC4FD9
:10451000892B41F4888199818C299D2999838883ED
:104520004394E1CF888199818E219F21F7CFE0913B
:104530009903F0919A03E00FF11F61E080810E94DE
:104540006F068091990390919A03080F191F60E0FC
:10455000F80180810E949D0653949BCF05E313E0F0
:10456000E8018F8D98A1892B21F41C8E7E8E6D8E93
:1045700019A22696F3E0C137DF0799F7F12C809155
:104580009B03F81608F052C0E12CCF2CD12CCC0C98
:10459000DD1CA601435C5C4F6A0120919C03E2167E
:1045A00008F042C0F601608171810E2C02C0769540
:1045B00067950A94E2F7F29E900111242E0D311DA9
:1045C000E5E3F3E080E0458D568D2417350709F4C7
:1045D0006BC08F5F36968A30B1F760FF23C0E5E38A
:1045E000F3E090E080E0448D411117C0E091950325
:1045F000F0919603E20FF31F4081389EF001399E3F
:10460000F00D1124EB5CFC4F448F368F258F10A2E8
:10461000178E61E00E943C0705C0019636968A30ED
:10462000910509F7E394B9CFF394A9CFF12CF801E0
:1046300081A18111F82E0A5F1F4FC017D107B9F76A
:104640000E943007609391037093920380939303C9
:1046500090939403FF2021F180915603882301F168
:1046600080915403909155030197D1F480915103A7
:10467000082E000C990B60EC71E08332910529F053
:10468000C19709F0D6CE6AEC71E088E992E00E9409
:104690008F1A69E971E088E992E00E948F1AC9CE09
:1046A0001092A10380E0E4CF6170B4CF81E791E084
:1046B00090930D0480930C0480912B0490912C0412
:1046C000009711F00C94E1260895A1E21A2EAA1B7E
:1046D000BB1BFD010DC0AA1FBB1FEE1FFF1FA217B2
:1046E000B307E407F50720F0A21BB30BE40BF50BAF
:1046F000661F771F881F991F1A9469F76095709538
:10470000809590959B01AC01BD01CF010895052EC8
:1047100097FB1EF400940E949E2357FD07D00E9431
:10472000652307FC03D04EF40C949E2350954095CE
:10473000309521953F4F4F4F5F4F0895909580954D
:10474000709561957F4F8F4F9F4F0895EE0FFF1F1C
:104750000590F491E02D09945058BB27AA270E9498
:10476000C4230C943E250E94302538F00E94372542
:1047700020F039F49F3F19F426F40C942D250EF403
:10478000E095E7FB0C942725E92F0E944F2558F36D
:10479000BA17620773078407950720F079F4A6F526
:1047A0000C9471250EF4E0950B2EBA2FA02D0B0161
:1047B000B90190010C01CA01A0011124FF27591B66
:1047C00099F0593F50F4503E68F11A16F040A22F6C
:1047D000232F342F4427585FF3CF469537952795DD
:1047E000A795F0405395C9F77EF41F16BA0B620BDC
:1047F000730B840BBAF09150A1F0FF0FBB1F661F23
:10480000771F881FC2F70EC0BA0F621F731F841F65
:1048100048F4879577956795B795F7959E3F08F08B
:10482000B0CF9395880F08F09927EE0F979587954D
:1048300008950E94032508F481E008950E9432241F
:104840000C943E250E94372558F00E94302540F0F8
:1048500029F45F3F29F00C94272551110C947225FF
:104860000C942D250E944F2568F39923B1F355230D
:1048700091F3951B550BBB27AA2762177307840773
:1048800038F09F5F5F4F220F331F441FAA1FA9F309
:1048900035D00E2E3AF0E0E832D091505040E695F7
:1048A000001CCAF72BD0FE2F29D0660F771F881F58
:1048B000BB1F261737074807AB07B0E809F0BB0B4B
:1048C000802DBF01FF2793585F4F3AF09E3F51055F
:1048D00078F00C9427250C9472255F3FE4F3983E02
:1048E000D4F3869577956795B795F7959F5FC9F748
:1048F000880F911D9695879597F90895E1E0660FC9
:10490000771F881FBB1F621773078407BA0720F041
:10491000621B730B840BBA0BEE1F88F7E0950895AA
:104920000E9497246894B1110C94722508950E94F6
:10493000572588F09F5798F0B92F9927B751B0F0B5
:10494000E1F0660F771F881F991F1AF0BA95C9F713
:1049500014C0B13091F00E947125B1E008950C941B
:104960007125672F782F8827B85F39F0B93FCCF3CE
:10497000869577956795B395D9F73EF49095809590
:10498000709561957F4F8F4F9F4F0895E89409C0B0
:1049900097FB3EF490958095709561957F4F8F4F72
:1049A0009F4F9923A9F0F92F96E9BB279395F69588
:1049B000879577956795B795F111F8CFFAF4BB0F06
:1049C00011F460FF1BC06F5F7F4F8F4F9F4F16C06A
:1049D000882311F096E911C0772321F09EE8872FF4
:1049E000762F05C0662371F096E8862F70E060E0B0
:1049F0002AF09A95660F771F881FDAF7880F969529
:104A0000879597F90895990F0008550FAA0BE0E8CC
:104A1000FEEF16161706E807F907C0F01216130680
:104A2000E407F50798F0621B730B840B950B39F4C0
:104A30000A2661F0232B242B252B21F408950A2626
:104A400009F4A140A6958FEF811D811D089597F966
:104A50009F6780E870E060E008959FEF80EC089524
:104A600000240A941616170618060906089500244D
:104A70000A9412161306140605060895092E0394C7
:104A8000000C11F4882352F0BB0F40F4BF2B11F43B
:104A900060FF04C06F5F7F4F8F4F9F4F089557FD9A
:104AA0009058440F551F59F05F3F71F04795880F9C
:104AB00097FB991F61F09F3F79F087950895121633
:104AC00013061406551FF2CF4695F1DF08C01616DF
:104AD00017061806991FF1CF869571056105089490
:104AE0000895E894BB2766277727CB0197F90895A7
:104AF0000E94032508F48FEF08950E9490250C94DE
:104B00003E250E94302538F00E94372520F095235D
:104B100011F00C9427250C942D2511240C9472254A
:104B20000E944F2570F3959FC1F3950F50E0551FDC
:104B3000629FF001729FBB27F00DB11D639FAA27F2
:104B4000F00DB11DAA1F649F6627B00DA11D661F41
:104B5000829F2227B00DA11D621F739FB00DA11D62
:104B6000621F839FA00D611D221F749F3327A00D1C
:104B7000611D231F849F600D211D822F762F6A2FB8
:104B800011249F5750409AF0F1F088234AF0EE0F1D
:104B9000FF1FBB1F661F771F881F91505040A9F74A
:104BA0009E3F510580F00C9427250C9472255F3FA1
:104BB000E4F3983ED4F3869577956795B795F79586
:104BC000E7959F5FC1F7FE2B880F911D96958795FE
:104BD00097F9089519F416F40C942D250C943026A9
:104BE0000E945725B8F39923C9F3B6F39F57550B85
:104BF00087FF0E943E260024A0E640EA90018058EC
:104C00005695979528F4805C660F771F881F20F0D3
:104C100026173707480730F4621B730B840B2029D3
:104C200031294A2BA69517940794202531254A2728
:104C300058F7660F771F881F20F026173707480799
:104C400030F4620B730B840B200D311D411DA095B8
:104C500081F7B901842F9158880F9695879508950B
:104C60009F3F31F0915020F4879577956795B795E0
:104C7000880F911D9695879597F90895915050400A
:104C8000660F771F881FD2F708950F931F93CF9356
:104C9000DF938230910510F482E090E0E0914E04C1
:104CA000F0914F0430E020E0B0E0A0E0309799F4BC
:104CB0002115310509F44AC0281B390B2430310570
:104CC000D8F58A819B816115710589F1FB01938378
:104CD0008283FE0111C040815181028113814817F6
:104CE0005907E0F04817590799F4109761F01296A8
:104CF0000C93129713961C933296CF01DF91CF91AC
:104D00001F910F91089500934E0410934F04F4CF18
:104D10002115310551F04217530738F0A901DB0185
:104D20009A01BD01DF01F801C1CFEF01F9CF9093E6
:104D30004F0480934E04CDCFFE01E20FF31F819309
:104D400091932250310939832883D7CF20914C0485
:104D500030914D04232B41F420911501309116011F
:104D600030934D0420934C04209113013091140191
:104D70002115310541F42DB73EB7409117015091EF
:104D80001801241B350BE0914C04F0914D04E217FF
:104D9000F307A0F42E1B3F0B2817390778F0AC015E
:104DA0004E5F5F4F2417350748F04E0F5F1F50933B
:104DB0004D0440934C04819391939FCFF0E0E0E049
:104DC0009CCFCF93DF930097E9F0FC0132971382D9
:104DD0001282A0914E04B0914F04ED0130E020E02A
:104DE0001097A1F420813181820F931F20914C04F0
:104DF00030914D042817390709F061C0F0934D0434
:104E0000E0934C04DF91CF910895EA01CE17DF07BC
:104E1000E8F54A815B819E0141155105B1F7E90131
:104E2000FB83EA8349915991C40FD51FEC17FD0705
:104E300061F4808191810296840F951FE901998325
:104E40008883828193819B838A83F0E0E0E01296DD
:104E50008D919C9113970097B9F52D913C911197E5
:104E6000CD010296820F931F20914C0430914D0486
:104E70002817390739F6309751F510924F041092E0
:104E80004E04B0934D04A0934C04BCCFD383C28393
:104E900040815181840F951FC817D90761F44E5F77
:104EA0005F4F88819981480F591F518340838A81C0
:104EB0009B81938382832115310509F0B0CFF09354
:104EC0004F04E0934E049ECFFD01DC01C0CF13825E
:104ED0001282D7CF81E090E0F8940C947627DC0121
:104EE00001C06D9341505040E0F7089515E0C3E5CF
:104EF000D5E004C0FE010E94A6232196C435D10747
:064F0000C9F7F894FFCF91
:104F06000504030908070631323334353637383994
:104F16002A3023000050048000000000004508A548
:104F260007D20792080308E107F50700000000C54D
:104F360011981179151C0691117E116F1100000050
:104F46000098079C07A007000000007C15000000E1
:104F5600001016DC15DD19D61A55187117AF175B38
:104F66001729170817D416B3165D162E160000005B
:104F7600004E0DA50779150811590A1C06F30FCB2B
:104F86000FE70FDB0F5B101C06140B2315C9091264
:104F96000A140FF70E7F0E200E0D0A0072656D655E
:104FA600647900696E697469616C697A6564007711
:104FB600616974696E6720746F207374617274001E
:104FC6002320707265737365640031207072657397
:044FD600736564009B
:00000001FF
