:100000000C9454050C947C050C947C050C947C0594
:100010000C947C050C947C050C947C050C947C055C
:100020000C947C050C947C050C947C050C947C054C
:100030000C947C050C947C050C947C050C947C053C
:100040000C94451D0C947C050C94B51D0C948F1DCF
:100050000C947C050C947C050C947C050C947C051C
:100060000C94E71D0C947C0500000000003E5B4FE3
:100070005B3E3E6B4F6B3E1C3E7C3E1C183C7E3C08
:10008000181C577D571C1C5E7F5E1C00183C180016
:10009000FFE7C3E7FF0018241800FFE7DBE7FF30A6
:1000A000483A060E2629792926407F050507407F14
:1000B00005253F5A3CE73C5A7F3E1C1C08081C1C87
:1000C0003E7F14227F22145F5F005F5F06097F017D
:1000D0007F006689956A606060606094A2FFA29468
:1000E00008047E040810207E201008082A1C080836
:1000F0001C2A08081E101010100C1E0C1E0C303884
:100100003E3830060E3E0E06000000000000005F84
:1001100000000007000700147F147F14242A7F2AA0
:100120001223130864623649562050000807030062
:10013000001C2241000041221C002A1C7F1C2A08AE
:10014000083E080800807030000808080808000011
:1001500060600020100804023E5149453E00427F85
:10016000400072494949462141494D331814127FD4
:100170001027454545393C4A494931412111090774
:100180003649494936464949291E000014000000F5
:1001900040340000000814224114141414140041C7
:1001A00022140802015909063E415D594E7C121184
:1001B000127C7F494949363E414141227F414141BC
:1001C0003E7F494949417F090909013E4141517337
:1001D0007F0808087F00417F41002040413F017FA8
:1001E000081422417F404040407F021C027F7F0470
:1001F00008107F3E4141413E7F090909063E4151B9
:10020000215E7F09192946264949493203017F01A8
:10021000033F4040403F1F2040201F3F4038403FA9
:10022000631408146303047804036159494D4300BF
:100230007F4141410204081020004141417F0402F6
:10024000010204404040404000030708002054548D
:1002500078407F284444383844444428384444286B
:100260007F385454541800087E090218A4A49C78BE
:100270007F0804047800447D40002040403D007F1A
:100280001028440000417F40007C047804787C08FA
:100290000404783844444438FC18242418182424CE
:1002A00018FC7C08040408485454542404043F44B3
:1002B000243C4040207C1C2040201C3C4030403CE2
:1002C00044281028444C9090907C4464544C440042
:1002D00008364100000077000000413608000201A6
:1002E0000204023C2623263C1EA1A161123A404092
:1002F000207A38545455592155557941225454780F
:1003000042215554784020545579400C1E527212A7
:100310003955555559395454545939555454580030
:1003200000457C410002457D420001457C407D1234
:1003300011127DF0282528F07C5455450020545496
:100340007C547C0A097F4932494949323A44444441
:100350003A324A4848303A4141217A3A424020787C
:10036000009DA0A07D3D4242423D3D4040403D3C7D
:1003700024FF2424487E4943662B2FFC2F2BFF09A2
:1003800029F620C0887E0903205454794100004496
:100390007D413048484A32384040227A007A0A0A81
:1003A000727D0D19317D2629292F282629292926F4
:1003B00030484D4020380808080808080808382F39
:1003C00010C8ACBA2F102834FA00007B00000814C3
:1003D0002A142222142A14085500550055AA55AA99
:1003E00055AAFF55FF55FF000000FF00101010FF39
:1003F00000141414FF001010FF00FF1010F010F094
:10040000141414FC001414F700FF0000FF00FF1484
:1004100014F404FC141417101F10101F101F1414D0
:10042000141F00101010F0000000001F101010101A
:100430001F10101010F010000000FF10101010100E
:1004400010101010FF10000000FF140000FF00FF4C
:1004500000001F10170000FC04F4141417101714E8
:1004600014F404F40000FF00F7141414141414140A
:10047000F700F7141414171410101F101F1414147D
:10048000F4141010F010F000001F101F0000001FE7
:1004900014000000FC140000F010F01010FF10FF1A
:1004A000141414FF141010101F00000000F010FFAF
:1004B000FFFFFFFFF0F0F0F0F0FFFFFF0000000093
:1004C00000FFFF0F0F0F0F0F3844443844FC4A4A17
:1004D0004A347E02020606027E027E0263554941CC
:1004E000633844443C04407E201E2006027E020203
:1004F00099A5E7A5991C2A492A1C4C7201724C3017
:100500004A4D4D303048784830BC625A463D3E49ED
:100510004949007E0101017E2A2A2A2A2A44445F91
:10052000444440514A444040444A51400000FF0185
:1005300003E080FF000008086B6B08361236243693
:10054000060F090F060000181800000010100030F8
:1005500040FF0101001F01011E00191D1712003C80
:100560003C3C3C0000000000000103070F1F3F7FE0
:100570000080C0E0F0F8FCFEDB40A4A62EAF200017
:10058000A1C8D300408DAED580A800006000000057
:100590000000000000000000000000E0000000007B
:1005A00000000000000000000001E000000000006A
:1005B000000000000000000001F00000000000004A
:1005C0000000000000000003F00000000000000038
:1005D00000000000000007F0000000000000000024
:1005E000000000000007F80000000000000000000C
:1005F000000000000FF800000003C0007E000001B2
:10060000E0007F0FF800000003C000FE000001E0E2
:1006100000FFEFF800000003C000FE000001E00052
:10062000FFFFF800000003C000F00000000F007F93
:10063000FE7FC0000003C000F00000000F003FFE7E
:100640007FF83FF1FBCFFCFEF3BC3DEFE01FFE7FE8
:10065000FF7FFBFFDFFEFEFFBC3DEFE01FC6FFFF9D
:100660007FFBFFDFFEFEFFBC3DEFE00FE3C7FE7840
:100670007BC3DE1EF0FFBC3DEF0007FF87FC787BED
:10068000C3DE1EF0F83C3DEF0001FFFFF0007BC32E
:10069000C01EF0F03C3DEF0001F37FE03FFBC3CF15
:1006A000FEF0F03C3DEF0003E33F807FFBC3DFFE45
:1006B000F0F03C3DEF0007E73C00787BC3DE1EF026
:1006C000F03C3DEF0007FFBE00787BC3DE1EF0F07C
:1006D0003C3DEF0007FFFE00787BC3DE1EF0F03CE0
:1006E0003DEF000FFFFE007FFBFFDFFEF0F03FFD60
:1006F000EFE00FFFFF007FFBFFDFFEF0F03FFDEFBD
:10070000E00FF9FF003E79F9CF9EF0F01F3DE7E0E2
:100710001FF1FF0000000000000000000000001FAB
:1007200080FF007FFFFFFFFFFFFFFFFFFFE01C00D8
:100730007F007FFFFFFFFEB46D888D18E000001F73
:10074000007FFFFFFFFE95AD7DB577E000000F0055
:100750007FFFFFFFFEA5AD9D8D19E0000006007F25
:10076000FFFFFFFEB5ADEDB57EE00000000000012B
:100770008000000000000000000003800000000076
:10078000000000000007C0000000000000000000A2
:1007900007C00000000000000000000FC0000000C3
:1007A0000000000000001FE000000000000000004A
:1007B000001FE00000000000000000003FE000001B
:1007C000000000000000003FF000000000000000FA
:1007D00000007FF0000000000000001FF87FF00024
:1007E0000000000000003FFE7FF00000000000005D
:1007F000003FFF7FF0000000000000001FFFFBE053
:10080000000000000000000FFFF9FFC00000000022
:1008100000000FFFF9FFF800000000000007FFF1E3
:10082000FFFF00000000000003FC73FFFF800000DA
:1008300000000001FE3FFFFF80000000000000FFFD
:100840001E0FFF000000000000007FFE1FFC0000E4
:1008500000000000003FFFFFF80000000000000063
:100860000FDFFFE0000000000000001F19FFC000C4
:100870000000000000003F3CFF00000000000000FE
:10088000007E7CF800000000000000007FFE7C007D
:1008900000000000000000FFFFFC0000000000005E
:1008A0000000FFFFFE0000000000000000FFFFFE50
:1008B0000000000000000001FFEFFE00000000004B
:1008C000000001FFCFFE0000000000000003FF0752
:1008D000FE0000000000000003FC07FE0000000016
:1008E00000000003F003FE00000000000000018093
:1008F00000FE000000000000000000007E0000007C
:10090000000000000000003E0000000000000000A9
:1009100000000C000000000000078000FC00000345
:10092000C0000000078001FC000003C000000007B9
:100930008001FC000003C0000000078001E000000F
:10094000001E000000078001E00000001E007FE3A1
:10095000F79FF9FDE7787BDFC0FFF7FFBFFDFDFFE5
:10096000787BDFC0FFF7FFBFFDFDFF787BDFC0F0C6
:10097000F787BC3DE1FF787BDE00F0F787BC3DE107
:10098000F0787BDE0000F787803DE1E0787BDE00D9
:100990007FF7879FFDE1E0787BDE00FFF787BFFDF3
:1009A000E1E0787BDE00F0F787BC3DE1E0787BDEBC
:1009B00000F0F787BC3DE1E0787BDE00F0F787BC14
:1009C0003DE1E0787BDE00FFF7FFBFFDE1E07FFB6C
:1009D000DFC0FFF7FFBFFDE1E07FFBDFC07CF3F38B
:1009E0009F3DE1E03E7BCFC0000000000000000022
:1009F000000000FFFFFFFFFFFFFFFFFFFFC0FFFF43
:100A0000FFFFFD68DB111A31C0FFFFFFFFFD2B5A0E
:100A1000FB6AEFC0FFFFFFFFFD4B5B3B1A33C0FFDC
:100A2000FFFFFFFD6B5BDB6AFDC053534431333086
:100A30003620616C6C6F636174696F6E20666169EA
:100A40006C65640000000000240027002A000000FC
:100A50000000250028002B000000000023002600D5
:100A60002900040404040404040402020202020231
:100A70000303030303030102040810204080010262
:100A800004081020010204081020000000080002E1
:100A90000100000304070000000000000000220025
:100AA000FF210000061F142511241FBECFEFD8E040
:100AB000DEBFCDBF24E0A0EDB1E001C01D92AC349B
:100AC000B207E1F711E0A0E0B1E0EAEDF4E502C021
:100AD00005900D92A03DB107D9F715E0C3E5D5E02B
:100AE00004C02197FE010E94D326C235D107C9F761
:100AF0000E940F210C94602A0C94000096E0899FBC
:100B0000D0011124AF5CBC4F90967C936E935F979D
:100B100091E091969C939197E0919E03F0919F03B1
:100B200090919D03992339F0309751F0811108C0BD
:100B300080914D030994309719F05C968C91FACF0F
:100B400008958F929F92AF92BF92CF92DF92EF92D1
:100B5000FF920F931F93CF93DF938B01D82FC92F51
:100B60009B01482F592F6091D0037091D103809140
:100B7000D2039091D3030E942325882309F43EC019
:100B80008090D4039090D503A090D603B090D70363
:100B900075016401F7FAF094F7F8F094A701960153
:100BA000B8018D2F9C2F0E94232587FD0EC0A50123
:100BB0009401B8018D2F9C2F0E94022875016401B9
:100BC00018161CF06801ED2EFC2E20E030E0A90183
:100BD000C701B6010E94232581111DC01092BB03DD
:100BE0001092BC031092BD031092BE03C092D003BA
:100BF000D092D103E092D203F092D303DF91CF9150
:100C00001F910F91FF90EF90DF90CF90BF90AF902A
:100C10009F908F900895A701960160E074E284E7A9
:100C200099E40E945A279F770E94D3276093BB03C1
:100C30007093BC038093BD039093BE03C1E020E09A
:100C400030E0A901C701B6010E94022818160CF075
:100C5000C0E0C093BA03CACF0895833081F028F46E
:100C6000813099F08230A9F008958730A9F088305A
:100C7000C9F08430B1F4809180008F7D03C08091F1
:100C800080008F7780938000089584B58F7784BD2E
:100C9000089584B58F7DFBCF8091B0008F778093CE
:100CA000B00008958091B0008F7DF9CFCF93DF938E
:100CB000282F30E0F901E657F54F8491F901EA5801
:100CC000F54FD491F901EE59F54FC491CC23A1F021
:100CD00081110E942D06EC2FF0E0EE0FFF1FE85A65
:100CE000F54FA591B491EC91ED2381E090E009F4EA
:100CF00080E0DF91CF91089580E090E0FACF862FD9
:100D00000C9456061F93CF93DF93282F30E0F90100
:100D1000E657F54F8491F901EA58F54FD491F9015E
:100D2000EE59F54FC491CC23A9F0162F81110E94E2
:100D30002D06EC2FF0E0EE0FFF1FE25BF54FA591C3
:100D4000B4918FB7F894EC91111108C0D095DE23BF
:100D5000DC938FBFDF91CF911F910895DE2BF8CFE9
:100D6000862F642F0C948206CF93DF9390E0FC01D2
:100D7000EA58F54F24918E59954FFC0184918823B0
:100D8000C9F090E0880F991FFC01EC5BF54FA5912D
:100D9000B491FC01E25BF54FC591D49161110DC096
:100DA0009FB7F8948C91209582238C938881282377
:100DB00028839FBFDF91CF910895623051F49FB790
:100DC000F8943C91822F809583238C93E8812E2B7D
:100DD000EFCF8FB7F894EC912E2B2C938FBFEACFE7
:100DE000862F642F0C94B4063FB7F89480918C0240
:100DF00090918D02A0918E02B0918F0226B5A89B92
:100E000005C02F3F19F00196A11DB11D3FBFBA2F9C
:100E1000A92F982F8827BC01CD01620F711D811D5C
:100E2000911D42E0660F771F881F991F4A95D1F7E1
:100E300008958F929F92AF92BF92CF92DF92EF92DE
:100E4000FF924B015C010E94F4066B017C010E9441
:100E5000F4066C197D098E099F09683E734081056F
:100E60009105A8F321E0821A9108A108B10888EE43
:100E7000C80E83E0D81EE11CF11C81149104A1046A
:100E8000B10429F7FF90EF90DF90CF90BF90AF9023
:100E90009F908F9008952FB7F89460918802709179
:100EA000890280918A0290918B022FBF08950F933F
:100EB0001F93CF93DF93C82FD62F86E0C89FF001F2
:100EC0001124EF5CFC4F11A2878D90A18130910518
:100ED000F1F058F082309105F1F1039709F440C028
:100EE000DF91CF911F910F9108956623C9F361E0BF
:100EF00070E08C2F0E947E050E944B07609389034F
:100F000070938A0380938B0390938C03E9CF0E94A4
:100F10004B070091890310918A0320918B03309134
:100F20008C03AB01BC01401B510B620B730B809116
:100F30009B0390919C03B0E0A0E084179507A6075F
:100F4000B70748F462E070E08C2FDF91CF911F91DA
:100F50000F910C947E0563E070E0D111C1CFF4CF06
:100F600070E060E0F1CF6F927F928F929F92AF928C
:100F7000BF92CF92DF92EF92FF920F931F93CF9386
:100F8000DF9381E080939D030E944B0700918D03C6
:100F900010918E0320918F0330919003AB01BC011F
:100FA000401B510B620B730B8091990390919A0334
:100FB000B0E0A0E084179507A607B70708F014C1B2
:100FC000C0E080919703C81760F4E0919303F0911B
:100FD0009403EC0FF11D62E080810E94B406CF5FA4
:100FE000F0CF712C812C912C540183948091980323
:100FF000781608F05FC0072D10E0E0919503F0919E
:101000009603E00FF11F61E080810E94B406E09139
:101010009503F0919603E00FF11F60E080810E943C
:101020008206D501C401072C04C0880F991FAA1F8E
:10103000BB1F0A94D2F76C017C01E094F094612C00
:10104000809197036816F8F4C62DD0E0E0919303E1
:10105000F0919403EC0FFD1F80810E9456062496A8
:10106000CC0FDD1FCF5CDC4F892B41F48881998147
:101070008C299D29998388836394E2CF8881998103
:101080008E219F21F7CFE0919503F0919603E00F19
:10109000F11F61E080810E9482068091950390910A
:1010A0009603080F191F60E0F80180810E94B406C2
:1010B00073949CCFC1E3D3E0FE018FEF9FEF278DA8
:1010C00030A1232B21F4148E968F858F11A2369692
:1010D00023E0ED36F20799F7F12C96E0D92E8091B6
:1010E0009703F81608F050C0E12C0F2D10E0000F08
:1010F000111F075C1C4F20919803E21608F042C0B4
:10110000F801608171810E2C02C0769567950A9472
:10111000E2F7F29E900111242E0D311DE1E3F3E080
:1011200080E0458D568D2417350709F461C08F5F27
:1011300036968A30B1F760FF23C0E1E3F3E090E038
:1011400080E0448D411117C0E0919103F09192032A
:10115000E20FF31F4081D89EF001D99EF00D1124BB
:10116000EF5CFC4F448F368F258F10A2178E61E005
:101170000E94570705C0019636968A30910509F7F7
:10118000E394B9CFF394ABCF10E089A18111182F6C
:101190002696F3E0CD36DF07C1F70E944B07609338
:1011A0008D0370938E0380938F039093900311238C
:1011B000D9F0809152038823B9F080915003909127
:1011C0005103019789F480914D03DF91CF911F91D5
:1011D0000F91FF90EF90DF90CF90BF90AF909F90D6
:1011E0008F907F906F90089510929D0380E0EDCFD7
:1011F0006170BECF08950895AF92BF92CF92DF92F3
:10120000EF92FF920F931F93CF93DF936C017B01BB
:101210008B01040F151FEB015E01AE18BF08C0174C
:10122000D10759F06991D601ED91FC910190F081BF
:10123000E02DC6010995892B79F7C501DF91CF9182
:101240001F910F91FF90EF90DF90CF90BF90AF90E4
:101250000895FC01538D448D252F30E0842F90E0BC
:10126000821B930B541710F0CF96089501970895A1
:10127000FC01918D828D981761F0A28DAE0FBF2F6A
:10128000B11D5D968C91928D9F5F9F73928F90E0C0
:1012900008958FEF9FEF0895FC01918D828D98172F
:1012A00031F0828DE80FF11D858D90E008958FEF6C
:1012B0009FEF0895FC01918D228D892F90E0805C35
:1012C0009F4F821B91098F739927089584E992E0BB
:1012D0000E945A0921E0892B09F420E0822F089509
:1012E00080E090E0892B29F00E94660981110C941E
:1012F00000000895FC01A48DA80FB92FB11DA35AB9
:10130000BF4F2C91848D90E001968F739927848F25
:10131000A689B7892C93A089B1898C918370806448
:101320008C93938D848D981306C00288F389E02DE9
:1013300080818F7D80830895EF92FF920F931F939A
:10134000CF93DF93EC0181E0888F9B8D8C8D981378
:101350001AC0E889F989808185FF15C09FB7F89484
:10136000EE89FF896083E889F989808183708064D0
:1013700080839FBF81E090E0DF91CF911F910F911B
:10138000FF90EF900895F62E0B8D10E00F5F1F4F2A
:101390000F731127E02E8C8D8E110CC00FB607FC39
:1013A000FACFE889F989808185FFF5CFCE010E94C7
:1013B0007A09F1CFEB8DEC0FFD2FF11DE35AFF4FB2
:1013C000F0829FB7F8940B8FEA89FB898081806255
:1013D000CFCFCF93DF93EC01888D8823B9F0AA8912
:1013E000BB89E889F9898C9185FD03C0808186FDE0
:1013F0000DC00FB607FCF7CF8C9185FFF2CF80812F
:1014000085FFEDCFCE010E947A09E9CFDF91CF9120
:101410000895EF92FF920F931F93CF93DF93EC0108
:10142000EC80FD806E157F050CF070C057FF04C086
:10143000240F351F50E040E08E819F81FA01E20FBA
:10144000F31F8E179F071CF49C01241B350B1216EB
:1014500013060CF05BC0922F842F86958695869597
:101460008E9DD0018F9DB00D11246A0F7B1FAF8D13
:10147000B8A1A60FB71F477049F188E0841B482F19
:10148000682F70E0FB01E059FA4FE491281708F04B
:1014900063C0621B71092FEF30E002C035952795BC
:1014A0006A95E2F7E2230130110539F0B0F102301C
:1014B000110561F58C91E82702C08C91E82BEC9323
:1014C000941720F12C813D81A20FB31FE92FE41B5B
:1014D000E83078F00230110521F58E2F9C9190951F
:1014E0009C932C813D81A20FB31F88508830B0F7A8
:1014F000E770EE2359F0F0E0E859FA4FE49101303B
:101500001105F9F010F10230110519F1DF91CF91B9
:101510001F910F91FF90EF900895E0958C91E82333
:10152000CECF81E00115110509F480E081959E2F51
:101530008C932C813D81A20FB31F98509830C0F737
:10154000D7CF8C91E82BEC93E1CFE0958C91E823F9
:10155000FACF8C91E827F7CF0130110509F4ADCF10
:10156000E0F20230110509F4A5CFAE0DBF1DAECFDC
:101570000F931F93CF93DF9377FF04C0260F371F7E
:1015800070E060E0DC011496CD91DC91FB01E20F8C
:10159000F31FCE17DF071CF49E01261B370B121614
:1015A00013064CF5FA0157FD3796A3E0F595E7953C
:1015B000AA95E1F7EC9FD001ED9FB00DFC9FB00D17
:1015C00011246A0F7B1FDC015F96ED91FC91E60F01
:1015D000F71F4770552781E090E001C0880F4A95BA
:1015E000EAF7482F0130110559F0A8F02E0F3F1FE0
:1015F00002301105E1F0DF91CF911F910F91089515
:101600002E0F3F1FE217F307B1F38191DF0111970E
:10161000842B8C93F7CF80952E0F3F1FE217F30793
:1016200051F39191DF01119798239C93F7CFE21723
:10163000F30709F38191DF01119784278C93F7CF8A
:101640000F931F93FA01DC0156964C915697423046
:10165000E9F04330A1F1413061F514964D915C9170
:10166000DA01AE1BBF0BFD01E21BF30B77FD0BC0D4
:10167000DC0116964D915C916417750724F4AB015B
:10168000BF010E94B80A1F910F91089514964D91C1
:101690005C91DA01A61BB70BBD0161507109DC0139
:1016A00016964D915C91DA01AE1BBF0BFD01E21B5A
:1016B000F30B77FDE8CFAF010E94090AE4CF16963D
:1016C0004D915C91DA01A61BB70BBD016150710908
:1016D000CDCF0F931F93FA01DC0156964C9156978C
:1016E0004230A9F0433091F1413019F514964D91F3
:1016F0005C91DA01AE1BBF0BFD013197F7FD04C011
:10170000AB01BF010E94090A1F910F910895149621
:101710004D915C91DA01A61BB70BBD01DC01169659
:101720004D915C91DA01AE1BBF0BFD013197621B3D
:10173000730BF7FDE9CFDC0116964D915C91E41730
:10174000F50714F7AF010E94B80ADECF16964D9147
:101750005C91DA01A61BB70BBD01621B730BCECFE8
:10176000FC0177FD64C080859185681779070CF0CE
:101770005EC057FD5CC082859385481759070CF001
:1017800056C086898230B1F0833029F1813041F42E
:1017900084819581841B950BAB01BC01615071095B
:1017A0002130310509F108F443C02230310509F434
:1017B00063C0089584819581DC01A61BB70BBD0130
:1017C0006150710986819781DC01A41BB50BAD01C5
:1017D00041505109E5CF86819781861B970BBA014D
:1017E000AC0141505109DCCFCA0157FD0796A3E077
:1017F00095958795AA95E1F7A481B5818A9F900177
:101800008B9F300D9A9F300D1124620F731F078C30
:10181000F0A1E02DE60FF71F4770552721E030E0DB
:1018200001C0220F4A95EAF78081822B80830895B8
:10183000CA0157FD079633E0959587953A95E1F7EC
:10184000A481B5818A9F90018B9F300D9A9F300DA6
:101850001124620F731F078CF0A1E02DE60FF71F14
:101860004770552781E090E001C0880F4A95EAF75C
:10187000809590818923DACFCA0157FD079623E02E
:10188000959587952A95E1F7A481B5818A9F900166
:101890008B9F300D9A9F300D1124620F731F078CA0
:1018A000F0A1E02DE60FF71F4770552721E030E04B
:1018B00001C0220F4A95EAF780818227B7CF0895A9
:1018C0008EBD00000DB407FEFDCF8EB508958CBD12
:1018D0009DBD08950895FC016370668B8481958198
:1018E00026813781613039F0633029F09187808714
:1018F00033872287089531872087938782870895C9
:101900002F923F924F925F926F927F928F929F920F
:10191000AF92BF92CF92DF92EF92FF920F931F93FD
:10192000CF93DF93CDB7DEB76A970FB6F894DEBFDB
:101930000FBECDBF9A8F898F7A8369834A01D22ED9
:1019400018870F833701BC2CDC0159962D913C91EF
:101950005A972115310509F015C118968D919C9162
:101960001997681779070CF0D7C11A968D919C9139
:10197000481759070CF0D0C14C2C512CB6E0CB9E27
:10198000600D711D11247C876B87161617060CF0ED
:10199000C3C1EA2DF0E0FA87E98793E0EE0FFF1F5D
:1019A0009A95E1F7F88BEF87CF01840F951F1816F2
:1019B00019060CF0B1C1A98DBA8D58968C91811180
:1019C00004C0BFEABD1508F4D394A98DBA8DED917A
:1019D000FC9111970284F385E02DCD010995B5E0C6
:1019E000DB9EC0011124E981FA81FC83EB83312C59
:1019F000212C9C0128593F4F388F2F8B4A2D50E0C6
:101A00005E8B4D8BEF89F88DE20DF31D44919E8224
:101A10008D82D12CC12C69817A81620D731D7A8BE4
:101A2000698B842F90E09C8B8B8BE98DFA8DA08144
:101A3000B18140FF82C0F1E0BF126FC0AF126DC034
:101A40001C96ED91FC912F813885A4014C0D5D1DF4
:101A500069897A89898D9A8D0995EB89FC89F59533
:101A6000E7954E2F5FEFC51AD50A6D817E818D896E
:101A70009E89680F791F7E836D8398E0C916D10413
:101A800081F6AFEF2A1A3A0AEB81FC81E40DF51DCD
:101A9000FC83EB83F5E02F16310409F0B3CF2F81DF
:101AA000388526153705B9F0A98DBA8DED91FC91D1
:101AB000B1E0BB1257C0AB1255C069817A816B5F30
:101AC0007F4F0088F189E02D830128E030E0A401F8
:101AD000898D9A8D0995A98DBA8DED91FC911197FB
:101AE0000688F789E02DCD016A960FB6F894DEBF1F
:101AF0000FBECDBFDF91CF911F910F91FF90EF905F
:101B0000DF90CF90BF90AF909F908F907F906F901D
:101B10005F904F903F902F9009941E96ED91FC910D
:101B2000EF80F88409851A8592014D815E816B8171
:101B30007C81898D9A8D099590CF2F8138852615C6
:101B4000370509F48ACF31E0B31207C0A31205C0EC
:101B50001C96ED91FC91930178CF1E96ED91FC912E
:101B60007301E0CF6B857C85641975090684F78560
:101B7000E02D73010F8518899201A401898D9A8D3A
:101B80000995A9CFF90134969491329745915491D2
:101B9000D91AB7E0DB9E400D511D1124F9012591A2
:101BA00034913C8B2B8BFA0125903490FA013296BC
:101BB000749031963491398B32966490319644907A
:101BC00041E04C1518F04A1508F07FC0662D062C30
:101BD000000C770B7C836B83842D042C000C990BF9
:101BE0009E838D83A98DBA8DED91FC91119702840E
:101BF000F385E02DCD010995512CD12CC12CEA2D76
:101C0000F0E0FA87E9872B2D30E03C872B87A40191
:101C1000440D511D47FC5A95588F4F8B69817A812D
:101C2000660D711D67FC7A957E876D877989C71669
:101C300008F051CF2C2D30E04D815E81420F531FB3
:101C4000A985BA854A9FC0014B9F900D5A9F900D60
:101C50001124FC01E80DF91DF88BEF87852D612C0F
:101C60004F89588D420F531F5E8B4D8B671408F0C0
:101C700050C044244394480E877041F4C10101963A
:101C8000EB89FC89E20DF31DD4901C01D7FE19C02D
:101C9000A98DBA8DED91FC91662D70E0B1E0BB127B
:101CA00019C0AB1217C02D853E85620F731F0484C7
:101CB000F585E02D2F8138854D895E89898D9A8D36
:101CC0000995DD0C6394842DD1CF1E821D821C8268
:101CD0001B8288CF4B815C81640F751FAB85BC85EF
:101CE0006A9FC0016B9F900D7A9F900D11246981AE
:101CF0007A81680F791F0684F785E02DEF80F884DC
:101D000009851A859D014F855889898D9A8D099578
:101D1000D8CF570CC3948ACF6A960FB6F894DEBF1B
:101D20000FBECDBFDF91CF911F910F91FF90EF902C
:101D3000DF90CF90BF90AF909F908F907F906F90EB
:101D40005F904F903F902F9008958F929F92AF9207
:101D5000CF92EF92FF920F931F93CF93DF93EC01FB
:101D6000262F898D9A8D009709F051C06A30D1F4E1
:101D70001D861C868D8948E0849F900111248E85E4
:101D80009F85820F931F9F878E8781E090E0DF9170
:101D9000CF911F910F91FF90EF90CF90AF909F90B8
:101DA0008F9008956D3089F3CC88AD888F89882312
:101DB000C1F08C859D8536E0C39E800D911D112458
:101DC000488559854817590764F44E855F851D86F7
:101DD0001C8638E0A39EC0011124840F951F9F87A5
:101DE0008E87EA88FB88088919894E855F856C850E
:101DF0007D85CE010E94800C2C898C859D8546E0D6
:101E0000249F800D911D11249D878C87BECF6A3041
:101E100069F41D861C86FC013896E4912D898E8517
:101E20009F85E29F800D911D1124ADCF6D3009F487
:101E3000ACCFFC0134963491631708F4A6CF3296E8
:101E4000E491E61708F4A1CFFC01329685909490B6
:101E5000462F431B342F47E0349F800C911C1124E4
:101E6000F401329634913196E4913323A9F1EE23B3
:101E700099F1CC88F4013596E491AD884F894423DB
:101E800001F10E2E000CFF0BE30FF11DCE9EA00101
:101E9000CF9E500D11246C857D85460F571F688598
:101EA0007985641775076CF44E855F851D861C86E1
:101EB000FC013896E491AE9E400D511D11245F87C0
:101EC0004E87EA88FB88088919894E855F856C856D
:101ED0007D85CE010E94800CF4013496E4912C891A
:101EE0008C859D85E29F800D911D11248DCF6F9271
:101EF0007F928F929F92AF92BF92CF92DF92EF929A
:101F0000FF920F931F93CF93DF93EC016B015A0164
:101F100039014801E881F9810284F385E02D0995B2
:101F2000E881F9810288F389E02D87019301A501F9
:101F3000B601CE010995A501480D591D4150510921
:101F4000E881F9810288F389E02D9301B601CE0181
:101F50000995E881F9810088F189E02D9401A501B6
:101F6000B601CE010995C60CD71CB60161507109A6
:101F7000E881F9810088F189E02D9401A501CE0165
:101F80000995E881F9810688F789E02DCE01DF9176
:101F9000CF911F910F91FF90EF90DF90CF90BF9066
:101FA000AF909F908F907F906F9009946F927F92E7
:101FB0008F929F92AF92BF92CF92DF92EF92FF9259
:101FC0000F931F93CF93DF935C01EB016A014901EB
:101FD00038018701DC01ED91FC916217730719F557
:101FE000641675062CF0962D872D3A01C92ED82E31
:101FF0009601261937092F5F3F4F048CF58DE02D90
:10200000A301BE01C5010995DF91CF911F910F91E9
:10201000FF90EF90DF90CF90BF90AF909F908F9008
:102020007F906F9008954615570591F4261737074E
:1020300024F0892D4B01C22FD82F9E012819390970
:102040002F5F3F4F068CF78DE02DA601B401DACF4C
:102050000284F385E02D0995D501ED91FC9104886A
:10206000F589E02D83019401A601BE01C501099502
:10207000D501ED91FC910688F789E02DC501DF912E
:10208000CF911F910F91FF90EF90DF90CF90BF9075
:10209000AF909F908F907F906F900994EF92FF92F6
:1020A0000F931F93DC011A960D911C911B971896A4
:1020B0002D913C911997ED91FC9100A0F1A1E02D9B
:1020C0007B0150E040E070E060E009951F910F91C6
:1020D000FF90EF9008954F925F926F927F928F9250
:1020E0009F92AF92BF92CF92DF92EF92FF920F93A7
:1020F0001F93CF93DF936C012B015A0139014801E3
:10210000DC01ED91FC910284F385E02D0995E2015B
:10211000640C751CD601ED91FC91C615D7055CF4D5
:102120000088F189E02D87019401A501BE01C60157
:1021300009952196EFCF0688F789E02DC601DF913A
:10214000CF911F910F91FF90EF90DF90CF90BF90B4
:10215000AF909F908F907F906F905F904F90099479
:102160008F929F92AF92BF92CF92DF92EF92FF92A7
:102170000F931F93CF93DF93EC015B014A01690139
:10218000E881F9810284F385E02D099595012C0DF4
:102190003D1D21503109E881F9810488F589E02D40
:1021A00078018401A401B501CE010995E881F98186
:1021B0000688F789E02DCE01DF91CF911F910F9115
:1021C000FF90EF90DF90CF90BF90AF909F908F9057
:1021D00009948F929F92AF92BF92CF92DF92EF922B
:1021E000FF920F931F93CF93DF93EC015B014A01A2
:1021F00069017801E881F9810284F385E02D099570
:10220000C80CD91C860101501109E881F9810488A4
:10221000F589E02D9501A401B501CE010995E8816C
:10222000F9810688F789E02DCE01DF91CF911F91CA
:102230000F91FF90EF90DF90CF90BF90AF909F9065
:102240008F900994EF92FF920F931F93DC01ED9111
:10225000FC9100A0F1A1E02D09951F910F91FF9035
:10226000EF9008950F931F93DC01ED91FC91068C84
:10227000F78DE02D09951F910F9108950F931F93EE
:10228000DC01ED91FC91048CF58DE02D09951F91F9
:102290000F910895DC01ED91FC910084F185E02D12
:1022A00009943F924F925F926F927F928F929F928A
:1022B000AF92BF92CF92DF92EF92FF920F931F9354
:1022C000CF93DF935C017B014A016901390187E00B
:1022D000680E711C93E0759467949A95E1F72B0151
:1022E000400E511E10E000E0312CD0E0C0E0CE01E5
:1022F00087709927330C892B59F4FE0183E0F595FB
:10230000E7958A95E1F7E00FF11FE80DF91D34908C
:1023100037FE0AC021E030E0A701B5016C0F7D1F38
:1023200088E094E00E944A112196CC16DD06F9F669
:102330008FEFE81AF80A060D171DE414F504A9F644
:10234000DF91CF911F910F91FF90EF90DF90CF9091
:10235000BF90AF909F908F907F906F905F904F90C5
:102360003F9008952F923F924F925F926F927F928B
:102370008F929F92AF92BF92CF92DF92EF92FF9295
:102380000F931F93CF93DF9300D000D000D0CDB731
:10239000DEB73C016A013E832D83FC82EB8258014B
:1023A000A41AB50AB7FE03C0B194A194B1088D80F8
:1023B0009E80861A970A97FE03C091948194910893
:1023C0008A149B045CF0902F812F0D811E819D83C8
:1023D0008E839C2D8D2D6B01692F782F0C151D057B
:1023E0005CF09D818E817E836D83692F782F902F85
:1023F000812F8601C92ED82E1601201A310A2B01F1
:102400002D813E81421A530A57FE03C051944194D4
:102410005108710137FE03C03FEFE31AF30AF59448
:10242000E7948D819E81861797075CF5A1E0B0E067
:10243000BA83A983C016D1064CF1D301ED91FC916A
:102440000484F585E02D2B813C81A8016D817E817E
:102450008A149B041CF04D815E81B801C30109956B
:10246000E418F508F7FE0AC02D813E8189819A8122
:10247000280F391F3E832D83E20CF31C0F5F1F4F83
:10248000D9CF2FEF3FEF3A832983D4CF26960FB6CB
:10249000F894DEBF0FBECDBFDF91CF911F910F919A
:1024A000FF90EF90DF90CF90BF90AF909F908F9074
:1024B0007F906F905F904F903F902F900895089578
:1024C00020913602260F3327331F21323105ECF4D9
:1024D00020915A02FC0190E080E0243069F082E013
:1024E0000895A09136022191AC014A5E5D4FA40F80
:1024F000B52FB11D2C930196861798F38091360263
:10250000680F6093360280E0089581E0089510928C
:102510005A0281E080935C0210925B0261E082E1EA
:102520000E94820661E083E10E948206E9EBF0E00E
:1025300080818E7F808380818D7F808388E48093FB
:10254000B80085E48093BC000895CF93DF9391E0B9
:10255000909315028823B9F0C091B800D091BA00C9
:102560008091BC008A7B8093BC0060E082E10E9485
:10257000820660E083E10E9482060E948712D09367
:10258000BA00C093B800DF91CF910895E091860220
:1025900080918502E81730F4F0E0E051FE4F808131
:1025A00090E008958FEF9FEF0895909186028091BB
:1025B00085022FEF3FEF981748F4E92FF0E0E05144
:1025C000FE4F208130E09F5F90938602C9010895FD
:1025D0008091850290918602891B990B0895CF9274
:1025E000DF92EF92FF920F931F93CF93DF937C01C3
:1025F000CB018A0120919302222389F0EB016B0128
:10260000C40ED51ECC15DD0569F06991D701ED9199
:10261000FC910190F081E02DC7010995F3CF642F63
:102620000E946012C801DF91CF911F910F91FF901E
:10263000EF90DF90CF900895CF93DF931F92CDB7A7
:10264000DEB76983209193022223F9F02091900252
:10265000203258F021E030E0FC013383228390E007
:1026600080E00F90DF91CF91089580919102E82F43
:10267000F0E0E053FE4F998190838F5F8093910249
:102680008093900281E090E0ECCF61E0CE01019672
:102690000E946012F7CFCF92DF92EF92FF920F93DA
:1026A0001F93CF93DF93D091900281E0D13208F055
:1026B0009CC0C09192020E94F4066B017C01809143
:1026C0005A0281116CC082E080935A0281E08093AB
:1026D0005C028FEF8093590210927E02D0937D02AC
:1026E000A0EDB1E0EDE5F2E080E0D8138DC01092EE
:1026F0007F0280917F02CC0FC82BC0937F02809114
:102700005B02813009F084C010925B020E94F406E3
:102710006B017C0180917F028093BB00809111024C
:1027200090911202A0911302B0911402892B8A2B6E
:102730008B2BA1F00E94F40600911102109112025D
:1027400020911302309114026C197D098E099F09A2
:10275000061717072807390708F442C08091BC0004
:1027600083FDD8CF85EC8093BC000E94F4066B01FA
:102770007C0180915A02823009F44CC08091590248
:102780008F3F09F469C080915902803209F466C014
:1027900080915902803309F463C084E026C080919F
:1027A000110290911202A0911302B0911402892B90
:1027B0008A2B8B2B09F483CF0E94F406009111021F
:1027C0001091120220911302309114026C197D09AC
:1027D0008E099F09061717072807390708F06FCFDA
:1027E000809110020E94A51285E010929102109231
:1027F000900210929302DF91CF911F910F91FF9061
:10280000EF90DF90CF9008959D9191938F5F6DCF62
:1028100085EEA9CF8091110290911202A09113022E
:10282000B0911402892B8A2B8B2B09F4A2CF0E9422
:10283000F4060091110210911202209113023091BE
:1028400014026C197D098E099F09061717072807BE
:10285000390708F08ECFC4CF80E0C7CF82E0C5CF64
:1028600083E0C3CFEF92FF920F931F93CF93DF9339
:102870007C01C62F8091250490912604009709F4CD
:1028800059C02091290431E03093930220939202A1
:102890001092910210929002DC01ED91FC91019056
:1028A000F081E02D60E009958701EE24E394F12C9E
:1028B000D1E0C1508091250490912604CF3F91F141
:1028C000B0E2EB16F104D8F00E944B13809125047E
:1028D0009091260420912904D09393022093920290
:1028E0001092910210929002DC01ED91FC91019006
:1028F000F081E02D60E00995EE24E394F12C8091C5
:10290000250490912604F8016491DC01ED91FC917D
:102910000190F081E02D0995BFEFEB1AFB0A0F5FE4
:102920001F4FC7CFDF91CF911F910F91FF90EF9075
:102930000C944B13E0913504F09136049081809112
:102940003B048095892380838701C15008F438C0F7
:10295000F80184912091230430912404232B29F041
:102960000E94600C0F5F1F4FF0CF28E030E040E87E
:10297000E0913104F091320490913904582F54239E
:10298000D9F05081952B9083E0913304F091340479
:10299000908150913A04952B9083E0913304F0910B
:1029A0003404508190913A049095952390834695F4
:1029B00021503109E9F6D6CF508190959523E3CF88
:1029C000DF91CF911F910F91FF90EF9008951F938A
:1029D000CF93DF93EC018D8D9E8D009721F1162F03
:1029E00029A131E030939302209392021092910238
:1029F00010929002DC01ED91FC910190F081E02DAC
:102A000060E009958D8D9E8DDC01ED91FC9101902A
:102A1000F081E02D612F09958D8D9E8DDF91CF91F5
:102A20001F910C944B13ADA5BEA59C918BA98095CD
:102A300089238C938B8D9C8D892B31F0862FDF9190
:102A4000CF911F910C94600C28E030E080E8A9A59C
:102A5000BAA599A9462F4823C1F04C91942B9C9379
:102A6000ABA5BCA59C914AA9942B9C93ABA5BCA5F6
:102A70004C919AA9909594239C9386952150310965
:102A800031F7DF91CF911F9108954C919095942348
:102A9000E6CFDF92EF92FF920F931F93CF93DF93D6
:102AA0008091250490912604892B09F498C02091E7
:102AB0003D0430913E0440913F045091400460E059
:102AC00074E284EF90E00E9492262051310941097E
:102AD000510956954795379527952093B80065E09D
:102AE0008EE99AE00E94321460910C04615088E0F3
:102AF00094E00E94E71420910E0430910F04C90164
:102B0000079697FD079633E0959587953A95E1F7F7
:102B100020910C0430910D04829F8001839F100D41
:102B2000929F100D1124C0912704D0912804809108
:102B30002504909126040C0F1D1F009709F48FC0E7
:102B40002091290431E03093930220939202109255
:102B5000910210929002DC01ED91FC910190F081C4
:102B6000E02D60E40995EE24E394F12CDD24D39468
:102B700080912504909126040C171D0709F446C086
:102B8000B0E2EB16F104D8F00E944B1380912504BB
:102B90009091260420912904D092930220939202CE
:102BA0001092910210929002DC01ED91FC91019043
:102BB000F081E02D60E40995EE24E394F12C8091FE
:102BC0002504909126046991DC01ED91FC9101901E
:102BD000F081E02D0995BFEFEB1AFB0AC9CF809178
:102BE000230490912404892B31F080914604909124
:102BF00047040E94670CE0913704F09138049081FB
:102C000080913C0480958923808369CF0E944B1377
:102C10008091250490912604892B09F461C02091AC
:102C2000410430914204409143045091440460E0D7
:102C300074E284EF90E00E9492262051310941090C
:102C4000510956954795379527952093B800DF9100
:102C5000CF911F910F91FF90EF90DF900895E09139
:102C60003504F0913604808190913B04892B808358
:102C70000C171D0769F289912091230430912404D7
:102C8000232B19F00E94600CF3CF28E030E040E8DD
:102C9000E0913104F091320490913904582F54237B
:102CA000D9F05081952B9083E0913304F091340456
:102CB000908150913A04952B9083E0913304F091E8
:102CC0003404508190913A049095952390834695D1
:102CD00021503109E9F6CCCF508190959523E3CF6F
:102CE000E0913704F0913804808190913C04892B65
:102CF0008083ADCF1F93CF93DF93EC01162F8D8D83
:102D00009E8D892BB1F12DA93EA94FA958AD60E048
:102D100074E284EF90E00E9492262051310941092B
:102D2000510956954795379527952093B80066EA3F
:102D3000111167EACE010E94E7148D8D9E8D892BBB
:102D400041F129AD3AAD4BAD5CAD60E074E284EF8A
:102D500090E00E949226205131094109510956956F
:102D60004795379527952093B800DF91CF911F9114
:102D700008958B8D9C8D892B21F08EAD9FAD0E9487
:102D8000670CEFA5F8A990818CA980958923808391
:102D9000CECFEFA5F8A980819CA9892B8083E5CFB0
:102DA00090E080E00895CF93DF93EC018885811156
:102DB0000EC0898591E098879A8562E0911101C0E3
:102DC00060E00E94B4068FE090E00197F1F78985FA
:102DD0000E9456063B8521E03817190609F420E0C9
:102DE000822FDF91CF9108950F931F93CF938C0182
:102DF0000E94D316C82F0E944B07F8012281213070
:102E000091F030F02230F1F0233011F1C0E006C033
:102E1000C111FCCF7483638381E082838C2FCF91B7
:102E20001F910F910895CC2311F01282EFCF2381CF
:102E30003481621B730B6F30710580F382E0F801FF
:102E40008283E4CFCC2351F37483638383E0F8CF90
:102E5000CC23A1F323813481621B730B6F30710586
:102E6000A8F21282DBCFCF93DF93FC0127812223CC
:102E700059F1EC0161E080850E94B40661E089852A
:102E80000E94B4068F81843011F08830B1F461E083
:102E90008A850E94B40661E08B850E94B4068FA5E6
:102EA0008F3F91F061E00E94B4066EA581E0682733
:102EB0008FA5DF91CF910C948206833011F086307C
:102EC00071F761E08A85E9CFDF91CF910895CF93C3
:102ED000DF93FC0127812223A9F0EC010190F0810E
:102EE000E02D0284F385E02D60E009958FA58F3FEA
:102EF00049F061E00E94B4066EA58FA5DF91CF91E5
:102F00000C948206DF91CF910895DC01ED91FC9144
:102F10002285338547705527662777274150510909
:102F200061097109473051056105710560F4FA01C5
:102F3000E456F84E0C94D326A617A817AA17AC1778
:102F4000AE17B017B21761E0F901099465E0FCCF44
:102F500064E0FACF66E0F8CF62E0F6CF6AE0F4CF43
:102F600068E0F2CF69E0F0CFCF93DF93EC01CB01C3
:102F7000BA0126E030E040E050E00E94B426623022
:102F800071058105910589F16CF461157105810563
:102F90009105D1F06130710581059105F9F0DF915E
:102FA000CF910895643071058105910561F124F197
:102FB000653071058105910591F7E881F9810284F9
:102FC000F385E02D66E006C0E881F9810284F3858F
:102FD000E02D64E0CE01DF91CF910994E881F98181
:102FE0000284F385E02D65E0F5CFE881F981028464
:102FF000F385E02D61E0EECFE881F9810284F3856D
:10300000E02D63E0E7CFE881F9810284F385E02DCC
:1030100062E0E0CFDC01ED91FC910284F385E02DCC
:1030200043705527662777274230510561057105A2
:1030300071F0433051056105710559F0413051057A
:103040006105710511F065E0099466E0FDCF6AE065
:10305000FBCF69E0F9CFCF93DF93EC01CB01BA014D
:1030600023E030E040E050E00E94B426613071057A
:103070008105910599F06230710581059105A9F0EE
:10308000672B682B692BC1F4E881F9810284F385F1
:10309000E02D64E0CE01DF91CF910994E881F981C0
:1030A0000284F385E02D61E0F5CFE881F9810284A7
:1030B000F385E02D62E0EECFDF91CF910895DC0142
:1030C000ED91FC910284F385E02D4370552766272E
:1030D0007727423051056105710571F04330510584
:1030E0006105710559F0413051056105710511F017
:1030F00062E0099463E0FDCF61E0FBCF60E0F9CFCF
:10310000CF93DF93EC01E881F9810284F385E02D10
:103110008A8160E0811162E0CE010995E881F98140
:103120000284F385E02D8A8161E0811163E0CE01A4
:1031300009958CA59DA58230910538F0880F991FBF
:10314000880F991F05970197F1F7E881F9810284AB
:10315000F385E02D8A8160E0811162E0CE01DF918C
:10316000CF910994CF93DF93EC0120E030E0A901E7
:10317000688D798D8A8D9B8D0E94022818162CF4FB
:10318000E8A9F9A9DF91CF910994EAA9FBA9FACF9F
:10319000CF92DF92EF92FF920F931F93CF93DF9323
:1031A000DC011796CC91C43039F0C83059F1C330E6
:1031B00019F0C63049F1C2E08C01085F1F4FF12CB5
:1031C000E12CC62ED12CD1E0F8016481C6010E2C71
:1031D00002C0959587950A94E2F780FD6D270F5FF1
:1031E0001F4F80810E948206BFEFEB1AFB0AEC168C
:1031F00058F3DF91CF911F910F91FF90EF90DF90E7
:10320000CF900895C4E0D8CFC3E0D6CFDC011796A5
:10321000EC911797E93008F038C0F0E0EE5EF64E1A
:103220000C94D3261B19211927192D193319451967
:10323000391945193F19ED91FC910684F785E02D68
:103240000994ED91FC910088F189E02DF9CFED9181
:10325000FC910288F389E02DF3CFED91FC91048875
:10326000F589E02DEDCFED91FC910688F789E02DF1
:10327000E7CFED91FC91008CF18DE02DE1CFED9148
:10328000FC91028CF38DE02DDBCF0895CF92DF927D
:10329000EF92FF928091BB039091BC03A091BD037C
:1032A000B091BE03892B8A2B8B2B31F480E0FF90E9
:1032B000EF90DF90CF9008950E94F4066B017C019F
:1032C0008091E0039091E103A091E203B091E303C8
:1032D000B701A601481B590B6A0B7B0B8091BB03FE
:1032E0009091BC03A091BD03B091BE03481759074C
:1032F0006A077B07D8F28091C8039091C903A09117
:10330000CA03B091CB032091BA03222309F101969D
:10331000A11DB11D8093C8039093C903A093CA0354
:10332000B093CB034091C8035091C9036091CA0385
:103330007091CB0388EB93E00E940619C092E003E2
:10334000D092E103E092E203F092E30381E0AFCF99
:103350000197A109B109DECF4F925F926F927F92E0
:103360008F929F92AF92BF92CF92DF92EF92FF9295
:103370000F931F93CF93DF93EC01CC88DD88EE8809
:10338000FF8888899989AA89BB89C81AD90AEA0A53
:10339000FB0A688D798D8A8D9B8D9B01AC010E9403
:1033A00089254B015C0168A179A18AA19BA19B01A0
:1033B000AC010E94EE269B01AC01C501B4010E9444
:1033C0005A270E94CC27C114D104E104F10409F06A
:1033D000B6C062307105810591050CF0D0C01B822A
:1033E0001C821D821E82188E198E1A8E1B8E1CAA9C
:1033F0001DAA1EAA1FAAC12CD12C7601C701B60195
:10340000DF91CF911F910F91FF90EF90DF90CF90C0
:10341000BF90AF909F908F907F906F905F904F90F4
:1034200008951016110612061306B4F46C157D05E6
:103430008E059F051CF42A812111A1C09B01AC01BE
:1034400088279927DC01821B930BA40BB50B8CAB4F
:103450009DABAEABBFAB93C0011511052105310586
:1034600009F48DC06C157D058E059F050CF087C095
:103470008A81882309F483C03095209510950195A1
:103480001F4F2F4F3F4F0CAB1DAB2EAB3FAB77C049
:10349000011511052105310509F471C0882499240D
:1034A00054018C189D08AE08BF08681579058A0577
:1034B0009B050CF064C08A81811161C0DDCFCCAC6A
:1034C000DDACEEACFFACA7019601C701B6010E94CE
:1034D000EE262B013C01C501B4010E942A2520E003
:1034E00030E040E850E40E94892520E030E040E8E8
:1034F0005FE30E94EE269B01AC01C301B2010E9472
:103500005A279B01AC01C701B6010E94ED263B0181
:103510006C01FE01E05CFF4FE080F18002811381CD
:103520009701A8010E940228181614F4730186015D
:10353000C701D8018CAF9DAFAEAFBFAF3AC00CA9E9
:103540001DA92EA93FA91C141D041E041F040CF460
:1035500068CF10161106120613060CF099CF00273B
:10356000112798010C191D092E093F0960177107D1
:10357000820793070CF062CF2A8121115FCF8CA8BC
:103580009DA8AEA8BFA881149104A104B10409F0BC
:1035900096CF88AD99ADAAADBBAD8CAF9DAFAEAFA8
:1035A000BFAF81E01C141D041E041F040CF080E05A
:1035B0008A833FEF831A930AA30AB30A8CAA9DAAAF
:1035C000AEAABFAA8CAC9DACAEACBFACC501B40179
:1035D0000E94D3276B017C01CB82DC82ED82FE82CC
:1035E000A501940160E074E284E799E40E945A27FF
:1035F000688F798F8A8F9B8F2A812111FFCE9058F7
:10360000688F798F8A8F9B8FF9CECF92DF92EF925E
:10361000FF92CF93DF93C8EBD3E0688D798D8A8DCD
:103620009B8D9B01AC010E9489256B017C0168A1E7
:1036300079A18AA19BA19B01AC010E94EE269B016E
:10364000AC01C701B6010E945A270E94CC276CAB7F
:103650007DAB8EAB9FABCE01DF91CF91FF90EF9012
:10366000DF90CF900C94AC1908954F925F926F92B7
:103670007F928F929F92AF92BF92CF92DF92EF9202
:10368000FF926B017C0120E030E0A9010E9423251C
:1036900087FF04C0F7FAF094F7F8F0948090D8030D
:1036A0009090D903A090DA03B090DB03A7019601B4
:1036B000C501B4010E942325882309F458C06091F4
:1036C000EC037091ED038091EE039091EF030E9463
:1036D0002A252B013C01A7019601C501B4010E94D6
:1036E0005A279B01AC01C301B2010E9489250E94A7
:1036F000CC276093EC037093ED038093EE039093DB
:10370000EF03A701960160E070E080E090E40E9482
:103710005A270E940D2826E53EE04DE25FE30E9415
:10372000892520E034E244E759E40E94892560932A
:10373000F0037093F1038093F2039093F303C0922C
:10374000D803D092D903E092DA03F092DB0388EB3E
:1037500093E0FF90EF90DF90CF90BF90AF909F905D
:103760008F907F906F905F904F900C94AC19FF906A
:10377000EF90DF90CF90BF90AF909F908F907F9011
:103780006F905F904F90089520910E0430910F0438
:10379000C901079697FD079623E0959587952A9589
:1037A000E1F720910C0430910D04829FA001839FCA
:1037B000500D929F500D112470E060E0809127041D
:1037C000909128040C94522A0C94FE28FB0101903D
:1037D0000020E9F73197AF01461B570BDC01ED9153
:1037E000FC910280F381E02D09948F929F92AF9219
:1037F000BF920F931F93CF93DF93CDB7DEB7A197FF
:103800000FB6F894DEBF0FBECDBF19A2423008F448
:103810004AE08E010F5D1F4F842E912CB12CA12CFC
:10382000A50194010E949226E62FB901CA01EA304F
:1038300004F5E05DD801EE938D01232B242B252B7D
:1038400079F790E080E0109729F0BD0188E094E0DE
:103850000E94E61BA1960FB6F894DEBF0FBECDBF47
:10386000DF91CF911F910F91BF90AF909F908F905C
:103870000895E95CDFCFCF92DF92EF92FF92CF9372
:10388000DF936B017C016DE288E094E00E94A50E5D
:10389000EC0166277727CB016C197D098E099F09FA
:1038A0004AE00E94F51B8C0F9D1FDF91CF91FF9086
:1038B000EF90DF90CF900895AF92BF92CF92DF92BA
:1038C000EF92FF920F931F93CF93DF930E94C41B3D
:1038D0000E944915C12CD12C760104E110E083E04F
:1038E000A82EB12CE60180EA93E00E94F416811123
:1038F00009C060E070E088E493EC0E94A1050E949A
:103900004619F1CF8CEA93E00E94F416811109C0A8
:1039100060E070E088E493E40E94A1050E944619EB
:10392000F1CF0E94C41B0E944915109215041092F9
:10393000140410931704009316044AE0C701B6015B
:103940000E94F51B6FE288E094E00E94A50E4AE019
:1039500068EE73E080E090E00E94F51B0E9449153C
:103960002097C9F0CE01B5010E947E26892B99F4DB
:103970008CEA93E00E94F416811109C060E070E0C7
:1039800088E492E40E94A1050E944619F1CF0E94AA
:10399000B3078332E1F78FEFC81AD80AE80AF80AAA
:1039A00088EEC81683E0D806E104F10409F09ACF46
:1039B000DF91CF911F910F91FF90EF90DF90CF900B
:1039C000BF90AF9008950E94442A0F931F93CF9306
:1039D000DF93EC0188819981009759F02A813B811E
:1039E0002617370730F081E0DF91CF911F910F91BB
:1039F00008958B016F5F7F4F0E948729009759F0D0
:103A0000998388831B830A832C813D81232B59F75B
:103A1000FC011082E8CF80E0E7CF85ED8093BC0009
:103A20008091110290911202A0911302B0911402A0
:103A30000796A11DB11D23E0B695A795979587958B
:103A40002A95D1F72091BC0024FD03C010925A02A0
:103A500008954091110250911202609113027091E9
:103A60001402452B462B472B69F30097A105B1059E
:103A700041F025E32A95F1F700000197A109B1096A
:103A8000E1CF809110020C94A5121F920F920FB6F5
:103A90000F9211242F933F938F939F93AF93BF93D4
:103AA0008091880290918902A0918A02B0918B0244
:103AB0003091870223E0230F2D3758F50196A11D81
:103AC000B11D209387028093880290938902A0936E
:103AD0008A02B0938B0280918C0290918D02A0910A
:103AE0008E02B0918F020196A11DB11D80938C02B0
:103AF00090938D02A0938E02B0938F02BF91AF91ED
:103B00009F918F913F912F910F900FBE0F901F901B
:103B1000189526E8230F0296A11DB11DD2CF1F9242
:103B20000F920FB60F9211242F933F934F935F93F1
:103B30006F937F938F939F93AF93BF93EF93FF9375
:103B400084E992E00E947A09FF91EF91BF91AF91D1
:103B50009F918F917F916F915F914F913F912F91A5
:103B60000F900FBE0F901F9018951F920F920FB6D7
:103B70000F9211242F938F939F93EF93FF93E091D4
:103B8000A402F091A5028081E091AA02F091AB021B
:103B900082FD1BC090818091AD028F5F8F73209159
:103BA000AE02821741F0E091AD02F0E0EC56FD4F1D
:103BB000958F8093AD02FF91EF919F918F912F91FF
:103BC0000F900FBE0F901F9018958081F4CF1F9219
:103BD0000F920FB60F9211242F933F934F935F9341
:103BE0006F937F938F939F93AF93BF93EF93FF93C5
:103BF0008091B900887F803609F44AC0F0F5883298
:103C000009F4A7C018F5803109F49BC0B8F48823E3
:103C100009F4F9C0883009F494C0FF91EF91BF9185
:103C2000AF919F918F917F916F915F914F913F9154
:103C30002F910F900FBE0F901F901895883109F4A7
:103C400088C0803251F78093590214C0803409F43F
:103C50009DC040F48033B9F38833F9F6809359025C
:103C600085ECB0C0803509F485C0883509F496C06C
:103C7000883499F60E940D1DD0CF883909F48CC084
:103C800038F5883729F050F4883611F0803729F656
:103C900083E080935A021092580257C0883809F482
:103CA0007BC0803919F0803809F0B7CF8091580275
:103CB000803208F071C0E091580281E08E0F80934D
:103CC00058028091BB00F0E0E85CFD4F80833DC06E
:103CD000803B39F0E0F4803A09F479C0883A09F081
:103CE0009CCF84E080935A021092370210923602E1
:103CF000E0918302F091840209958091360281114E
:103D00000FC081E0809336021092160209C0803CF9
:103D100009F4A6CF883C09F4A3CF883B09F07DCFF6
:103D2000E091370281E08E0F80933702F0E0EA5E87
:103D3000FD4F80818093BB009091370280913602C5
:103D400029C080917F028093BB0085EC8093BC00EA
:103D500064CF90917E0280917D02981758F5E09192
:103D60007E0281E08E0F80937E02F0E0E35AFD4FE9
:103D70008081E9CFE0917E0281E08E0F80937E0208
:103D80008091BB00F0E0E35AFD4F808390917E026A
:103D900080917D029817C8F285E8D8CFE0917E0225
:103DA00081E08E0F80937E028091BB00F0E0E35AA9
:103DB000FD4F808380915C0281115CCF81E0809314
:103DC0005B0284EA8093BC0010925A0226CF85ECF5
:103DD0008093BC0010925A0280915802803230F4D5
:103DE000E0915802F0E0E85CFD4F108260915802CB
:103DF00070E0E0918102F091820288E392E00995FF
:103E0000109258020ACF1092590234CFCF92DF920B
:103E1000EF92FF92109297021092960288EE93E032
:103E2000A0E0B0E08093980290939902A0939A0248
:103E3000B0939B022DE131E03093950220939402E0
:103E400025EC30E03093A1022093A00224EC30E076
:103E50003093A3022093A20220EC30E03093A5021D
:103E60002093A40221EC30E03093A7022093A60215
:103E700022EC30E03093A9022093A80226EC30E037
:103E80003093AB022093AA021092AD021092AE02C0
:103E90001092AF021092B0021092FF031092FE0334
:103EA0008093000490930104A0930204B093030450
:103EB0008FE291E09093FD038093FC0310920B043A
:103EC00010920A0420E830E030930D0420930C0493
:103ED00080E490E090930F0480930E0430931104DB
:103EE00020931004909313048093120410921E04E4
:103EF00010921504109214041092170410921604D4
:103F000091E090931D0490931C042FEF3FEF3093AA
:103F10001B0420931A0430931904209318049093DF
:103F20001F0410922004109222041092210421E711
:103F300031E0309309042093080410922404109275
:103F400023042CEF33E030932604209325041092B1
:103F50002804109227048FEF80932C0480932D0463
:103F600080932E0480932F048093300440E85AE11C
:103F700066E070E040933D0450933E0460933F043C
:103F80007093400440EA56E861E070E040934104D9
:103F900050934204609343047093440420E52093BB
:103FA00046041092470421E531E03093B903209391
:103FB000B8039093BF031092C8031092C9031092E4
:103FC000CA031092CB031092CC031092CD0310922F
:103FD000CE031092CF031092D0031092D10310920F
:103FE000D2031092D3031092D4031092D5031092EF
:103FF000D6031092D7031092D8031092D9031092CF
:10400000DA031092DB03C12CD12C90E8E92E9FE358
:10401000F92EC092DC03D092DD03E092DE03F09231
:10402000DF031092BB031092BC031092BD031092E9
:10403000BE0321E030E03093E5032093E403809356
:10404000E7031092E0031092E1031092E203109252
:10405000E3038AE08093C0038BE08093C10384E094
:104060008093C20385E08093C3031092E60310920D
:10407000EC031092ED031092EE031092EF031092F6
:10408000F0031092F1031092F2031092F3031092D6
:10409000F4031092F5031092F6031092F703C09206
:1040A000F803D092F903E092FA03F092FB03109226
:1040B000BA031092C4031092C5031092C603109263
:1040C000C70388EB93E00E943317C701B6010E9433
:1040D000351BA70196016091D4037091D50380919F
:1040E000D6039091D7030E942325882319F1C0920B
:1040F000D403D092D503E092D603F092D70380E0A8
:1041000094E2A4E7B9E48093F8039093F903A093B1
:10411000FA03B093FB038091EC039091ED03A0911F
:10412000EE03B091EF03181619061A061B0614F4D5
:104130000E94051B1092AE031092B1032BE431E0F4
:104140003093AD032093AC031092B4038FE08093BF
:10415000B50381E08093B6038093B7031092A20366
:104160001092A5033093A1032093A0031092A803FB
:1041700090E19093A9038093AA038093AB031092DC
:10418000330310923703109236031092380381E400
:1041900091E09093320380933103EDE4F3E01082D9
:1041A000148213821582369683E0E938F807B9F74E
:1041B00083E091E0909394038093930380E091E0F7
:1041C000909396038093950384E08093970383E014
:1041D0008093980387E091E09093920380939103FA
:1041E0008AE090E090939A038093990384EF91E0A2
:1041F00090939C0380939B0310929F0310929E03C5
:1042000010928D0310928E0310928F0310929003E0
:1042100010929D03FF90EF90DF90CF900895CF9381
:10422000DF93CDB7DEB728970FB6F894DEBF0FBE89
:10423000CDBF789484B5826084BD84B5816084BD2F
:1042400085B5826085BD85B5816085BD80916E0034
:10425000816080936E001092810080918100826065
:1042600080938100809181008160809381008091A2
:1042700080008160809380008091B1008460809391
:10428000B1008091B00081608093B00080917A008D
:10429000846080937A0080917A00826080937A00B3
:1042A00080917A00816080937A0080917A008068A2
:1042B00080937A001092C100E091A402F091A502CF
:1042C00082E08083E091A002F091A1021082E0914F
:1042D000A202F091A3028FEC80831092AC02E091D5
:1042E000A802F091A90286E08083E091A602F091F5
:1042F000A702808180618083E091A602F091A702ED
:10430000808188608083E091A602F091A70280817D
:1043100080688083E091A602F091A70280818F7D62
:10432000808382E390E090939A038093990320E046
:1043300030E04AE754E46091D4037091D503809152
:10434000D6039091D7030E942325882319F180E09A
:1043500090E0AAE7B4E48093D4039093D503A093AC
:10436000D603B093D7038093F8039093F903A093F7
:10437000FA03B093FB038091EC039091ED03A091BD
:10438000EE03B091EF03181619061A061B0614F473
:104390000E94051B60E070E080EF91E40E94351BF5
:1043A0008091270490912804892B11F10E94C41B4D
:1043B00020910E0430910F0480910C0490910D0413
:1043C000213231050CF04BC0B9016052710977FF01
:1043D00002C06F5F7F4F759567958357910997FD71
:1043E000019600E210E023E730E04AE855E04AC0D9
:1043F00020910E0430910F04C901079697FD07968E
:10440000B3E095958795BA95E1F720910C0430912A
:104410000D04AC01429FC001439F900D529F900D2F
:1044200011240E9462289093280480932704892BEA
:1044300009F0BCCF0AE21AE0F8016491662341F06A
:1044400084E992E00E949C090F5F1F4F892BA1F71E
:1044500069E971E084E992E00E94E61BFFCFB901AF
:104460006054710977FF02C06F5F7F4F7595679544
:104470008255910997FD019600E410E022E530E0B5
:104480004AE657E0959587950E94511182E0809306
:104490002A048091250490912604892B09F40EC1E9
:1044A0008CE3809329041092860210928502109268
:1044B0009102109290020E9487128AEF98E09093E6
:1044C0008402809383028BEF98E090938202809322
:1044D00081028091300487FD1EC061E00E94B40615
:1044E00061E0809130040E94820661E070E080E02B
:1044F00090E00E94190760E0809130040E948206DB
:104500006AE070E080E090E00E94190761E080912D
:1045100030040E9482068091250490912604892B04
:1045200009F48BC120913D0430913E0440913F0439
:104530005091400460E074E284EF90E00E94922683
:1045400020513109410951095695479537952795CD
:104550002093B80064E086E895E00E9432146091F0
:104560000E04615088E094E00E94E71464E082E861
:1045700095E00E94321480912A0464E1813009F4AC
:1045800060E188E094E00E94E71464E08EE795E043
:104590000E9432148FE88093450480910C0490911E
:1045A0000D048038910509F061C180910E0490914D
:1045B0000F048034910509F069C180912A0481308B
:1045C00009F452C18FEC8093450412E16AED88E052
:1045D00094E00E94E714612F88E094E00E94E714C1
:1045E00061E888E094E00E94E7146091450488E067
:1045F00094E00E94E71469ED88E094E00E94E714DB
:1046000080912A0461EF813009F462E288E094E04D
:104610000E94E71466E088E795E00E9432148091DA
:10462000250490912604892B09F434C1209141047A
:1046300030914204409143045091440460E074E29C
:1046400084EF90E00E9492262051310941095109DE
:1046500056954795379527952093B8000E94C41B1F
:1046600081E080931C0480931D0481E090E090938E
:104670001B0480931A0490931904809318041092D9
:1046800015041092140410921704109216046CE989
:1046900071E088E094E00E94E61B0E9449158CEAD4
:1046A00093E00E94F4168111FFC060E070E088E49E
:1046B00092E40E94A1050E944619F1CF61E0809129
:1046C0002E040E94B40661E080912F040E94B4067B
:1046D00080912E04082E000C990BFC01EE59F54F29
:1046E000E491F0E0EE0FFF1FE25BF54F259134916E
:1046F0003093360420933504FC01EA58F54FE491D9
:10470000E0933B0480912F04082E000C990BFC01D0
:10471000EE59F54FE491F0E0EE0FFF1FE25BF54F2D
:10472000A591B491B0933804A0933704FC01EA58E2
:10473000F54FE491E0933C048C91E82BEC9380914D
:10474000230490912404892B09F434C01FB7F894F2
:1047500080918002811127C0ECE6FAE08491E0E8C4
:10476000FAE09491E82FF0E0EE0FFF1FEC5BF54FBD
:10477000A591B491EC91E92321F461E08AE00E94D3
:10478000820661E08AE00E94B4068CB580618CBD2F
:104790008CB580648CBD61E08DE00E94B40661E060
:1047A0008BE00E94B406809180028F5F809380022C
:1047B0001FBF8FCE61E080912C040E94B40661E09F
:1047C00080912D040E94B40680912C04082E000CC8
:1047D000990BFC01EE59F54FE491F0E0EE0FFF1F4D
:1047E000E25BF54F259134913093320420933104EC
:1047F000FC01EA58F54FE491E093390480912D04CF
:10480000082E000C990BFC01EE59F54FE491F0E0F5
:10481000EE0FFF1FE25BF54FA591B491B093340406
:10482000A0933304FC01EA58F54FE491E0933A0475
:104830008C91E095E823EC934CCE809123049091E9
:104840002404892B31F080914604909147040E9402
:10485000670CE0913704F0913804908180913C041A
:1048600080958923808376CE8FE9ADCE8036910501
:1048700069F480910E0490910F04409739F480916F
:104880002A04813029F08FEA8093450412E09ECEFD
:1048900080E1FACFE0913704F09138048081909163
:1048A0003C04892B8083DACE1092150410921404F4
:1048B0008AE090E0909317048093160463EA71E015
:1048C00088E094E00E94E61B1092150410921404F4
:1048D0008EE190E09093170480931604EE24E39405
:1048E000F12C08E210E020E830E048E250E070E00F
:1048F00060E088E094E00E94D60F0E9449151A8279
:1049000019821C821B821E821D8270E060E0CE0133
:1049100001960E94E51C29813A81811148C0211528
:10492000310519F0C9010E94FE281A8219821E82DF
:104930001D821C821B8282E3E82EF12C0E94B307A9
:1049400090ED980F9A30D8F58F8318860D811E81CF
:104950000F5F1F4FB801CE0101960E94E51C88230E
:1049600069F029813A818D819E81BE01695F7F4F07
:10497000820F931F0E94592A1E830D8310921504E3
:1049800010921404F0921704E09216044D815E8197
:1049900069817A8188E094E00E94FC0869E971E00D
:1049A00088E094E00E94E61B0E944915C7CF1E8252
:1049B0001D826BE971E0C9010E94592ABCCF833284
:1049C00009F0BCCF0E945C1C89819A81009711F08C
:1049D0000E94FE2810921504109214048EE190E0BB
:1049E000909317048093160463EC71E088E094E0E0
:1049F0000E94E61B0E94491568EE73E080E090E09B
:104A00000E9419070E94C41B0E94491500E010E093
:104A10000E945C1C01151105D9F30E9466098823C8
:104A2000B9F30E940000F4CF81E791E0909309046C
:104A3000809308048091270490912804009711F036
:104A40000C94FE2808950E94652508F481E00895DD
:104A5000E89409C097FB3EF4909580957095619518
:104A60007F4F8F4F9F4F9923A9F0F92F96E9BB27CE
:104A70009395F695879577956795B795F111F8CF4A
:104A8000FAF4BB0F11F460FF1BC06F5F7F4F8F4FB5
:104A90009F4F16C0882311F096E911C0772321F0AB
:104AA0009EE8872F762F05C0662371F096E8862F43
:104AB00070E060E02AF09A95660F771F881FDAF79A
:104AC000880F9695879597F90895990F0008550FC7
:104AD000AA0BE0E8FEEF16161706E807F907C0F084
:104AE00012161306E407F50798F0621B730B840B8C
:104AF000950B39F40A2661F0232B242B252B21F466
:104B000008950A2609F4A140A6958FEF811D811D05
:104B100008950E949C250C940D260E94FF2538F0D4
:104B20000E94062620F0952311F00C94F6250C9493
:104B3000FC2511240C9441260E941E2670F3959F9B
:104B4000C1F3950F50E0551F629FF001729FBB2784
:104B5000F00DB11D639FAA27F00DB11DAA1F649F20
:104B60006627B00DA11D661F829F2227B00DA11DD3
:104B7000621F739FB00DA11D621F839FA00D611D59
:104B8000221F749F3327A00D611D231F849F600D7A
:104B9000211D822F762F6A2F11249F5750409AF0A3
:104BA000F1F088234AF0EE0FFF1FBB1F661F771F2F
:104BB000881F91505040A9F79E3F510580F00C94FA
:104BC000F6250C9441265F3FE4F3983ED4F3869596
:104BD00077956795B795F795E7959F5FC1F7FE2B9A
:104BE000880F911D9695879597F9089597F99F6776
:104BF00080E870E060E008959FEF80EC0895002465
:104C00000A941616170618060906089500240A9431
:104C100012161306140605060895092E0394000CB7
:104C200011F4882352F0BB0F40F4BF2B11F460FF46
:104C300004C06F5F7F4F8F4F9F4F089557FD90586F
:104C4000440F551F59F05F3F71F04795880F97FB50
:104C5000991F61F09F3F79F087950895121613060A
:104C60001406551FF2CF4695F1DF08C01616170639
:104C70001806991FF1CF869571056105089408956E
:104C8000E894BB2766277727CB0197F908952F92E1
:104C90003F924F925F926F927F928F929F92AF92CC
:104CA000BF92CF92DF92EF92FF920F931F93CF9319
:104CB000DF93CDB7DEB7CA1BDB0B0FB6F894DEBFB0
:104CC0000FBECDBF09942A88398848885F846E84D6
:104CD0007D848C849B84AA84B984C884DF80EE8020
:104CE000FD800C811B81AA81B981CE0FD11D0FB629
:104CF000F894DEBF0FBECDBFED01089597FB072EE0
:104D000016F4009407D077FD09D00E94D92607FC3D
:104D100005D03EF4909581959F4F089570956195CB
:104D20007F4F0895A1E21A2EAA1BBB1BFD010DC0E7
:104D3000AA1FBB1FEE1FFF1FA217B307E407F5074B
:104D400020F0A21BB30BE40BF50B661F771F881F27
:104D5000991F1A9469F760957095809590959B01BD
:104D6000AC01BD01CF010895052E97FB1EF4009400
:104D70000E94CB2657FD07D00E94922607FC03D045
:104D80004EF40C94CB2650954095309521953F4F8D
:104D90004F4F5F4F089590958095709561957F4F27
:104DA0008F4F9F4F0895EE0FFF1F0590F491E02D58
:104DB0000994AA1BBB1B51E107C0AA1FBB1FA61762
:104DC000B70710F0A61BB70B881F991F5A95A9F7B4
:104DD00080959095BC01CD0108955058BB27AA2716
:104DE0000E9405270C940D260E94FF2538F00E9492
:104DF000062620F039F49F3F19F426F40C94FC2584
:104E00000EF4E095E7FB0C94F625E92F0E941E2690
:104E100058F3BA17620773078407950720F079F4EF
:104E2000A6F50C9440260EF4E0950B2EBA2FA02D7B
:104E30000B01B90190010C01CA01A0011124FF2747
:104E4000591B99F0593F50F4503E68F11A16F04042
:104E5000A22F232F342F4427585FF3CF4695379541
:104E60002795A795F0405395C9F77EF41F16BA0B06
:104E7000620B730B840BBAF09150A1F0FF0FBB1FB4
:104E8000661F771F881FC2F70EC0BA0F621F731FFD
:104E9000841F48F4879577956795B795F7959E3F5A
:104EA00008F0B0CF9395880F08F09927EE0F9795EB
:104EB000879508950E946E270C940D260E94062661
:104EC00058F00E94FF2540F029F45F3F29F00C9430
:104ED000F62551110C9441260C94FC250E941E26A7
:104EE00068F39923B1F3552391F3951B550BBB2719
:104EF000AA2762177307840738F09F5F5F4F220F5E
:104F0000331F441FAA1FA9F335D00E2E3AF0E0E854
:104F100032D091505040E695001CCAF72BD0FE2F9E
:104F200029D0660F771F881FBB1F26173707480732
:104F3000AB07B0E809F0BB0B802DBF01FF279358EA
:104F40005F4F3AF09E3F510578F00C94F6250C9493
:104F500041265F3FE4F3983ED4F3869577956795B5
:104F6000B795F7959F5FC9F7880F911D969587951F
:104F700097F90895E1E0660F771F881FBB1F62173E
:104F800073078407BA0720F0621B730B840BBA0BFC
:104F9000EE1F88F7E09508950E94D3276894B11119
:104FA0000C94412608950E94262688F09F5798F079
:104FB000B92F9927B751B0F0E1F0660F771F881F1E
:104FC000991F1AF0BA95C9F714C0B13091F00E9438
:104FD0004026B1E008950C944026672F782F88274B
:104FE000B85F39F0B93FCCF3869577956795B3955F
:104FF000D9F73EF490958095709561957F4F8F4FCE
:105000009F4F08950E94652508F48FEF089519F4C5
:1050100016F40C94FC250C944D280E942626B8F317
:105020009923C9F3B6F39F57550B87FF0E945B285E
:105030000024A0E640EA900180585695979528F400
:10504000805C660F771F881F20F0261737074807F8
:1050500030F4621B730B840B202931294A2BA6954F
:1050600017940794202531254A2758F7660F771F94
:10507000881F20F026173707480730F4620B730BA0
:10508000840B200D311D411DA09581F7B901842F9E
:105090009158880F9695879508959F3F31F09150CC
:1050A00020F4879577956795B795880F911D96950C
:1050B000879597F9089591505040660F771F881F84
:1050C000D2F708950F931F93CF93DF93823091050A
:1050D00010F482E090E0E0914A04F0914B0430E05B
:1050E00020E0B0E0A0E0309799F42115310509F4F3
:1050F0004AC0281B390B24303105D8F58A819B81A1
:105100006115710589F1FB0193838283FE0111C052
:10511000408151810281138148175907E0F04817F7
:10512000590799F4109761F012960C931297139601
:105130001C933296CF01DF91CF911F910F9108956B
:1051400000934A0410934B04F4CF2115310551F01C
:105150004217530738F0A901DB019A01BD01DF01B5
:10516000F801C1CFEF01F9CF90934B0480934A042B
:10517000CDCFFE01E20FF31F8193919322503109AD
:1051800039832883D7CF2091480430914904232BB9
:1051900041F4209115013091160130934904209378
:1051A000480420911301309114012115310541F477
:1051B0002DB73EB74091170150911801241B350BB4
:1051C000E0914804F0914904E217F307A0F42E1B84
:1051D0003F0B2817390778F0AC014E5F5F4F24175B
:1051E000350748F04E0F5F1F509349044093480421
:1051F000819391939FCFF0E0E0E09CCFCF93DF933A
:105200000097E9F0FC01329713821282A0914A04C0
:10521000B0914B04ED0130E020E01097A1F4208123
:105220003181820F931F209148043091490428173F
:10523000390709F061C0F0934904E0934804DF9115
:10524000CF910895EA01CE17DF07E8F54A815B8127
:105250009E0141155105B1F7E901FB83EA834991AC
:105260005991C40FD51FEC17FD0761F4808191811E
:105270000296840F951FE901998388838281938127
:105280009B838A83F0E0E0E012968D919C911397C6
:105290000097B9F52D913C911197CD010296820F9F
:1052A000931F20914804309149042817390739F693
:1052B000309751F510924B0410924A04B093490470
:1052C000A0934804BCCFD383C28340815181840F13
:1052D000951FC817D90761F44E5F5F4F8881998188
:1052E000480F591F518340838A819B819383828316
:1052F0002115310509F0B0CFF0934B04E0934A0437
:105300009ECFFD01DC01C0CF13821282D7CFB0E067
:10531000A0E0EDE8F9E20C9449268C01009751F4E5
:10532000CB010E9462288C01C801CDB7DEB7E0E155
:105330000C946526FC01E60FF71F9C0122503109F1
:10534000E217F30708F49DC0D901CD91DC911197C4
:10535000C617D70798F0C530D10530F3CE010497B2
:105360008617970708F3C61BD70B2297C193D193D3
:105370006D937C93CF010E94FE28D6CF5B01AC1ABF
:10538000BD0A4C018C0E9D1EA0914A04B0914B04A5
:10539000512C412CF12CE12C109731F580914804CF
:1053A000909149048815990509F05CC04616570686
:1053B00008F058C08091130190911401009741F4B6
:1053C0008DB79EB74091170150911801841B950B22
:1053D000E817F90708F055C0F0934904E093480432
:1053E000F90171836083A0CF8D919C9111971296E2
:1053F0006C90129713967C901397A815B90559F5E0
:105400006C0142E0C40ED11CCA14DB0420F1AC01D3
:105410004A195B09DA011296159780F0628273824D
:1054200051834083D9016D937C93E114F10471F0B1
:10543000D7011396FC93EE93129776CF22968C0F9A
:105440009D1FF90191838083F301EFCFF0934B040B
:10545000E0934A0469CF4816590608F42C017D01EF
:10546000D3019ACFCB010E9462287C01009749F0BA
:10547000AE01B8010E94492AC8010E94FE28870196
:1054800053CF10E000E050CF81E090E0F8940C940E
:10549000602AFB01DC0102C001900D924150504096
:1054A000D8F70895DC0101C06D9341505040E0F7FA
:1054B0000895FB01DC0101900D920020E1F70895B1
:1054C00015E0C3E5D5E004C0FE010E94D326219675
:0A54D000C435D107C9F7F894FFCFE7
:1054DA0005040309080706313233343536373839BB
:1054EA002A302300004C048000000000009C09FCC4
:1054FA00082909E9095A0938094C09000000001C61
:10550A0013EF12D0162C06E812D512C612000000AC
:10551A0000F006B0067F0600000000D31600000067
:10552A000067173317341BE41BAC19C8180619B2E5
:10553A001880185F182B180A18B41785170000006E
:10554A0000A50EFC08D0165F12B00B2C064A1122D9
:10555A00113E113211B2112C066B0C7A16200B690E
:10556A000B6B104E10D60F770F0D0A0072656D6522
:10557A00647900454E544552204E554D42455220BD
:10558A004F46204359434C452026205052455353F9
:10559A00202300636F756E74696E672E2E2E2E009F
:00000001FF
