:100000000C9454050C947C050C947C050C947C0594
:100010000C947C050C947C050C947C050C947C055C
:100020000C947C050C947C050C947C050C947C054C
:100030000C947C050C947C050C947C050C947C053C
:100040000C941D1D0C947C050C948D1D0C94671D47
:100050000C947C050C947C050C947C050C947C051C
:100060000C94BF1D0C947C0500000000003E5B4F0B
:100070005B3E3E6B4F6B3E1C3E7C3E1C183C7E3C08
:10008000181C577D571C1C5E7F5E1C00183C180016
:10009000FFE7C3E7FF0018241800FFE7DBE7FF30A6
:1000A000483A060E2629792926407F050507407F14
:1000B00005253F5A3CE73C5A7F3E1C1C08081C1C87
:1000C0003E7F14227F22145F5F005F5F06097F017D
:1000D0007F006689956A606060606094A2FFA29468
:1000E00008047E040810207E201008082A1C080836
:1000F0001C2A08081E101010100C1E0C1E0C303884
:100100003E3830060E3E0E06000000000000005F84
:1001100000000007000700147F147F14242A7F2AA0
:100120001223130864623649562050000807030062
:10013000001C2241000041221C002A1C7F1C2A08AE
:10014000083E080800807030000808080808000011
:1001500060600020100804023E5149453E00427F85
:10016000400072494949462141494D331814127FD4
:100170001027454545393C4A494931412111090774
:100180003649494936464949291E000014000000F5
:1001900040340000000814224114141414140041C7
:1001A00022140802015909063E415D594E7C121184
:1001B000127C7F494949363E414141227F414141BC
:1001C0003E7F494949417F090909013E4141517337
:1001D0007F0808087F00417F41002040413F017FA8
:1001E000081422417F404040407F021C027F7F0470
:1001F00008107F3E4141413E7F090909063E4151B9
:10020000215E7F09192946264949493203017F01A8
:10021000033F4040403F1F2040201F3F4038403FA9
:10022000631408146303047804036159494D4300BF
:100230007F4141410204081020004141417F0402F6
:10024000010204404040404000030708002054548D
:1002500078407F284444383844444428384444286B
:100260007F385454541800087E090218A4A49C78BE
:100270007F0804047800447D40002040403D007F1A
:100280001028440000417F40007C047804787C08FA
:100290000404783844444438FC18242418182424CE
:1002A00018FC7C08040408485454542404043F44B3
:1002B000243C4040207C1C2040201C3C4030403CE2
:1002C00044281028444C9090907C4464544C440042
:1002D00008364100000077000000413608000201A6
:1002E0000204023C2623263C1EA1A161123A404092
:1002F000207A38545455592155557941225454780F
:1003000042215554784020545579400C1E527212A7
:100310003955555559395454545939555454580030
:1003200000457C410002457D420001457C407D1234
:1003300011127DF0282528F07C5455450020545496
:100340007C547C0A097F4932494949323A44444441
:100350003A324A4848303A4141217A3A424020787C
:10036000009DA0A07D3D4242423D3D4040403D3C7D
:1003700024FF2424487E4943662B2FFC2F2BFF09A2
:1003800029F620C0887E0903205454794100004496
:100390007D413048484A32384040227A007A0A0A81
:1003A000727D0D19317D2629292F282629292926F4
:1003B00030484D4020380808080808080808382F39
:1003C00010C8ACBA2F102834FA00007B00000814C3
:1003D0002A142222142A14085500550055AA55AA99
:1003E00055AAFF55FF55FF000000FF00101010FF39
:1003F00000141414FF001010FF00FF1010F010F094
:10040000141414FC001414F700FF0000FF00FF1484
:1004100014F404FC141417101F10101F101F1414D0
:10042000141F00101010F0000000001F101010101A
:100430001F10101010F010000000FF10101010100E
:1004400010101010FF10000000FF140000FF00FF4C
:1004500000001F10170000FC04F4141417101714E8
:1004600014F404F40000FF00F7141414141414140A
:10047000F700F7141414171410101F101F1414147D
:10048000F4141010F010F000001F101F0000001FE7
:1004900014000000FC140000F010F01010FF10FF1A
:1004A000141414FF141010101F00000000F010FFAF
:1004B000FFFFFFFFF0F0F0F0F0FFFFFF0000000093
:1004C00000FFFF0F0F0F0F0F3844443844FC4A4A17
:1004D0004A347E02020606027E027E0263554941CC
:1004E000633844443C04407E201E2006027E020203
:1004F00099A5E7A5991C2A492A1C4C7201724C3017
:100500004A4D4D303048784830BC625A463D3E49ED
:100510004949007E0101017E2A2A2A2A2A44445F91
:10052000444440514A444040444A51400000FF0185
:1005300003E080FF000008086B6B08361236243693
:10054000060F090F060000181800000010100030F8
:1005500040FF0101001F01011E00191D1712003C80
:100560003C3C3C0000000000000103070F1F3F7FE0
:100570000080C0E0F0F8FCFEDB40A4A62EAF200017
:10058000A1C8D300408DAED580A800006000000057
:100590000000000000000000000000E0000000007B
:1005A00000000000000000000001E000000000006A
:1005B000000000000000000001F00000000000004A
:1005C0000000000000000003F00000000000000038
:1005D00000000000000007F0000000000000000024
:1005E000000000000007F80000000000000000000C
:1005F000000000000FF800000003C0007E000001B2
:10060000E0007F0FF800000003C000FE000001E0E2
:1006100000FFEFF800000003C000FE000001E00052
:10062000FFFFF800000003C000F00000000F007F93
:10063000FE7FC0000003C000F00000000F003FFE7E
:100640007FF83FF1FBCFFCFEF3BC3DEFE01FFE7FE8
:10065000FF7FFBFFDFFEFEFFBC3DEFE01FC6FFFF9D
:100660007FFBFFDFFEFEFFBC3DEFE00FE3C7FE7840
:100670007BC3DE1EF0FFBC3DEF0007FF87FC787BED
:10068000C3DE1EF0F83C3DEF0001FFFFF0007BC32E
:10069000C01EF0F03C3DEF0001F37FE03FFBC3CF15
:1006A000FEF0F03C3DEF0003E33F807FFBC3DFFE45
:1006B000F0F03C3DEF0007E73C00787BC3DE1EF026
:1006C000F03C3DEF0007FFBE00787BC3DE1EF0F07C
:1006D0003C3DEF0007FFFE00787BC3DE1EF0F03CE0
:1006E0003DEF000FFFFE007FFBFFDFFEF0F03FFD60
:1006F000EFE00FFFFF007FFBFFDFFEF0F03FFDEFBD
:10070000E00FF9FF003E79F9CF9EF0F01F3DE7E0E2
:100710001FF1FF0000000000000000000000001FAB
:1007200080FF007FFFFFFFFFFFFFFFFFFFE01C00D8
:100730007F007FFFFFFFFEB46D888D18E000001F73
:10074000007FFFFFFFFE95AD7DB577E000000F0055
:100750007FFFFFFFFEA5AD9D8D19E0000006007F25
:10076000FFFFFFFEB5ADEDB57EE00000000000012B
:100770008000000000000000000003800000000076
:10078000000000000007C0000000000000000000A2
:1007900007C00000000000000000000FC0000000C3
:1007A0000000000000001FE000000000000000004A
:1007B000001FE00000000000000000003FE000001B
:1007C000000000000000003FF000000000000000FA
:1007D00000007FF0000000000000001FF87FF00024
:1007E0000000000000003FFE7FF00000000000005D
:1007F000003FFF7FF0000000000000001FFFFBE053
:10080000000000000000000FFFF9FFC00000000022
:1008100000000FFFF9FFF800000000000007FFF1E3
:10082000FFFF00000000000003FC73FFFF800000DA
:1008300000000001FE3FFFFF80000000000000FFFD
:100840001E0FFF000000000000007FFE1FFC0000E4
:1008500000000000003FFFFFF80000000000000063
:100860000FDFFFE0000000000000001F19FFC000C4
:100870000000000000003F3CFF00000000000000FE
:10088000007E7CF800000000000000007FFE7C007D
:1008900000000000000000FFFFFC0000000000005E
:1008A0000000FFFFFE0000000000000000FFFFFE50
:1008B0000000000000000001FFEFFE00000000004B
:1008C000000001FFCFFE0000000000000003FF0752
:1008D000FE0000000000000003FC07FE0000000016
:1008E00000000003F003FE00000000000000018093
:1008F00000FE000000000000000000007E0000007C
:10090000000000000000003E0000000000000000A9
:1009100000000C000000000000078000FC00000345
:10092000C0000000078001FC000003C000000007B9
:100930008001FC000003C0000000078001E000000F
:10094000001E000000078001E00000001E007FE3A1
:10095000F79FF9FDE7787BDFC0FFF7FFBFFDFDFFE5
:10096000787BDFC0FFF7FFBFFDFDFF787BDFC0F0C6
:10097000F787BC3DE1FF787BDE00F0F787BC3DE107
:10098000F0787BDE0000F787803DE1E0787BDE00D9
:100990007FF7879FFDE1E0787BDE00FFF787BFFDF3
:1009A000E1E0787BDE00F0F787BC3DE1E0787BDEBC
:1009B00000F0F787BC3DE1E0787BDE00F0F787BC14
:1009C0003DE1E0787BDE00FFF7FFBFFDE1E07FFB6C
:1009D000DFC0FFF7FFBFFDE1E07FFBDFC07CF3F38B
:1009E0009F3DE1E03E7BCFC0000000000000000022
:1009F000000000FFFFFFFFFFFFFFFFFFFFC0FFFF43
:100A0000FFFFFD68DB111A31C0FFFFFFFFFD2B5A0E
:100A1000FB6AEFC0FFFFFFFFFD4B5B3B1A33C0FFDC
:100A2000FFFFFFFD6B5BDB6AFDC053534431333086
:100A30003620616C6C6F636174696F6E20666169EA
:100A40006C65640000000000240027002A000000FC
:100A50000000250028002B000000000023002600D5
:100A60002900040404040404040402020202020231
:100A70000303030303030102040810204080010262
:100A800004081020010204081020000000080002E1
:100A90000100000304070000000000000000220025
:100AA000FF210000DE1EA62411241FBECFEFD8E0D8
:100AB000DEBFCDBF24E0A8EFB1E001C01D92A43796
:100AC000B207E1F711E0A0E0B1E0EEEFF3E502C01C
:100AD00005900D92A83FB107D9F715E0C3E5D5E021
:100AE00004C02197FE010E946526C235D107C9F7CF
:100AF0000E94E7200C94F2290C94000096E0899F54
:100B0000D0011124A75ABC4F90967C936E935F97A7
:100B100091E091969C939197E091C603F091C70361
:100B20009091C503992339F0309751F0811108C095
:100B3000809175030994309719F05C968C91FACFE7
:100B400008958F929F92AF92BF92CF92DF92EF92D1
:100B5000FF920F931F93CF93DF938B01D82FC92F51
:100B60009B01482F592F6091F8037091F9038091F0
:100B7000FA039091FB030E94B524882309F43EC038
:100B80008090FC039090FD03A090FE03B090FF03C3
:100B900075016401F7FAF094F7F8F094A701960153
:100BA000B8018D2F9C2F0E94B52487FD0EC0A50192
:100BB0009401B8018D2F9C2F0E9494277501640128
:100BC00018161CF06801ED2EFC2E20E030E0A90183
:100BD000C701B6010E94B52481111DC01092E30324
:100BE0001092E4031092E5031092E603C092F8031A
:100BF000D092F903E092FA03F092FB03DF91CF91D8
:100C00001F910F91FF90EF90DF90CF90BF90AF902A
:100C10009F908F900895A701960160E074E284E7A9
:100C200099E40E94EC269F770E9465276093E30376
:100C30007093E4038093E5039093E603C1E020E022
:100C400030E0A901C701B6010E94942718160CF0E4
:100C5000C0E0C093E203CACF0895833081F028F446
:100C6000813099F08230A9F008958730A9F088305A
:100C7000C9F08430B1F4809180008F7D03C08091F1
:100C800080008F7780938000089584B58F7784BD2E
:100C9000089584B58F7DFBCF8091B0008F778093CE
:100CA000B00008958091B0008F7DF9CFCF93DF938E
:100CB000282F30E0F901E657F54F8491F901EA5801
:100CC000F54FD491F901EE59F54FC491CC23A1F021
:100CD00081110E942D06EC2FF0E0EE0FFF1FE85A65
:100CE000F54FA591B491EC91ED2381E090E009F4EA
:100CF00080E0DF91CF91089580E090E0FACF862FD9
:100D00000C9456061F93CF93DF93282F30E0F90100
:100D1000E657F54F8491F901EA58F54FD491F9015E
:100D2000EE59F54FC491CC23A9F0162F81110E94E2
:100D30002D06EC2FF0E0EE0FFF1FE25BF54FA591C3
:100D4000B4918FB7F894EC91111108C0D095DE23BF
:100D5000DC938FBFDF91CF911F910895DE2BF8CFE9
:100D6000862F642F0C948206CF93DF9390E0FC01D2
:100D7000EA58F54F24918E59954FFC0184918823B0
:100D8000C9F090E0880F991FFC01EC5BF54FA5912D
:100D9000B491FC01E25BF54FC591D49161110DC096
:100DA0009FB7F8948C91209582238C938881282377
:100DB00028839FBFDF91CF910895623051F49FB790
:100DC000F8943C91822F809583238C93E8812E2B7D
:100DD000EFCF8FB7F894EC912E2B2C938FBFEACFE7
:100DE000862F642F0C94B4063FB7F8948091B40218
:100DF0009091B502A091B602B091B70226B5A89B1A
:100E000005C02F3F19F00196A11DB11D3FBFBA2F9C
:100E1000A92F982F8827BC01CD01620F711D811D5C
:100E2000911D42E0660F771F881F991F4A95D1F7E1
:100E300008958F929F92AF92BF92CF92DF92EF92DE
:100E4000FF924B015C010E94F4066B017C010E9441
:100E5000F4066C197D098E099F09683E734081056F
:100E60009105A8F321E0821A9108A108B10888EE43
:100E7000C80E83E0D81EE11CF11C81149104A1046A
:100E8000B10429F7FF90EF90DF90CF90BF90AF9023
:100E90009F908F9008952FB7F8946091B002709151
:100EA000B1028091B2029091B3022FBF08950F93C7
:100EB0001F93CF93DF93C82FD62F86E0C89FF001F2
:100EC0001124E75AFC4F11A2878D90A18130910522
:100ED000F1F058F082309105F1F1039709F440C028
:100EE000DF91CF911F910F9108956623C9F361E0BF
:100EF00070E08C2F0E947E050E944B076093B10327
:100F00007093B2038093B3039093B403E9CF0E942C
:100F10004B070091B1031091B2032091B3033091BC
:100F2000B403AB01BC01401B510B620B730B8091EE
:100F3000C3039091C403B0E0A0E084179507A6070F
:100F4000B70748F462E070E08C2FDF91CF911F91DA
:100F50000F910C947E0563E070E0D111C1CFF4CF06
:100F600070E060E0F1CF6F927F928F929F92AF928C
:100F7000BF92CF92DF92EF92FF920F931F93CF9386
:100F8000DF9381E08093C5030E944B070091B50376
:100F90001091B6032091B7033091B803AB01BC01A7
:100FA000401B510B620B730B8091C1039091C203E4
:100FB000B0E0A0E084179507A607B70708F014C1B2
:100FC000C0E08091BF03C81760F4E091BB03F091CB
:100FD000BC03EC0FF11D62E080810E94B406CF5F7C
:100FE000F0CF712C812C912C540183948091C003FB
:100FF000781608F05FC0072D10E0E091BD03F09176
:10100000BE03E00FF11F61E080810E94B406E09111
:10101000BD03F091BE03E00FF11F60E080810E94EC
:101020008206D501C401072C04C0880F991FAA1F8E
:10103000BB1F0A94D2F76C017C01E094F094612C00
:101040008091BF036816F8F4C62DD0E0E091BB0391
:10105000F091BC03EC0FFD1F80810E945606249680
:10106000CC0FDD1FC75ADC4F892B41F48881998151
:101070008C299D29998388836394E2CF8881998103
:101080008E219F21F7CFE091BD03F091BE03E00FC9
:10109000F11F61E080810E9482068091BD039091E2
:1010A000BE03080F191F60E0F80180810E94B4069A
:1010B00073949CCFC9E5D3E0FE018FEF9FEF278D9E
:1010C00030A1232B21F4148E968F858F11A2369692
:1010D00023E0E539F20799F7F12C96E0D92E8091BB
:1010E000BF03F81608F050C0E12C0F2D10E0000FE0
:1010F000111F0F591C4F2091C003E21608F042C087
:10110000F801608171810E2C02C0769567950A9472
:10111000E2F7F29E900111242E0D311DE9E5F3E076
:1011200080E0458D568D2417350709F461C08F5F27
:1011300036968A30B1F760FF23C0E9E5F3E090E02E
:1011400080E0448D411117C0E091B903F091BA03DA
:10115000E20FF31F4081D89EF001D99EF00D1124BB
:10116000E75AFC4F448F368F258F10A2178E61E00F
:101170000E94570705C0019636968A30910509F7F7
:10118000E394B9CFF394ABCF10E089A18111182F6C
:101190002696F3E0C539DF07C1F70E944B0760933D
:1011A000B5037093B6038093B7039093B8031123EC
:1011B000D9F080917A038823B9F0809178039091D7
:1011C0007903019789F480917503DF91CF911F9185
:1011D0000F91FF90EF90DF90CF90BF90AF909F90D6
:1011E0008F907F906F9008951092C50380E0EDCFAF
:1011F0006170BECF08950895AF92BF92CF92DF92F3
:10120000EF92FF920F931F93CF93DF936C017B01BB
:101210008B01040F151FEB015E01AE18BF08C0174C
:10122000D10759F06991D601ED91FC910190F081BF
:10123000E02DC6010995892B79F7C501DF91CF9182
:101240001F910F91FF90EF90DF90CF90BF90AF90E4
:101250000895FC01538D448D252F30E0842F90E0BC
:10126000821B930B541710F0CF96089501970895A1
:10127000FC01918D828D981761F0A28DAE0FBF2F6A
:10128000B11D5D968C91928D9F5F9F73928F90E0C0
:1012900008958FEF9FEF0895FC01918D828D98172F
:1012A00031F0828DE80FF11D858D90E008958FEF6C
:1012B0009FEF0895FC01918D228D892F90E0805C35
:1012C0009F4F821B91098F73992708958CEB92E0B1
:1012D0000E945A0921E0892B09F420E0822F089509
:1012E00080E090E0892B29F00E94660981110C941E
:1012F00000000895FC01A48DA80FB92FB11DA35AB9
:10130000BF4F2C91848D90E001968F739927848F25
:10131000A689B7892C93A089B1898C918370806448
:101320008C93938D848D981306C00288F389E02DE9
:1013300080818F7D80830895EF92FF920F931F939A
:10134000CF93DF93EC0181E0888F9B8D8C8D981378
:101350001AC0E889F989808185FF15C09FB7F89484
:10136000EE89FF896083E889F989808183708064D0
:1013700080839FBF81E090E0DF91CF911F910F911B
:10138000FF90EF900895F62E0B8D10E00F5F1F4F2A
:101390000F731127E02E8C8D8E110CC00FB607FC39
:1013A000FACFE889F989808185FFF5CFCE010E94C7
:1013B0007A09F1CFEB8DEC0FFD2FF11DE35AFF4FB2
:1013C000F0829FB7F8940B8FEA89FB898081806255
:1013D000CFCFCF93DF93EC01888D8823B9F0AA8912
:1013E000BB89E889F9898C9185FD03C0808186FDE0
:1013F0000DC00FB607FCF7CF8C9185FFF2CF80812F
:1014000085FFEDCFCE010E947A09E9CFDF91CF9120
:101410000895EF92FF920F931F93CF93DF93EC0108
:10142000EC80FD806E157F050CF070C057FF04C086
:10143000240F351F50E040E08E819F81FA01E20FBA
:10144000F31F8E179F071CF49C01241B350B1216EB
:1014500013060CF05BC0922F842F86958695869597
:101460008E9DD0018F9DB00D11246A0F7B1FAF8D13
:10147000B8A1A60FB71F477049F188E0841B482F19
:10148000682F70E0FB01E059FA4FE491281708F04B
:1014900063C0621B71092FEF30E002C035952795BC
:1014A0006A95E2F7E2230130110539F0B0F102301C
:1014B000110561F58C91E82702C08C91E82BEC9323
:1014C000941720F12C813D81A20FB31FE92FE41B5B
:1014D000E83078F00230110521F58E2F9C9190951F
:1014E0009C932C813D81A20FB31F88508830B0F7A8
:1014F000E770EE2359F0F0E0E859FA4FE49101303B
:101500001105F9F010F10230110519F1DF91CF91B9
:101510001F910F91FF90EF900895E0958C91E82333
:10152000CECF81E00115110509F480E081959E2F51
:101530008C932C813D81A20FB31F98509830C0F737
:10154000D7CF8C91E82BEC93E1CFE0958C91E823F9
:10155000FACF8C91E827F7CF0130110509F4ADCF10
:10156000E0F20230110509F4A5CFAE0DBF1DAECFDC
:101570000F931F93CF93DF9377FF04C0260F371F7E
:1015800070E060E0DC011496CD91DC91FB01E20F8C
:10159000F31FCE17DF071CF49E01261B370B121614
:1015A00013064CF5FA0157FD3796A3E0F595E7953C
:1015B000AA95E1F7EC9FD001ED9FB00DFC9FB00D17
:1015C00011246A0F7B1FDC015F96ED91FC91E60F01
:1015D000F71F4770552781E090E001C0880F4A95BA
:1015E000EAF7482F0130110559F0A8F02E0F3F1FE0
:1015F00002301105E1F0DF91CF911F910F91089515
:101600002E0F3F1FE217F307B1F38191DF0111970E
:10161000842B8C93F7CF80952E0F3F1FE217F30793
:1016200051F39191DF01119798239C93F7CFE21723
:10163000F30709F38191DF01119784278C93F7CF8A
:101640000F931F93FA01DC0156964C915697423046
:10165000E9F04330A1F1413061F514964D915C9170
:10166000DA01AE1BBF0BFD01E21BF30B77FD0BC0D4
:10167000DC0116964D915C916417750724F4AB015B
:10168000BF010E94B80A1F910F91089514964D91C1
:101690005C91DA01A61BB70BBD0161507109DC0139
:1016A00016964D915C91DA01AE1BBF0BFD01E21B5A
:1016B000F30B77FDE8CFAF010E94090AE4CF16963D
:1016C0004D915C91DA01A61BB70BBD016150710908
:1016D000CDCF0F931F93FA01DC0156964C9156978C
:1016E0004230A9F0433091F1413019F514964D91F3
:1016F0005C91DA01AE1BBF0BFD013197F7FD04C011
:10170000AB01BF010E94090A1F910F910895149621
:101710004D915C91DA01A61BB70BBD01DC01169659
:101720004D915C91DA01AE1BBF0BFD013197621B3D
:10173000730BF7FDE9CFDC0116964D915C91E41730
:10174000F50714F7AF010E94B80ADECF16964D9147
:101750005C91DA01A61BB70BBD01621B730BCECFE8
:10176000FC0177FD64C080859185681779070CF0CE
:101770005EC057FD5CC082859385481759070CF001
:1017800056C086898230B1F0833029F1813041F42E
:1017900084819581841B950BAB01BC01615071095B
:1017A0002130310509F108F443C02230310509F434
:1017B00063C0089584819581DC01A61BB70BBD0130
:1017C0006150710986819781DC01A41BB50BAD01C5
:1017D00041505109E5CF86819781861B970BBA014D
:1017E000AC0141505109DCCFCA0157FD0796A3E077
:1017F00095958795AA95E1F7A481B5818A9F900177
:101800008B9F300D9A9F300D1124620F731F078C30
:10181000F0A1E02DE60FF71F4770552721E030E0DB
:1018200001C0220F4A95EAF78081822B80830895B8
:10183000CA0157FD079633E0959587953A95E1F7EC
:10184000A481B5818A9F90018B9F300D9A9F300DA6
:101850001124620F731F078CF0A1E02DE60FF71F14
:101860004770552781E090E001C0880F4A95EAF75C
:10187000809590818923DACFCA0157FD079623E02E
:10188000959587952A95E1F7A481B5818A9F900166
:101890008B9F300D9A9F300D1124620F731F078CA0
:1018A000F0A1E02DE60FF71F4770552721E030E04B
:1018B00001C0220F4A95EAF780818227B7CF0895A9
:1018C0008EBD00000DB407FEFDCF8EB508958CBD12
:1018D0009DBD08950895FC016370668B8481958198
:1018E00026813781613039F0633029F09187808714
:1018F00033872287089531872087938782870895C9
:101900002F923F924F925F926F927F928F929F920F
:10191000AF92BF92CF92DF92EF92FF920F931F93FD
:10192000CF93DF93CDB7DEB76A970FB6F894DEBFDB
:101930000FBECDBF9A8F898F7A8369834A01D22ED9
:1019400018870F833701BC2CDC0159962D913C91EF
:101950005A972115310509F015C118968D919C9162
:101960001997681779070CF0D7C11A968D919C9139
:10197000481759070CF0D0C14C2C512CB6E0CB9E27
:10198000600D711D11247C876B87161617060CF0ED
:10199000C3C1EA2DF0E0FA87E98793E0EE0FFF1F5D
:1019A0009A95E1F7F88BEF87CF01840F951F1816F2
:1019B00019060CF0B1C1A98DBA8D58968C91811180
:1019C00004C0BFEABD1508F4D394A98DBA8DED917A
:1019D000FC9111970284F385E02DCD010995B5E0C6
:1019E000DB9EC0011124E981FA81FC83EB83312C59
:1019F000212C9C0128593F4F388F2F8B4A2D50E0C6
:101A00005E8B4D8BEF89F88DE20DF31D44919E8224
:101A10008D82D12CC12C69817A81620D731D7A8BE4
:101A2000698B842F90E09C8B8B8BE98DFA8DA08144
:101A3000B18140FF82C0F1E0BF126FC0AF126DC034
:101A40001C96ED91FC912F813885A4014C0D5D1DF4
:101A500069897A89898D9A8D0995EB89FC89F59533
:101A6000E7954E2F5FEFC51AD50A6D817E818D896E
:101A70009E89680F791F7E836D8398E0C916D10413
:101A800081F6AFEF2A1A3A0AEB81FC81E40DF51DCD
:101A9000FC83EB83F5E02F16310409F0B3CF2F81DF
:101AA000388526153705B9F0A98DBA8DED91FC91D1
:101AB000B1E0BB1257C0AB1255C069817A816B5F30
:101AC0007F4F0088F189E02D830128E030E0A401F8
:101AD000898D9A8D0995A98DBA8DED91FC911197FB
:101AE0000688F789E02DCD016A960FB6F894DEBF1F
:101AF0000FBECDBFDF91CF911F910F91FF90EF905F
:101B0000DF90CF90BF90AF909F908F907F906F901D
:101B10005F904F903F902F9009941E96ED91FC910D
:101B2000EF80F88409851A8592014D815E816B8171
:101B30007C81898D9A8D099590CF2F8138852615C6
:101B4000370509F48ACF31E0B31207C0A31205C0EC
:101B50001C96ED91FC91930178CF1E96ED91FC912E
:101B60007301E0CF6B857C85641975090684F78560
:101B7000E02D73010F8518899201A401898D9A8D3A
:101B80000995A9CFF90134969491329745915491D2
:101B9000D91AB7E0DB9E400D511D1124F9012591A2
:101BA00034913C8B2B8BFA0125903490FA013296BC
:101BB000749031963491398B32966490319644907A
:101BC00041E04C1518F04A1508F07FC0662D062C30
:101BD000000C770B7C836B83842D042C000C990BF9
:101BE0009E838D83A98DBA8DED91FC91119702840E
:101BF000F385E02DCD010995512CD12CC12CEA2D76
:101C0000F0E0FA87E9872B2D30E03C872B87A40191
:101C1000440D511D47FC5A95588F4F8B69817A812D
:101C2000660D711D67FC7A957E876D877989C71669
:101C300008F051CF2C2D30E04D815E81420F531FB3
:101C4000A985BA854A9FC0014B9F900D5A9F900D60
:101C50001124FC01E80DF91DF88BEF87852D612C0F
:101C60004F89588D420F531F5E8B4D8B671408F0C0
:101C700050C044244394480E877041F4C10101963A
:101C8000EB89FC89E20DF31DD4901C01D7FE19C02D
:101C9000A98DBA8DED91FC91662D70E0B1E0BB127B
:101CA00019C0AB1217C02D853E85620F731F0484C7
:101CB000F585E02D2F8138854D895E89898D9A8D36
:101CC0000995DD0C6394842DD1CF1E821D821C8268
:101CD0001B8288CF4B815C81640F751FAB85BC85EF
:101CE0006A9FC0016B9F900D7A9F900D11246981AE
:101CF0007A81680F791F0684F785E02DEF80F884DC
:101D000009851A859D014F855889898D9A8D099578
:101D1000D8CF570CC3948ACF6A960FB6F894DEBF1B
:101D20000FBECDBFDF91CF911F910F91FF90EF902C
:101D3000DF90CF90BF90AF909F908F907F906F90EB
:101D40005F904F903F902F9008958F929F92AF9207
:101D5000CF92EF92FF920F931F93CF93DF93EC01FB
:101D6000262F898D9A8D009709F051C06A30D1F4E1
:101D70001D861C868D8948E0849F900111248E85E4
:101D80009F85820F931F9F878E8781E090E0DF9170
:101D9000CF911F910F91FF90EF90CF90AF909F90B8
:101DA0008F9008956D3089F3CC88AD888F89882312
:101DB000C1F08C859D8536E0C39E800D911D112458
:101DC000488559854817590764F44E855F851D86F7
:101DD0001C8638E0A39EC0011124840F951F9F87A5
:101DE0008E87EA88FB88088919894E855F856C850E
:101DF0007D85CE010E94800C2C898C859D8546E0D6
:101E0000249F800D911D11249D878C87BECF6A3041
:101E100069F41D861C86FC013896E4912D898E8517
:101E20009F85E29F800D911D1124ADCF6D3009F487
:101E3000ACCFFC0134963491631708F4A6CF3296E8
:101E4000E491E61708F4A1CFFC01329685909490B6
:101E5000462F431B342F47E0349F800C911C1124E4
:101E6000F401329634913196E4913323A9F1EE23B3
:101E700099F1CC88F4013596E491AD884F894423DB
:101E800001F10E2E000CFF0BE30FF11DCE9EA00101
:101E9000CF9E500D11246C857D85460F571F688598
:101EA0007985641775076CF44E855F851D861C86E1
:101EB000FC013896E491AE9E400D511D11245F87C0
:101EC0004E87EA88FB88088919894E855F856C856D
:101ED0007D85CE010E94800CF4013496E4912C891A
:101EE0008C859D85E29F800D911D11248DCF6F9271
:101EF0007F928F929F92AF92BF92CF92DF92EF929A
:101F0000FF920F931F93CF93DF93EC016B015A0164
:101F100039014801E881F9810284F385E02D0995B2
:101F2000E881F9810288F389E02D87019301A501F9
:101F3000B601CE010995A501480D591D4150510921
:101F4000E881F9810288F389E02D9301B601CE0181
:101F50000995E881F9810088F189E02D9401A501B6
:101F6000B601CE010995C60CD71CB60161507109A6
:101F7000E881F9810088F189E02D9401A501CE0165
:101F80000995E881F9810688F789E02DCE01DF9176
:101F9000CF911F910F91FF90EF90DF90CF90BF9066
:101FA000AF909F908F907F906F9009946F927F92E7
:101FB0008F929F92AF92BF92CF92DF92EF92FF9259
:101FC0000F931F93CF93DF935C01EB016A014901EB
:101FD00038018701DC01ED91FC916217730719F557
:101FE000641675062CF0962D872D3A01C92ED82E31
:101FF0009601261937092F5F3F4F048CF58DE02D90
:10200000A301BE01C5010995DF91CF911F910F91E9
:10201000FF90EF90DF90CF90BF90AF909F908F9008
:102020007F906F9008954615570591F4261737074E
:1020300024F0892D4B01C22FD82F9E012819390970
:102040002F5F3F4F068CF78DE02DA601B401DACF4C
:102050000284F385E02D0995D501ED91FC9104886A
:10206000F589E02D83019401A601BE01C501099502
:10207000D501ED91FC910688F789E02DC501DF912E
:10208000CF911F910F91FF90EF90DF90CF90BF9075
:10209000AF909F908F907F906F900994EF92FF92F6
:1020A0000F931F93DC011A960D911C911B971896A4
:1020B0002D913C911997ED91FC9100A0F1A1E02D9B
:1020C0007B0150E040E070E060E009951F910F91C6
:1020D000FF90EF9008954F925F926F927F928F9250
:1020E0009F92AF92BF92CF92DF92EF92FF920F93A7
:1020F0001F93CF93DF936C012B015A0139014801E3
:10210000DC01ED91FC910284F385E02D0995E2015B
:10211000640C751CD601ED91FC91C615D7055CF4D5
:102120000088F189E02D87019401A501BE01C60157
:1021300009952196EFCF0688F789E02DC601DF913A
:10214000CF911F910F91FF90EF90DF90CF90BF90B4
:10215000AF909F908F907F906F905F904F90099479
:102160008F929F92AF92BF92CF92DF92EF92FF92A7
:102170000F931F93CF93DF93EC015B014A01690139
:10218000E881F9810284F385E02D099595012C0DF4
:102190003D1D21503109E881F9810488F589E02D40
:1021A00078018401A401B501CE010995E881F98186
:1021B0000688F789E02DCE01DF91CF911F910F9115
:1021C000FF90EF90DF90CF90BF90AF909F908F9057
:1021D00009948F929F92AF92BF92CF92DF92EF922B
:1021E000FF920F931F93CF93DF93EC015B014A01A2
:1021F00069017801E881F9810284F385E02D099570
:10220000C80CD91C860101501109E881F9810488A4
:10221000F589E02D9501A401B501CE010995E8816C
:10222000F9810688F789E02DCE01DF91CF911F91CA
:102230000F91FF90EF90DF90CF90BF90AF909F9065
:102240008F900994EF92FF920F931F93DC01ED9111
:10225000FC9100A0F1A1E02D09951F910F91FF9035
:10226000EF9008950F931F93DC01ED91FC91068C84
:10227000F78DE02D09951F910F9108950F931F93EE
:10228000DC01ED91FC91048CF58DE02D09951F91F9
:102290000F910895DC01ED91FC910084F185E02D12
:1022A00009943F924F925F926F927F928F929F928A
:1022B000AF92BF92CF92DF92EF92FF920F931F9354
:1022C000CF93DF935C017B014A016901390187E00B
:1022D000680E711C93E0759467949A95E1F72B0151
:1022E000400E511E10E000E0312CD0E0C0E0CE01E5
:1022F00087709927330C892B59F4FE0183E0F595FB
:10230000E7958A95E1F7E00FF11FE80DF91D34908C
:1023100037FE0AC021E030E0A701B5016C0F7D1F38
:1023200080E394E00E944A112196CC16DD06F9F66E
:102330008FEFE81AF80A060D171DE414F504A9F644
:10234000DF91CF911F910F91FF90EF90DF90CF9091
:10235000BF90AF909F908F907F906F905F904F90C5
:102360003F9008952F923F924F925F926F927F928B
:102370008F929F92AF92BF92CF92DF92EF92FF9295
:102380000F931F93CF93DF9300D000D000D0CDB731
:10239000DEB73C016A013E832D83FC82EB8258014B
:1023A000A41AB50AB7FE03C0B194A194B1088D80F8
:1023B0009E80861A970A97FE03C091948194910893
:1023C0008A149B045CF0902F812F0D811E819D83C8
:1023D0008E839C2D8D2D6B01692F782F0C151D057B
:1023E0005CF09D818E817E836D83692F782F902F85
:1023F000812F8601C92ED82E1601201A310A2B01F1
:102400002D813E81421A530A57FE03C051944194D4
:102410005108710137FE03C03FEFE31AF30AF59448
:10242000E7948D819E81861797075CF5A1E0B0E067
:10243000BA83A983C016D1064CF1D301ED91FC916A
:102440000484F585E02D2B813C81A8016D817E817E
:102450008A149B041CF04D815E81B801C30109956B
:10246000E418F508F7FE0AC02D813E8189819A8122
:10247000280F391F3E832D83E20CF31C0F5F1F4F83
:10248000D9CF2FEF3FEF3A832983D4CF26960FB6CB
:10249000F894DEBF0FBECDBFDF91CF911F910F919A
:1024A000FF90EF90DF90CF90BF90AF909F908F9074
:1024B0007F906F905F904F903F902F900895089578
:1024C00020915E02260F3327331F21323105ECF4B1
:1024D00020918202FC0190E080E0243069F082E0EB
:1024E0000895A0915E022191AC01425C5D4FA40F62
:1024F000B52FB11D2C930196861798F380915E023B
:10250000680F60935E0280E0089581E00895109264
:10251000820281E0809384021092830261E082E172
:102520000E94820661E083E10E948206E9EBF0E00E
:1025300080818E7F808380818D7F808388E48093FB
:10254000B80085E48093BC000895CF93DF9391E0B9
:1025500090933D028823B9F0C091B800D091BA00A1
:102560008091BC008A7B8093BC0060E082E10E9485
:10257000820660E083E10E9482060E948712D09367
:10258000BA00C093B800DF91CF910895E091AE02F8
:102590008091AD02E81730F4F0E0E85EFD4F8081F5
:1025A00090E008958FEF9FEF08959091AE02809193
:1025B000AD022FEF3FEF981748F4E92FF0E0E85E07
:1025C000FD4F208130E09F5F9093AE02C9010895D6
:1025D0008091AD029091AE02891B990B0895CF9224
:1025E000DF92EF92FF920F931F93CF93DF937C01C3
:1025F000CB018A012091BB02222389F0EB016B0100
:10260000C40ED51ECC15DD0569F06991D701ED9199
:10261000FC910190F081E02DC7010995F3CF642F63
:102620000E946012C801DF91CF911F910F91FF901E
:10263000EF90DF90CF900895CF93DF931F92CDB7A7
:10264000DEB769832091BB022223F9F02091B80202
:10265000203258F021E030E0FC013383228390E007
:1026600080E00F90DF91CF9108958091B902E82F1B
:10267000F0E0E850FE4F998190838F5F8093B9021C
:102680008093B80281E090E0ECCF61E0CE0101964A
:102690000E946012F7CFCF92DF92EF92FF920F93DA
:1026A0001F93CF93DF93D091B80281E0D13208F02D
:1026B0009CC0C091BA020E94F4066B017C0180911B
:1026C000820281116CC082E08093820281E080935B
:1026D00084028FEF809381021092A602D093A5020C
:1026E000A8EFB1E0E5E8F2E080E0D8138DC01092E9
:1026F000A7028091A702CC0FC82BC093A70280919C
:102700008302813009F084C0109283020E94F40693
:102710006B017C018091A7028093BB0080913902FC
:1027200090913A02A0913B02B0913C02892B8A2BF6
:102730008B2BA1F00E94F4060091390210913A020D
:1027400020913B0230913C026C197D098E099F0952
:10275000061717072807390708F442C08091BC0004
:1027600083FDD8CF85EC8093BC000E94F4066B01FA
:102770007C0180918202823009F44CC080918102F8
:102780008F3F09F469C080918102803209F466C0EC
:1027900080918102803309F463C084E026C0809177
:1027A000390290913A02A0913B02B0913C02892BF0
:1027B0008A2B8B2B09F483CF0E94F40600913902F7
:1027C00010913A0220913B0230913C026C197D0934
:1027D0008E099F09061717072807390708F06FCFDA
:1027E000809138020E94A51285E01092B9021092E1
:1027F000B8021092BB02DF91CF911F910F91FF9011
:10280000EF90DF90CF9008959D9191938F5F6DCF62
:1028100085EEA9CF8091390290913A02A0913B02B6
:10282000B0913C02892B8A2B8B2B09F4A2CF0E94FA
:10283000F4060091390210913A0220913B02309146
:102840003C026C197D098E099F0906171707280796
:10285000390708F08ECFC4CF80E0C7CF82E0C5CF64
:1028600083E0C3CFEF92FF920F931F93CF93DF9339
:102870007C01C62F80914D0490914E04009709F47D
:1028800059C02091510431E03093BB022093BA0229
:102890001092B9021092B802DC01ED91FC91019006
:1028A000F081E02D60E009958701EE24E394F12C9E
:1028B000D1E0C15080914D0490914E04CF3F91F1F1
:1028C000B0E2EB16F104D8F00E944B1380914D0456
:1028D00090914E0420915104D093BB022093BA02F0
:1028E0001092B9021092B802DC01ED91FC910190B6
:1028F000F081E02D60E00995EE24E394F12C8091C5
:102900004D0490914E04F8016491DC01ED91FC912D
:102910000190F081E02D0995BFEFEB1AFB0A0F5FE4
:102920001F4FC7CFDF91CF911F910F91FF90EF9075
:102930000C944B13E0915D04F0915E0490818091C2
:1029400063048095892380838701C15008F438C0CF
:10295000F801849120914B0430914C04232B29F0F1
:102960000E94600C0F5F1F4FF0CF28E030E040E87E
:10297000E0915904F0915A0490916104582F542326
:10298000D9F05081952B9083E0915B04F0915C0429
:10299000908150916204952B9083E0915B04F091BB
:1029A0005C045081909162049095952390834695A4
:1029B00021503109E9F6D6CF508190959523E3CF88
:1029C000DF91CF911F910F91FF90EF9008951F938A
:1029D000CF93DF93EC018D8D9E8D009721F1162F03
:1029E00029A131E03093BB022093BA021092B902C0
:1029F0001092B802DC01ED91FC910190F081E02D84
:102A000060E009958D8D9E8DDC01ED91FC9101902A
:102A1000F081E02D612F09958D8D9E8DDF91CF91F5
:102A20001F910C944B13ADA5BEA59C918BA98095CD
:102A300089238C938B8D9C8D892B31F0862FDF9190
:102A4000CF911F910C94600C28E030E080E8A9A59C
:102A5000BAA599A9462F4823C1F04C91942B9C9379
:102A6000ABA5BCA59C914AA9942B9C93ABA5BCA5F6
:102A70004C919AA9909594239C9386952150310965
:102A800031F7DF91CF911F9108954C919095942348
:102A9000E6CFDF92EF92FF920F931F93CF93DF93D6
:102AA00080914D0490914E04892B09F498C0209197
:102AB000650430916604409167045091680460E0B9
:102AC00074E284EF90E00E942426205131094109EC
:102AD000510956954795379527952093B80065E09D
:102AE0008EE99AE00E94321460913404615080E3D0
:102AF00094E00E94E7142091360430913704C90114
:102B0000079697FD079633E0959587953A95E1F7F7
:102B10002091340430913504829F8001839F100DF1
:102B2000929F100D1124C0914F04D09150048091B8
:102B30004D0490914E040C0F1D1F009709F48FC097
:102B40002091510431E03093BB022093BA021092DD
:102B5000B9021092B802DC01ED91FC910190F08174
:102B6000E02D60E40995EE24E394F12CDD24D39468
:102B700080914D0490914E040C171D0709F446C036
:102B8000B0E2EB16F104D8F00E944B1380914D0493
:102B900090914E0420915104D092BB022093BA022E
:102BA0001092B9021092B802DC01ED91FC910190F3
:102BB000F081E02D60E40995EE24E394F12C8091FE
:102BC0004D0490914E046991DC01ED91FC910190CE
:102BD000F081E02D0995BFEFEB1AFB0AC9CF809178
:102BE0004B0490914C04892B31F080916E049091AC
:102BF0006F040E94670CE0915F04F0916004908183
:102C00008091640480958923808369CF0E944B134F
:102C100080914D0490914E04892B09F461C020915C
:102C2000690430916A0440916B0450916C0460E037
:102C300074E284EF90E00E9424262051310941097A
:102C4000510956954795379527952093B800DF9100
:102C5000CF911F910F91FF90EF90DF900895E09139
:102C60005D04F0915E04808190916304892B8083E0
:102C70000C171D0769F2899120914B0430914C0487
:102C8000232B19F00E94600CF3CF28E030E040E8DD
:102C9000E0915904F0915A0490916104582F542303
:102CA000D9F05081952B9083E0915B04F0915C0406
:102CB000908150916204952B9083E0915B04F09198
:102CC0005C04508190916204909595239083469581
:102CD00021503109E9F6CCCF508190959523E3CF6F
:102CE000E0915F04F0916004808190916404892BED
:102CF0008083ADCF1F93CF93DF93EC01162F8D8D83
:102D00009E8D892BB1F12DA93EA94FA958AD60E048
:102D100074E284EF90E00E94242620513109410999
:102D2000510956954795379527952093B80066EA3F
:102D3000111167EACE010E94E7148D8D9E8D892BBB
:102D400041F129AD3AAD4BAD5CAD60E074E284EF8A
:102D500090E00E94242620513109410951095695DD
:102D60004795379527952093B800DF91CF911F9114
:102D700008958B8D9C8D892B21F08EAD9FAD0E9487
:102D8000670CEFA5F8A990818CA980958923808391
:102D9000CECFEFA5F8A980819CA9892B8083E5CFB0
:102DA00090E080E00895CF93DF93EC018885811156
:102DB0000EC0898591E098879A8562E0911101C0E3
:102DC00060E00E94B4068FE090E00197F1F78985FA
:102DD0000E9456063B8521E03817190609F420E0C9
:102DE000822FDF91CF9108950F931F93CF938C0182
:102DF0000E94D316C82F0E944B07F8012281213070
:102E000091F030F02230F1F0233011F1C0E006C033
:102E1000C111FCCF7483638381E082838C2FCF91B7
:102E20001F910F910895CC2311F01282EFCF2381CF
:102E30003481621B730B6F30710580F382E0F801FF
:102E40008283E4CFCC2351F37483638383E0F8CF90
:102E5000CC23A1F323813481621B730B6F30710586
:102E6000A8F21282DBCFCF93DF93FC0127812223CC
:102E700059F1EC0161E080850E94B40661E089852A
:102E80000E94B4068F81843011F08830B1F461E083
:102E90008A850E94B40661E08B850E94B4068FA5E6
:102EA0008F3F91F061E00E94B4066EA581E0682733
:102EB0008FA5DF91CF910C948206833011F086307C
:102EC00071F761E08A85E9CFDF91CF910895CF93C3
:102ED000DF93FC0127812223A9F0EC010190F0810E
:102EE000E02D0284F385E02D60E009958FA58F3FEA
:102EF00049F061E00E94B4066EA58FA5DF91CF91E5
:102F00000C948206DF91CF910895DC01ED91FC9144
:102F10002285338547705527662777274150510909
:102F200061097109473051056105710560F4FA01C5
:102F3000E456F84E0C946526A617A817AA17AC17E6
:102F4000AE17B017B21761E0F901099465E0FCCF44
:102F500064E0FACF66E0F8CF62E0F6CF6AE0F4CF43
:102F600068E0F2CF69E0F0CFCF93DF93EC01CB01C3
:102F7000BA0126E030E040E050E00E944626623090
:102F800071058105910589F16CF461157105810563
:102F90009105D1F06130710581059105F9F0DF915E
:102FA000CF910895643071058105910561F124F197
:102FB000653071058105910591F7E881F9810284F9
:102FC000F385E02D66E006C0E881F9810284F3858F
:102FD000E02D64E0CE01DF91CF910994E881F98181
:102FE0000284F385E02D65E0F5CFE881F981028464
:102FF000F385E02D61E0EECFE881F9810284F3856D
:10300000E02D63E0E7CFE881F9810284F385E02DCC
:1030100062E0E0CFDC01ED91FC910284F385E02DCC
:1030200043705527662777274230510561057105A2
:1030300071F0433051056105710559F0413051057A
:103040006105710511F065E0099466E0FDCF6AE065
:10305000FBCF69E0F9CFCF93DF93EC01CB01BA014D
:1030600023E030E040E050E00E94462661307105E8
:103070008105910599F06230710581059105A9F0EE
:10308000672B682B692BC1F4E881F9810284F385F1
:10309000E02D64E0CE01DF91CF910994E881F981C0
:1030A0000284F385E02D61E0F5CFE881F9810284A7
:1030B000F385E02D62E0EECFDF91CF910895DC0142
:1030C000ED91FC910284F385E02D4370552766272E
:1030D0007727423051056105710571F04330510584
:1030E0006105710559F0413051056105710511F017
:1030F00062E0099463E0FDCF61E0FBCF60E0F9CFCF
:10310000CF93DF93EC01E881F9810284F385E02D10
:103110008A8160E0811162E0CE010995E881F98140
:103120000284F385E02D8A8161E0811163E0CE01A4
:1031300009958CA59DA58230910538F0880F991FBF
:10314000880F991F05970197F1F7E881F9810284AB
:10315000F385E02D8A8160E0811162E0CE01DF918C
:10316000CF910994CF93DF93EC0120E030E0A901E7
:10317000688D798D8A8D9B8D0E94942718162CF46A
:10318000E8A9F9A9DF91CF910994EAA9FBA9FACF9F
:10319000CF92DF92EF92FF920F931F93CF93DF9323
:1031A000DC011796CC91C43039F0C83059F1C330E6
:1031B00019F0C63049F1C2E08C01085F1F4FF12CB5
:1031C000E12CC62ED12CD1E0F8016481C6010E2C71
:1031D00002C0959587950A94E2F780FD6D270F5FF1
:1031E0001F4F80810E948206BFEFEB1AFB0AEC168C
:1031F00058F3DF91CF911F910F91FF90EF90DF90E7
:10320000CF900895C4E0D8CFC3E0D6CFDC011796A5
:10321000EC911797E93008F038C0F0E0EE5EF64E1A
:103220000C9465261B19211927192D1933194519D5
:10323000391945193F19ED91FC910684F785E02D68
:103240000994ED91FC910088F189E02DF9CFED9181
:10325000FC910288F389E02DF3CFED91FC91048875
:10326000F589E02DEDCFED91FC910688F789E02DF1
:10327000E7CFED91FC91008CF18DE02DE1CFED9148
:10328000FC91028CF38DE02DDBCF0895CF92DF927D
:10329000EF92FF928091E3039091E403A091E50304
:1032A000B091E603892B8A2B8B2B31F480E0FF90C1
:1032B000EF90DF90CF9008950E94F4066B017C019F
:1032C0008091080490910904A0910A04B0910B0424
:1032D000B701A601481B590B6A0B7B0B8091E303D6
:1032E0009091E403A091E503B091E60348175907D4
:1032F0006A077B07D8F28091F0039091F103A091C7
:10330000F203B091F3032091E203222309F1019625
:10331000A11DB11D8093F0039093F103A093F203DC
:10332000B093F3034091F0035091F1036091F203E5
:103330007091F30380EE93E00E940619C092080496
:10334000D0920904E0920A04F0920B0481E0AFCF1E
:103350000197A109B109DECF4F925F926F927F92E0
:103360008F929F92AF92BF92CF92DF92EF92FF9295
:103370000F931F93CF93DF93EC01CC88DD88EE8809
:10338000FF8888899989AA89BB89C81AD90AEA0A53
:10339000FB0A688D798D8A8D9B8D9B01AC010E9403
:1033A0001B254B015C0168A179A18AA19BA19B010E
:1033B000AC010E9480269B01AC01C501B4010E94B2
:1033C000EC260E945E27C114D104E104F10409F047
:1033D000B6C062307105810591050CF0D0C01B822A
:1033E0001C821D821E82188E198E1A8E1B8E1CAA9C
:1033F0001DAA1EAA1FAAC12CD12C7601C701B60195
:10340000DF91CF911F910F91FF90EF90DF90CF90C0
:10341000BF90AF909F908F907F906F905F904F90F4
:1034200008951016110612061306B4F46C157D05E6
:103430008E059F051CF42A812111A1C09B01AC01BE
:1034400088279927DC01821B930BA40BB50B8CAB4F
:103450009DABAEABBFAB93C0011511052105310586
:1034600009F48DC06C157D058E059F050CF087C095
:103470008A81882309F483C03095209510950195A1
:103480001F4F2F4F3F4F0CAB1DAB2EAB3FAB77C049
:10349000011511052105310509F471C0882499240D
:1034A00054018C189D08AE08BF08681579058A0577
:1034B0009B050CF064C08A81811161C0DDCFCCAC6A
:1034C000DDACEEACFFACA7019601C701B6010E94CE
:1034D00080262B013C01C501B4010E94BC2420E0E0
:1034E00030E040E850E40E941B2520E030E040E856
:1034F0005FE30E9480269B01AC01C301B2010E94E0
:10350000EC269B01AC01C701B6010E947F263B015E
:103510006C01FE01E05CFF4FE080F18002811381CD
:103520009701A8010E949427181614F473018601CC
:10353000C701D8018CAF9DAFAEAFBFAF3AC00CA9E9
:103540001DA92EA93FA91C141D041E041F040CF460
:1035500068CF10161106120613060CF099CF00273B
:10356000112798010C191D092E093F0960177107D1
:10357000820793070CF062CF2A8121115FCF8CA8BC
:103580009DA8AEA8BFA881149104A104B10409F0BC
:1035900096CF88AD99ADAAADBBAD8CAF9DAFAEAFA8
:1035A000BFAF81E01C141D041E041F040CF080E05A
:1035B0008A833FEF831A930AA30AB30A8CAA9DAAAF
:1035C000AEAABFAA8CAC9DACAEACBFACC501B40179
:1035D0000E9465276B017C01CB82DC82ED82FE823A
:1035E000A501940160E074E284E799E40E94EC266E
:1035F000688F798F8A8F9B8F2A812111FFCE9058F7
:10360000688F798F8A8F9B8FF9CECF92DF92EF925E
:10361000FF92CF93DF93C0EED3E0688D798D8A8DD2
:103620009B8D9B01AC010E941B256B017C0168A155
:1036300079A18AA19BA19B01AC010E9480269B01DC
:10364000AC01C701B6010E94EC260E945E276CAB5C
:103650007DAB8EAB9FABCE01DF91CF91FF90EF9012
:10366000DF90CF900C94AC1908954F925F926F92B7
:103670007F928F929F92AF92BF92CF92DF92EF9202
:10368000FF926B017C0120E030E0A9010E94B5248B
:1036900087FF04C0F7FAF094F7F8F09480900004E4
:1036A00090900104A0900204B0900304A701960139
:1036B000C501B4010E94B524882309F458C0609163
:1036C00014047091150480911604909117040E94BF
:1036D000BC242B013C01A7019601C501B4010E9445
:1036E000EC269B01AC01C301B2010E941B250E9484
:1036F0005E276093140470931504809316049093CE
:103700001704A701960160E070E080E090E40E9459
:10371000EC260E949F2726E53EE04DE25FE30E94F3
:103720001B2520E034E244E759E40E941B25609306
:1037300018047093190480931A0490931B04C09288
:103740000004D0920104E0920204F092030480EE9F
:1037500093E0FF90EF90DF90CF90BF90AF909F905D
:103760008F907F906F905F904F900C94AC19FF906A
:10377000EF90DF90CF90BF90AF909F908F907F9011
:103780006F905F904F9008952091360430913704E8
:10379000C901079697FD079623E0959587952A9589
:1037A000E1F72091340430913504829FA001839F7A
:1037B000500D929F500D112470E060E080914F04F5
:1037C000909150040C94E4290C949028FB010190F2
:1037D0000020E9F73197AF01461B570BDC01ED9153
:1037E000FC910280F381E02D09948F929F92AF9219
:1037F000BF920F931F93CF93DF93CDB7DEB7A197FF
:103800000FB6F894DEBF0FBECDBF19A2423008F448
:103810004AE08E010F5D1F4F842E912CB12CA12CFC
:10382000A50194010E942426E62FB901CA01EA30BD
:1038300004F5E05DD801EE938D01232B242B252B7D
:1038400079F790E080E0109729F0BD0180E394E0E3
:103850000E94E61BA1960FB6F894DEBF0FBECDBF47
:10386000DF91CF911F910F91BF90AF909F908F905C
:103870000895E95CDFCFCF92DF92EF92FF92CF9372
:10388000DF936B017C016DE280E394E00E94A50E62
:10389000EC0166277727CB016C197D098E099F09FA
:1038A0004AE00E94F51B8C0F9D1FDF91CF91FF9086
:1038B000EF90DF90CF900895AF92BF92CF92DF92BA
:1038C000EF92FF920F931F93CF93DF930E94C41B3D
:1038D0000E944915C12CD12C760104E110E083E04F
:1038E000A82EB12CE60188EC93E00E94F416811119
:1038F00009C060E070E088E493EC0E94A1050E949A
:103900004619F1CF84ED93E00E94F416811109C0AD
:1039100060E070E088E493E40E94A1050E944619EB
:10392000F1CF0E94C41B0E94491510923D041092D1
:103930003C0410933F0400933E044AE0C701B601E3
:103940000E94F51B6FE280E394E00E94A50E4AE01E
:1039500068EE73E080E090E00E94F51B0E9449153C
:103960002097C9F0CE01B5010E941026892B99F449
:1039700084ED93E00E94F416811109C060E070E0CC
:1039800088E492E40E94A1050E944619F1CF0E94AA
:10399000B3078332E1F78FEFC81AD80AE80AF80AAA
:1039A00088EEC81683E0D806E104F10409F09ACF46
:1039B000DF91CF911F910F91FF90EF90DF90CF900B
:1039C000BF90AF9008950E94D62985ED8093BC00EA
:1039D0008091390290913A02A0913B02B0913C0251
:1039E0000796A11DB11D23E0B695A79597958795DC
:1039F0002A95D1F72091BC0024FD03C010928202C9
:103A000008954091390250913A0260913B027091C1
:103A10003C02452B462B472B69F30097A105B105C6
:103A200041F025E32A95F1F700000197A109B109BA
:103A3000E1CF809138020C94A5121F920F920FB61D
:103A40000F9211242F933F938F939F93AF93BF9324
:103A50008091B0029091B102A091B202B091B302F4
:103A60003091AF0223E0230F2D3758F50196A11DA9
:103A7000B11D2093AF028093B0029093B102A09346
:103A8000B202B093B3028091B4029091B502A091BA
:103A9000B602B091B7020196A11DB11D8093B40288
:103AA0009093B502A093B602B093B702BF91AF91C5
:103AB0009F918F913F912F910F900FBE0F901F906C
:103AC000189526E8230F0296A11DB11DD2CF1F9293
:103AD0000F920FB60F9211242F933F934F935F9342
:103AE0006F937F938F939F93AF93BF93EF93FF93C6
:103AF0008CEB92E00E947A09FF91EF91BF91AF9118
:103B00009F918F917F916F915F914F913F912F91F5
:103B10000F900FBE0F901F9018951F920F920FB627
:103B20000F9211242F938F939F93EF93FF93E09124
:103B3000CC02F091CD028081E091D202F091D302CB
:103B400082FD1BC090818091D5028F5F8F73209181
:103B5000D602821741F0E091D502F0E0E454FD4F27
:103B6000958F8093D502FF91EF919F918F912F9127
:103B70000F900FBE0F901F9018958081F4CF1F9269
:103B80000F920FB60F9211242F933F934F935F9391
:103B90006F937F938F939F93AF93BF93EF93FF9315
:103BA0008091B900887F803609F44AC0F0F58832E8
:103BB00009F4A7C018F5803109F49BC0B8F4882334
:103BC00009F4F9C0883009F494C0FF91EF91BF91D6
:103BD000AF919F918F917F916F915F914F913F91A5
:103BE0002F910F900FBE0F901F901895883109F4F8
:103BF00088C0803251F78093810214C0803409F468
:103C00009DC040F48033B9F38833F9F68093810284
:103C100085ECB0C0803509F485C0883509F496C0BC
:103C2000883499F60E94E51CD0CF883909F48CC0FD
:103C300038F5883729F050F4883611F0803729F6A6
:103C400083E0809382021092800257C0883809F482
:103C50007BC0803919F0803809F0B7CF809180029D
:103C6000803208F071C0E091800281E08E0F809375
:103C700080028091BB00F0E0E05AFD4F80833DC0A0
:103C8000803B39F0E0F4803A09F479C0883A09F0D1
:103C90009CCF84E08093820210925F0210925E02B9
:103CA000E091AB02F091AC02099580915E02811126
:103CB0000FC081E080935E0210923E0209C0803CFA
:103CC00009F4A6CF883C09F4A3CF883B09F07DCF47
:103CD000E0915F0281E08E0F80935F02F0E0E25C92
:103CE000FD4F80818093BB0090915F0280915E02C6
:103CF00029C08091A7028093BB0085EC8093BC0013
:103D000064CF9091A6028091A502981758F5E09192
:103D1000A60281E08E0F8093A602F0E0EB57FD4FE4
:103D20008081E9CFE091A60281E08E0F8093A60208
:103D30008091BB00F0E0EB57FD4F80839091A6028D
:103D40008091A5029817C8F285E8D8CFE091A60225
:103D500081E08E0F8093A6028091BB00F0E0EB57CC
:103D6000FD4F80838091840281115CCF81E080933C
:103D7000830284EA8093BC001092820226CF85ECF5
:103D80008093BC001092820280918002803230F4D5
:103D9000E0918002F0E0E05AFD4F108260918002D5
:103DA00070E0E091A902F091AA0280E692E0099504
:103DB000109280020ACF1092810234CFCF92DF920C
:103DC000EF92FF921092BF021092BE0288EE93E033
:103DD000A0E0B0E08093C0029093C102A093C20221
:103DE000B093C3022DE131E03093BD022093BC02B9
:103DF00025EC30E03093C9022093C80224EC30E077
:103E00003093CB022093CA0220EC30E03093CD02F5
:103E10002093CC0221EC30E03093CF022093CE02ED
:103E200022EC30E03093D1022093D00226EC30E037
:103E30003093D3022093D2021092D5021092D60270
:103E40001092D7021092D8021092270410922604E2
:103E50008093280490932904A0932A04B0932B0400
:103E60008FE291E090932504809324041092330410
:103E70001092320420E830E030933504209334046B
:103E800080E490E0909337048093360430933904B3
:103E90002093380490933B0480933A041092460494
:103EA00010923D0410923C0410923F0410923E0484
:103EB00091E090934504909344042FEF3FEF3093AB
:103EC0004304209342043093410420934004909390
:103ED00047041092480410924A041092490421E7C2
:103EE00031E0309331042093300410924C0410924E
:103EF0004B0424E234E030934E0420934D0410929E
:103F0000500410924F048FEF809354048093550413
:103F100080935604809357048093580440E85AE1F4
:103F200066E070E040936504509366046093670414
:103F30007093680440EA56E861E070E040936904D9
:103F400050936A0460936B0470936C0420E5209393
:103F50006E0410926F0421E531E03093E103209369
:103F6000E0039093E7031092F0031092F103109294
:103F7000F2031092F3031092F4031092F5031092DF
:103F8000F6031092F7031092F8031092F9031092BF
:103F9000FA031092FB031092FC031092FD0310929F
:103FA000FE031092FF03109200041092010410927D
:103FB000020410920304C12CD12C90E8E92E9FE357
:103FC000F92EC0920404D0920504E0920604F09207
:103FD00007041092E3031092E4031092E503109299
:103FE000E60321E030E030930D0420930C0480932D
:103FF0000F04109208041092090410920A041092FF
:104000000B048AE08093E8038BE08093E90384E06B
:104010008093EA0385E08093EB0310920E041092E4
:1040200014041092150410921604109217041092A2
:1040300018041092190410921A0410921B04109282
:104040001C0410921D0410921E0410921F04C092B2
:104050002004D0922104E0922204F09223041092D2
:10406000E2031092EC031092ED031092EE03109213
:10407000EF0380EE93E00E943317C701B6010E9460
:10408000351BA70196016091FC037091FD0380919F
:10409000FE039091FF030E94B524882319F1C0927A
:1040A000FC03D092FD03E092FE03F092FF0380E058
:1040B00094E2A4E7B9E48093200490932104A093B0
:1040C0002204B09323048091140490911504A091CC
:1040D0001604B0911704181619061A061B0614F4D4
:1040E0000E94051B1092D6031092D9032BE431E0F5
:1040F0003093D5032093D4031092DC038FE0809398
:10410000DD0381E08093DE038093DF031092CA0316
:104110001092CD033093C9032093C8031092D003AB
:1041200090E19093D1038093D2038093D3031092B4
:104130005B0310925F0310925E031092600381E4B0
:1041400091E090935A0380935903E5E7F3E01082DE
:10415000148213821582369683E0E13BF807B9F7A3
:1041600083E091E09093BC038093BB0380E091E0F7
:104170009093BE038093BD0384E08093BF0383E0EC
:104180008093C00387E091E09093BA038093B903D2
:104190008AE090E09093C2038093C10384EF91E0A2
:1041A0009093C4038093C3031092C7031092C60375
:1041B0001092B5031092B6031092B7031092B80391
:1041C0001092C503FF90EF90DF90CF900895789400
:1041D00084B5826084BD84B5816084BD85B582600C
:1041E00085BD85B5816085BD80916E0081608093BD
:1041F0006E00109281008091810082608093810026
:104200008091810081608093810080918000816035
:10421000809380008091B10084608093B100809190
:10422000B00081608093B00080917A0084608093B8
:104230007A0080917A00826080937A0080917A007F
:10424000816080937A0080917A00806880937A0000
:104250001092C100E091CC02F091CD0282E0808307
:10426000E091C802F091C9021082E091CA02F09177
:10427000CB028FEC80831092D402E091D002F091B7
:10428000D10286E08083E091CE02F091CF0280815E
:1042900080618083E091CE02F091CF0280818860BE
:1042A0008083E091CE02F091CF028081806880838C
:1042B000E091CE02F091CF0280818F7D808382E3F6
:1042C00090E09093C2038093C10320E030E04AE77E
:1042D00054E46091FC037091FD038091FE03909182
:1042E000FF030E94B524882319F180E090E0AAE73B
:1042F000B4E48093FC039093FD03A093FE03B0937A
:10430000FF038093200490932104A0932204B09390
:1043100023048091140490911504A0911604B09187
:104320001704181619061A061B0614F40E94051B1A
:1043300060E070E080EF91E40E94351B80914F04B3
:1043400090915004892B11F10E94C41B20913604D6
:104350003091370480913404909135042132310535
:104360000CF04AC0B9016052710977FF02C06F5F5B
:104370007F4F759567958357910997FD019600E2E8
:1043800010E023E730E04AE855E049C020913604C8
:1043900030913704C901079697FD0796B3E09595CC
:1043A0008795BA95E1F72091340430913504AC013A
:1043B000429FC001439F900D529F900D11240E9477
:1043C000F4279093500480934F04892B09F0BCCFBD
:1043D000CAE2DAE0FE016491662339F08CEB92E0E8
:1043E0000E949C092196892BA9F769E971E08CEB61
:1043F00092E00E94E61BFFCFB9016054710977FF7C
:1044000002C06F5F7F4F759567958255910997FD43
:10441000019600E410E022E530E04AE657E0959589
:1044200087950E94511182E08093520480914D043F
:1044300090914E04892B09F40EC18CE380935104B2
:104440001092AE021092AD021092B9021092B80210
:104450000E9487128AEF98E09093AC028093AB029F
:104460008BEF98E09093AA028093A9028091580460
:1044700087FD1EC061E00E94B40661E0809158048F
:104480000E94820661E070E080E090E00E941907DF
:1044900060E0809158040E9482066AE070E080E04B
:1044A00090E00E94190761E0809158040E94820602
:1044B00080914D0490914E04892B09F48BC1209179
:1044C000650430916604409167045091680460E08F
:1044D00074E284EF90E00E942426205131094109C2
:1044E000510956954795379527952093B80064E074
:1044F00086E895E00E94321460913604615080E3B2
:1045000094E00E94E71464E082E895E00E9432148F
:104510008091520460E1813009F064E180E394E02D
:104520000E94E71464E08EE795E00E9432148FE861
:1045300080936D0480913404909135048038910506
:1045400009F061C18091360490913704803491055F
:1045500009F069C180915204813009F052C18FE99C
:1045600080936D04C2E16AED80E394E00E94E71459
:104570006C2F80E394E00E94E71461E880E394E00C
:104580000E94E71460916D0480E394E00E94E714B8
:1045900069ED80E394E00E94E7148091520462E2A6
:1045A000813009F061EF80E394E00E94E71466E057
:1045B00088E795E00E94321480914D0490914E045A
:1045C000892B09F434C12091690430916A04409127
:1045D0006B0450916C0460E074E284EF90E00E9400
:1045E000242620513109410951095695479537959F
:1045F00027952093B8000E94C41B81E08093440457
:104600008093450481E090E09093430480934204BA
:10461000909341048093400410923D0410923C0416
:1046200010923F0410923E046CE971E080E394E044
:104630000E94E61B0E94491584ED93E00E94F41647
:104640008111FFC060E070E088E492E40E94A1055F
:104650000E944619F1CF61E0809156040E94B40691
:1046600061E0809157040E94B40680915604082EA0
:10467000000C990BFC01EE59F54FE491F0E0EE0FC0
:10468000FF1FE25BF54F2591349130935E04209338
:104690005D04FC01EA58F54FE491E09363048091D6
:1046A0005704082E000C990BFC01EE59F54FE491CC
:1046B000F0E0EE0FFF1FE25BF54FA591B491B093D0
:1046C0006004A0935F04FC01EA58F54FE491E09385
:1046D00064048C91E82BEC9380914B0490914C04F2
:1046E000892B09F434C0CFB7F8948091A8028111C6
:1046F00027C0ECE6FAE08491E0E8FAE09491E82F34
:10470000F0E0EE0FFF1FEC5BF54FA591B491EC913B
:10471000E92321F461E08AE00E94820661E08AE0F8
:104720000E94B4068CB580618CBD8CB580648CBD54
:1047300061E08DE00E94B40661E08BE00E94B40667
:104740008091A8028F5F8093A802CFBF8FCE61E0D7
:10475000809154040E94B40661E0809155040E9447
:10476000B40680915404082E000C990BFC01EE59FC
:10477000F54FE491F0E0EE0FFF1FE25BF54F25915E
:10478000349130935A0420935904FC01EA58F54FB0
:10479000E491E093610480915504082E000C990B7C
:1047A000FC01EE59F54FE491F0E0EE0FFF1FE25BE4
:1047B000F54FA591B491B0935C04A0935B04FC0108
:1047C000EA58F54FE491E09362048C91E095E82378
:1047D000EC934CCE80914B0490914C04892B31F09A
:1047E00080916E0490916F040E94670CE0915F04C9
:1047F000F091600490818091640480958923808386
:1048000076CE8FECADCE8036910569F4809136047A
:1048100090913704409739F480915204813029F403
:1048200080E180936D04C2E09ECE8FEAFACFE091E2
:104830005F04F0916004808190916404892B8083EF
:10484000DACE10923D0410923C048AE090E09093FE
:104850003F0480933E0463EA71E080E394E00E94A9
:10486000E61B10923D0410923C048EE190E0909380
:104870003F0480933E0465EC71E080E394E00E9485
:10488000E61B0E94491561E070E090E080E00E9424
:104890001929EC01009729F018826BE971E00E9458
:1048A000EB290E94B307082E000C990B8332910567
:1048B000C9F567ED71E08CEB92E00E94E61B69E9B7
:1048C00071E08CEB92E00E94E61B0E945C1C20973A
:1048D000C9F510923D0410923C048EE190E0909353
:1048E0003F0480933E046BEE71E080E394E00E940D
:1048F000E61B0E94491568EE73E080E090E00E949C
:1049000019070E94C41B0E944915C0E0D0E00E9414
:104910005C1C2097E1F30E9466098823C1F30E9482
:104920000000F5CFC19709F0BCCF61EE71E08CEBD0
:1049300092E00E94E61B69E971E08CEB92E00E9434
:10494000E61BAFCFCE010E949028C3CF81E791E054
:10495000909331048093300480914F0490915004DF
:10496000009711F00C94902808950E94F72408F401
:1049700081E00895E89409C097FB3EF490958095F6
:10498000709561957F4F8F4F9F4F9923A9F0F92F15
:1049900096E9BB279395F695879577956795B79593
:1049A000F111F8CFFAF4BB0F11F460FF1BC06F5F79
:1049B0007F4F8F4F9F4F16C0882311F096E911C08B
:1049C000772321F09EE8872F762F05C0662371F0AC
:1049D00096E8862F70E060E02AF09A95660F771FC0
:1049E000881FDAF7880F9695879597F90895990F9C
:1049F0000008550FAA0BE0E8FEEF16161706E807A9
:104A0000F907C0F012161306E407F50798F0621BC9
:104A1000730B840B950B39F40A2661F0232B242B9E
:104A2000252B21F408950A2609F4A140A6958FEFBD
:104A3000811D811D08950E942E250C949F250E94A2
:104A4000912538F00E94982520F0952311F00C94C0
:104A500088250C948E2511240C94D3250E94B02512
:104A600070F3959FC1F3950F50E0551F629FF001C1
:104A7000729FBB27F00DB11D639FAA27F00DB11DDA
:104A8000AA1F649F6627B00DA11D661F829F222763
:104A9000B00DA11D621F739FB00DA11D621F839FEA
:104AA000A00D611D221F749F3327A00D611D231FC0
:104AB000849F600D211D822F762F6A2F11249F570E
:104AC00050409AF0F1F088234AF0EE0FFF1FBB1F11
:104AD000661F771F881F91505040A9F79E3F5105D0
:104AE00080F00C9488250C94D3255F3FE4F3983E26
:104AF000D4F3869577956795B795F795E7959F5F7A
:104B0000C1F7FE2B880F911D9695879597F908950B
:104B100097F99F6780E870E060E008959FEF80EC70
:104B2000089500240A941616170618060906089513
:104B300000240A9412161306140605060895092E79
:104B40000394000C11F4882352F0BB0F40F4BF2BE8
:104B500011F460FF04C06F5F7F4F8F4F9F4F089528
:104B600057FD9058440F551F59F05F3F71F047951E
:104B7000880F97FB991F61F09F3F79F08795089503
:104B8000121613061406551FF2CF4695F1DF08C022
:104B9000161617061806991FF1CF8695710561053F
:104BA00008940895E894BB2766277727CB0197F9E7
:104BB00008952F923F924F925F926F927F928F92C1
:104BC0009F92AF92BF92CF92DF92EF92FF920F939C
:104BD0001F93CF93DF93CDB7DEB7CA1BDB0B0FB6A6
:104BE000F894DEBF0FBECDBF09942A883988488863
:104BF0005F846E847D848C849B84AA84B984C884F9
:104C0000DF80EE80FD800C811B81AA81B981CE0FEF
:104C1000D11D0FB6F894DEBF0FBECDBFED010895D4
:104C200097FB072E16F4009407D077FD09D00E9459
:104C30006B2607FC05D03EF4909581959F4F089513
:104C4000709561957F4F0895A1E21A2EAA1BBB1B98
:104C5000FD010DC0AA1FBB1FEE1FFF1FA217B30748
:104C6000E407F50720F0A21BB30BE40BF50B661F5E
:104C7000771F881F991F1A9469F760957095809522
:104C800090959B01AC01BD01CF010895052E97FBC6
:104C90001EF400940E945D2657FD07D00E94242632
:104CA00007FC03D04EF40C945D265095409530954A
:104CB00021953F4F4F4F5F4F089590958095709588
:104CC00061957F4F8F4F9F4F0895EE0FFF1F059007
:104CD000F491E02D0994AA1BBB1B51E107C0AA1F48
:104CE000BB1FA617B70710F0A61BB70B881F991F8D
:104CF0005A95A9F780959095BC01CD01089550581B
:104D0000BB27AA270E9497260C949F250E949125D5
:104D100038F00E94982520F039F49F3F19F426F4CA
:104D20000C948E250EF4E095E7FB0C948825E92F72
:104D30000E94B02558F3BA176207730784079507D6
:104D400020F079F4A6F50C94D2250EF4E0950B2E04
:104D5000BA2FA02D0B01B90190010C01CA01A001CD
:104D60001124FF27591B99F0593F50F4503E68F128
:104D70001A16F040A22F232F342F4427585FF3CF69
:104D8000469537952795A795F0405395C9F77EF43A
:104D90001F16BA0B620B730B840BBAF09150A1F083
:104DA000FF0FBB1F661F771F881FC2F70EC0BA0F09
:104DB000621F731F841F48F4879577956795B79591
:104DC000F7959E3F08F0B0CF9395880F08F099278C
:104DD000EE0F9795879508950E9400270C949F25C4
:104DE0000E94982558F00E94912540F029F45F3FD9
:104DF00029F00C94882551110C94D3250C948E2500
:104E00000E94B02568F39923B1F3552391F3951BC4
:104E1000550BBB27AA2762177307840738F09F5FDB
:104E20005F4F220F331F441FAA1FA9F335D00E2E48
:104E30003AF0E0E832D091505040E695001CCAF7B5
:104E40002BD0FE2F29D0660F771F881FBB1F261778
:104E500037074807AB07B0E809F0BB0B802DBF014F
:104E6000FF2793585F4F3AF09E3F510578F00C941E
:104E700088250C94D3255F3FE4F3983ED4F38695C0
:104E800077956795B795F7959F5FC9F7880F911D3F
:104E90009695879597F90895E1E0660F771F881F2B
:104EA000BB1F621773078407BA0720F0621B730BDE
:104EB000840BBA0BEE1F88F7E09508950E946527D2
:104EC0006894B1110C94D32508950E94B82588F0F8
:104ED0009F5798F0B92F9927B751B0F0E1F0660FBE
:104EE000771F881F991F1AF0BA95C9F714C0B130FF
:104EF00091F00E94D225B1E008950C94D225672F3D
:104F0000782F8827B85F39F0B93FCCF3869577952D
:104F10006795B395D9F73EF4909580957095619516
:104F20007F4F8F4F9F4F08950E94F72408F48FEF13
:104F3000089519F416F40C948E250C94DF270E9422
:104F4000B825B8F39923C9F3B6F39F57550B87FFDC
:104F50000E94ED270024A0E640EA90018058569573
:104F6000979528F4805C660F771F881F20F026171E
:104F70003707480730F4621B730B840B2029312953
:104F80004A2BA69517940794202531254A2758F7D0
:104F9000660F771F881F20F026173707480730F461
:104FA000620B730B840B200D311D411DA09581F701
:104FB000B901842F9158880F9695879508959F3F42
:104FC00031F0915020F4879577956795B795880FC4
:104FD000911D9695879597F9089591505040660FC9
:104FE000771F881FD2F708950F931F93CF93DF93F6
:104FF0008230910510F482E090E0E0917204F0912B
:10500000730430E020E0B0E0A0E0309799F421157F
:10501000310509F44AC0281B390B24303105D8F575
:105020008A819B816115710589F1FB0193838283DC
:10503000FE0111C040815181028113814817590737
:10504000E0F04817590799F4109761F012960C9305
:10505000129713961C933296CF01DF91CF911F9137
:105060000F9108950093720410937304F4CF2115E7
:10507000310551F04217530738F0A901DB019A01BD
:10508000BD01DF01F801C1CFEF01F9CF90937304A7
:1050900080937204CDCFFE01E20FF31F81939193B1
:1050A0002250310939832883D7CF20917004309161
:1050B0007104232B41F42091150130911601309396
:1050C0007104209370042091130130911401211573
:1050D000310541F42DB73EB74091170150911801A9
:1050E000241B350BE0917004F0917104E217F30773
:1050F000A0F42E1B3F0B2817390778F0AC014E5F48
:105100005F4F2417350748F04E0F5F1F509371040F
:1051100040937004819391939FCFF0E0E0E09CCFA7
:10512000CF93DF930097E9F0FC013297138212824C
:10513000A0917204B0917304ED0130E020E010976B
:10514000A1F420813181820F931F2091700430914E
:1051500071042817390709F061C0F0937104E093D6
:105160007004DF91CF910895EA01CE17DF07E8F5CB
:105170004A815B819E0141155105B1F7E901FB832D
:10518000EA8349915991C40FD51FEC17FD0761F4CB
:10519000808191810296840F951FE901998388830C
:1051A000828193819B838A83F0E0E0E012968D9167
:1051B0009C9113970097B9F52D913C911197CD01D2
:1051C0000296820F931F209170043091710428176A
:1051D000390739F6309751F5109273041092720422
:1051E000B0937104A0937004BCCFD383C283408179
:1051F0005181840F951FC817D90761F44E5F5F4F27
:1052000088819981480F591F518340838A819B81EE
:10521000938382832115310509F0B0CFF093730495
:10522000E09372049ECFFD01DC01C0CF1382128295
:10523000D7CFB0E0A0E0EFE1F9E20C94DB258C01E0
:10524000009751F4CB010E94F4278C01C801CDB71F
:10525000DEB7E0E10C94F725FC01E60FF71F9C0197
:1052600022503109E217F30708F49DC0D901CD910E
:10527000DC911197C617D70798F0C530D10530F3E8
:10528000CE0104978617970708F3C61BD70B229702
:10529000C193D1936D937C93CF010E949028D6CF78
:1052A0005B01AC1ABD0A4C018C0E9D1EA0917204CC
:1052B000B0917304512C412CF12CE12C109731F555
:1052C00080917004909171048815990509F05CC073
:1052D0004616570608F058C08091130190911401AA
:1052E000009741F48DB79EB7409117015091180176
:1052F000841B950BE817F90708F055C0F09371046B
:10530000E0937004F90171836083A0CF8D919C912B
:10531000119712966C90129713967C901397A8157C
:10532000B90559F56C0142E0C40ED11CCA14DB0466
:1053300020F1AC014A195B09DA011296159780F049
:105340006282738251834083D9016D937C93E1140F
:10535000F10471F0D7011396FC93EE93129776CF78
:1053600022968C0F9D1FF90191838083F301EFCF6B
:10537000F0937304E093720469CF4816590608F459
:105380002C017D01D3019ACFCB010E94F4277C012F
:10539000009749F0AE01B8010E94DB29C8010E94C4
:1053A0009028870153CF10E000E050CF81E090E0DB
:1053B000F8940C94F229FB01DC0102C001900D92DB
:1053C00041505040D8F70895DC0101C06D93415021
:1053D0005040E0F70895FB01DC0101900D920020A0
:1053E000E1F7089515E0C3E5D5E004C0FE010E9491
:0E53F00065262196C435D107C9F7F894FFCF82
:1053FE000504030908070631323334353637383998
:10540E002A3023000074048000000000009C09FC78
:10541E00082909E9095A0938094C09000000001C3D
:10542E0013EF12D0162C06E812D512C61200000089
:10543E0000F006B0067F0600000000D31600000044
:10544E000067173317341BE41BAC19C8180619B2C2
:10545E001880185F182B180A18B41785170000004B
:10546E0000A50EFC08D0165F12B00B2C064A1122B6
:10547E00113E113211B2112C066B0C7A16200B69EB
:10548E000B6B104E10D60F770F0D0A0072656D65FF
:10549E00647900656E746572206E756D626572203A
:1054AE006F66206379636C6520616E64207072652F
:1054BE0073732023006E756D626572206F662063B4
:1054CE0079636C653A20002320707265737365648E
:1054DE000031207072657373656400636F756E744E
:0854EE00696E672E2E2E2E00C0
:00000001FF
